:100000000C945D000C9485000C9485000C94850084
:100010000C9485000C9485000C9485000C9485004C
:100020000C9485000C9485000C9485000C94C002FF
:100030000C9485000C9470070C9485000C9485003A
:100040000C94A60A0C9485000C943F080C94190893
:100050000C9485000C9485000C9485000C9485000C
:100060000C9481030C9485000000000024002700FC
:100070002A0000000000250028002B0004040404CE
:100080000404040402020202020203030303030342
:10009000010204081020408001020408102001021F
:1000A00004081020000000080002010000030407FB
:1000B00000000000000000003B0F11241FBECFEF26
:1000C000D8E0DEBFCDBF11E0A0E0B1E0E8EFF4E2A0
:1000D00002C005900D92AA37B107D9F724E0AAE72C
:1000E000B1E001C01D92A633B207E1F710E0CDE503
:1000F000D0E004C02197FE010E94C211CC35D10787
:10010000C9F70E94F00A0C947A120C940000FC01CA
:10011000538D448D252F30E0842F90E0821B930B6C
:10012000541710F0CF96089501970895FC01918D12
:10013000828D981761F0828DDF01A80FB11D5D9649
:100140008C91928D9F5F9F73928F90E008958FEFB7
:100150009FEF0895FC01918D828D981731F0828D6B
:10016000E80FF11D858D90E008958FEF9FEF0895C2
:10017000FC01918D228D892F90E0805C9F4F821B26
:1001800091098F739927089580E090E0892B29F0D9
:100190000E940D0881110C940000089585ED809354
:1001A000BC008091BC0084FDFCCF10922202089517
:1001B00040919E01262F30E0240F311D2132310560
:1001C000DCF4209122022430C9F4FC0180E090E0AC
:1001D000861758F430919E012191DC01A458BE4F3E
:1001E000A30FB11D2C930196F3CF80919E01680F50
:1001F00060939E0180E0089581E0089582E0089573
:10020000089508950895E0917B0180917A01E8179F
:1002100030F4F0E0E452FE4F808190E008958FEFDB
:100220009FEF089590917B0180917A01981750F487
:10023000E92FF0E0E452FE4F208130E09F5F909381
:100240007B0102C02FEF3FEFC901089580917A0131
:1002500090E020917B01821B91090895CF92DF925B
:10026000EF92FF920F931F93CF93DF937C01CB010B
:100270008A0120912302222389F0EB016B01C40E35
:10028000D51ECC15DD0569F06991D701ED91FC9182
:100290000190F081E02DC7010995F3CF642F0E94F2
:1002A000D800C801DF91CF911F910F91FF90EF907F
:1002B000DF90CF900895CF93DF931F92CDB7DEB735
:1002C0006983209123022223D1F02091460220321B
:1002D00040F021E030E0FC013383228380E090E0B5
:1002E00015C080912402E82FF0E0EB5DFD4F99816D
:1002F00090838F5F809324028093460205C061E063
:10030000CE0101960E94D80081E090E00F90DF912D
:10031000CF910895089580E090E008957F928F92A4
:100320009F92AF92BF92CF92DF92EF92FF920F9384
:100330001F93CF93DF93EC017F888BE0871508F440
:1003400066C0CA84DB840D2C000CEE08FF088E808A
:100350009F80092C000CAA08BB082C853D85C9018B
:10036000330FAA0BBB0B9C01AD012C193D094E09A3
:100370005F09CB01770FAA0BBB0BBC01CD0168193C
:1003800079098A099B090E94A61128853985890166
:10039000330F220B330BA9019801281939094A0997
:1003A0005B090E944B11C20ED31EE41EF51E288D60
:1003B00088E890E0821B910927FD9395880F991F8B
:1003C000880F991FC816D90684F0898D48E552E038
:1003D000481B510987FD5395440F551F440F551F66
:1003E000C6014C155D050CF4CA010297880F991FD0
:1003F0004FB7F894272D30E0F901EE0FFF1F2E0FB5
:100400003F1FF901E051FD4F928381834FBFDF9180
:10041000CF911F910F91FF90EF90DF90CF90BF9001
:10042000AF909F908F907F900895CF93C42FFC0141
:10043000828191E0909323028093450210922402DE
:100440001092460284EE92E00E945B016C2F84EED3
:1004500092E00E945B0181E0CF910C947108FC0155
:10046000848DDF01A80FB11DA35ABF4F2C91848D3D
:1004700090E001968F739927848FA689B7892C9372
:10048000A089B1898C91837080648C93938D848DC5
:10049000981306C00288F389E02D80818F7D8083C8
:1004A0000895EF92FF920F931F93CF93DF93EC0188
:1004B00081E0888F9B8D8C8D981305C0E889F98920
:1004C000808185FD26C0F62E0B8D10E00F5F1F4F3B
:1004D0000F731127E02E8C8DE8120CC00FB607FCAD
:1004E000FACFE889F989808185FFF5CFCE010E9496
:1004F0002F02F1CF8B8DFE01E80FF11DE35AFF4F64
:10050000F0829FB7F8940B8FEA89FB898081806223
:100510000AC09FB7F894EE89FF896083E889F9895A
:1005200080818370806480839FBF81E090E0DF9151
:10053000CF911F910F91FF90EF900895CF93DF938C
:10054000EC01888D8823C9F0EA89FB89808185FDCB
:1005500005C0A889B9898C9186FD0FC00FB607FC2C
:10056000F5CF808185FFF2CFA889B9898C9185FF6D
:10057000EDCFCE010E942F02E7CFDF91CF910895FA
:100580001F920F920FB60F9211242F933F934F9308
:100590005F936F937F938F939F93AF93BF93EF93EB
:1005A000FF938091C30187FF05C0109285001092D0
:1005B00084001BC02091C301022E000C330B8091DC
:1005C000140390E02817390784F48091C301082EA2
:1005D000000C990BFC01EE0FFF1F8E0F9F1FFC01FB
:1005E000E051FD4F808186FD15C08091C3018F5F72
:1005F0008093C3012091C301022E000C330B809124
:10060000140390E028173907C4F48091C3018C309B
:1006100064F113C08091C301082E000C990BFC01FA
:10062000EE0FFF1F8E0F9F1FFC01E051FD4F8081D9
:1006300060E08F730E947009D8CF80918400909100
:100640008500049680349C4918F480E49CE905C038
:100650008091840090918500049690938900809306
:1006600088008FEF8093C3013BC0209184003091BC
:1006700085008091C301082E000C990BFC01EE0F40
:10068000FF1F8E0F9F1FFC01E051FD4F8181928162
:10069000820F931F90938900809388008091C301FB
:1006A000082E000C990BFC01EE0FFF1F8E0F9F1FF1
:1006B000FC01E051FD4F808186FF12C08091C30193
:1006C000082E000C990BFC01EE0FFF1F8E0F9F1FD1
:1006D000FC01E051FD4F808161E08F730E94700941
:1006E000FF91EF91BF91AF919F918F917F916F910A
:1006F0005F914F913F912F910F900FBE0F901F90E0
:1007000018951F920F920FB60F9211242F933F93BB
:100710004F935F936F937F938F939F93AF93BF9309
:10072000EF93FF938091B900887F803609F49CC0D5
:1007300068F5883209F45BC090F4803109F454C044
:1007400038F4882309F4F6C0883009F44DC0F6C0A7
:10075000883109F44CC0803209F45DC0EFC08034A8
:1007600009F468C048F4803309F455C0883309F0AF
:10077000E5C080932002D8C0803509F44FC0883589
:1007800009F45DC0883409F0D9C0D6C0883909F4AD
:10079000C7C0A8F4883709F467C038F4883609F46C
:1007A00063C0803709F460C0C9C0883809F4B8C094
:1007B000803909F45FC0803809F0C0C05BC0803B5D
:1007C00009F486C038F4803A09F466C0883A09F41E
:1007D0007FC0B4C0803C09F4A7C0883C09F4A4C021
:1007E000883B09F48AC0AAC08091FD0110C0909195
:1007F0001F0280911E02981770F5E0911F0281E0A0
:100800008E0F80931F02F0E0E250FE4F80818093B4
:10081000BB0085EC86C0809320028EC0E0911F0251
:1008200081E08E0F80931F028091BB00F0E0E250C8
:10083000FE4F808390911F0280911E026EC0E09156
:100840001F0281E08E0F80931F028091BB00F0E0B9
:10085000E250FE4F80838091210281116DC081E0C2
:100860008093FC0184EA61C083E0809322021092AD
:10087000C201CFCF8091C201803208F051C0E09117
:10088000C20181E08E0F8093C2018091BB00F0E035
:10089000EE55FE4F8083BDCF85EC8093BC00109257
:1008A00022028091C201803230F4E091C201F0E076
:1008B000EE55FE4F10826091C20170E0E091A00100
:1008C000F091A10182EA91E009951092C20136C02F
:1008D00084E08093220210929F0110929E01E09189
:1008E0009C01F0919D01099580919E01811105C0A7
:1008F00081E080939E0110927C01E0919F0181E054
:100900008E0F80939F01F0E0E458FE4F808180932A
:10091000BB0090919F0180919E01981708F479CFB8
:1009200085E88093BC000AC085EC8093BC001092DF
:10093000220204C0109220020E94CE00FF91EF918B
:10094000BF91AF919F918F917F916F915F914F91E7
:100950003F912F910F900FBE0F901F9018950F93FE
:100960001F93CF93DF938C01FC01828191E09093E0
:10097000230280934502109224021092460284EED4
:1009800092E00E945B0180E00E947108C82F8823DA
:1009900079F08AE291E00E940F096C2F70E080E00C
:1009A00090E04AE00E94210986E391E00E940F094D
:1009B00062E0F80182810E94CD0810927B01809351
:1009C0007A0184EE92E00E941201EC0184EE92E042
:1009D0000E941201DD2796E0CC0FDD1F9A95E1F70A
:1009E0008F739E01280F311DC901DF91CF911F9197
:1009F0000F9108950F931F93CF93DF93EC0140E085
:100A000066E10E94150240E067E1CE010E941502F6
:100A10006EEFCE010E94AF048C01AC0186E05695CA
:100A200047958A95E1F766E1CE010E941502402FB5
:100A30004F7367E1CE01DF91CF911F910F910C941D
:100A400015021F93CF93DF93EC0111E018831982F5
:100A50001E821F821886198666E10E94AF049D835C
:100A60008C838A8110932302809345021092240282
:100A70001092460265E184EE92E00E945B0180E004
:100A80000E947108182F882379F08AE291E00E9471
:100A90000F09612F70E080E090E04AE00E94210998
:100AA00086E391E00E940F0961E08A810E94CD08EF
:100AB00010927B0180937A0184EE92E00E941201F1
:100AC0008B831A861B861C861D861B8E1A8E8BEACC
:100AD0009AEAAAEABEE38E8B9F8BA88FB98FDF912B
:100AE000CF911F9108954F925F926F927F928F9254
:100AF0009F92AF92BF92CF92DF92EF92FF921F939D
:100B0000CF93DF93CDB7DEB7CB54D1090FB6F894AE
:100B1000DEBF0FBECDBFE7E4F2E0A089B18982E07D
:100B20008C93A485B5851C92A685B7858FEC8C9394
:100B3000108EA489B58986E08C93A289B3898C91A3
:100B400080618C93A289B3898C9188608C93A289EF
:100B5000B3898C9180688C930288F389E02D808121
:100B60008F7D808310927B0110927A011092240273
:100B7000109246021092220281E08093210210928C
:100B8000FC0161E082E10E94700961E083E10E9462
:100B90007009E9EBF0E080818E7F808380818D7F1A
:100BA000808388E48093B80085E48093BC0080E073
:100BB00091E090939D0180939C0181E091E090935E
:100BC000A1018093A00189E391E00E94620910E4F1
:100BD00019871F8285E090E09A83898384E090E002
:100BE0009C838B8383E090E09E838D8361E085E02E
:100BF0000E94BD0961E08B810E94BD0961E08D8189
:100C00000E94BD091F821987CE0107960E94210507
:100C1000CE0107960E94FA0480E090E0A8ECB2E4CE
:100C20008FA398A7A9A7BAA78DECC82E8CECD82EB5
:100C3000ED2C8DE3F82ECBA6DCA6EDA6FEA680E07B
:100C400090E0A8E4B2E48FA798ABA9ABBAAB412C73
:100C5000512C90E2692E91E4792E4BAA5CAA6DAAE0
:100C60007EAACFAAD8AEE9AEFAAE80E090E0A0EAC4
:100C7000B0E48BAF9CAFADAFBEAF2C961FAE2C9740
:100C80008BE4FE013196A9E4B3E001900D928A95C0
:100C9000E1F719871F8288E090E09A83898387E0D3
:100CA00090E09C838B8386E090E09E838D8361E05F
:100CB00088E00E94BD0961E08B810E94BD0961E06E
:100CC0008D810E94BD091F8281E48987CE0107962C
:100CD0000E942105CE0107960E94FA0480E090E070
:100CE000A0EFB2E48FA398A7A9A7BAA7CBA6DCA6CA
:100CF000EDA6FEA6812C912C20E7A22E22E4B22E96
:100D00008FA698AAA9AABAAA8BAB9CABADABBEAB77
:100D1000CFAAD8AEE9AEFAAE8BAE9CAEADAEBEAE4B
:100D20002C961FAE2C978BE4FE013196A4E9B3E01C
:100D300001900D928A95E1F719871F828CE090E06F
:100D40009A8389838DE090E09C838B838BE090E095
:100D50009E838D8361E08CE00E94BD0961E08B8100
:100D60000E94BD0961E08D810E94BD091F8282E45D
:100D70008987CE0107960E942105CE0107960E9421
:100D8000FA044FA258A669A67AA6CBA6DCA6EDA6C1
:100D9000FEA680E090E0A0EAB0E48FA798ABA9ABF4
:100DA000BAAB80E090E0A8ECB2E48BAB9CABADAB0F
:100DB000BEABCFAAD8AEE9AEFAAE8BAE9CAEADAEAE
:100DC000BEAE2C961FAE2C978BE4FE013196AFED94
:100DD000B3E001900D928A95E1F710926B031092A7
:100DE0006C0310926D0310926E0310928B0310929D
:100DF0008C0310928D0310928E0310928703109231
:100E000088031092890310928A031092B6031092FD
:100E1000B7031092B8031092B9031092D603109240
:100E2000D7031092D8031092D9031092D2031092D4
:100E3000D3031092D4031092D503109201041092A0
:100E400002041092030410920404109221041092E0
:100E50002204109223041092240410921D04109274
:100E60001E0410921F041092200441E069E070E01B
:100E7000CE0101960E94F9098AE1FE013196A5E1B1
:100E8000B3E001900D928A95E1F740E06AE070E0EE
:100E9000CE0101960E94F9098AE1FE013196AFE286
:100EA000B3E001900D928A95E1F78FE491E00E9402
:100EB0006209C55BDF4F0FB6F894DEBF0FBECDBF32
:100EC000DF91CF911F91FF90EF90DF90CF90BF9077
:100ED000AF909F908F907F906F905F904F9008950C
:100EE0001F920F920FB60F9211242F933F934F939F
:100EF0005F936F937F938F939F93AF93BF93EF9382
:100F0000FF93E0E0F0E00995FF91EF91BF91AF9181
:100F10009F918F917F916F915F914F913F912F9111
:100F20000F900FBE0F901F901895EF92FF920F93A6
:100F30001F93CF93DF93EC017B018A018D89882376
:100F400029F00E949A0A7C8B6B8B1D8A81E0E8163F
:100F5000F104D1F082E0E816F10431F1EF2821F537
:100F60000E949A0A2B893C89621B730B60177107D8
:100F70001CF46E817F8113C060E070E0CE010E949E
:100F80008E0181E08D8B16C00E949A0A2B893C89C4
:100F9000621B730B601771077CF768857985CE013A
:100FA0000E948E011E8A07C060E070E0CE010E94A0
:100FB0008E0181E08E8B8E89DF91CF911F910F91F1
:100FC000FF90EF900895CF92DF92EF92FF920F93F0
:100FD0001F93CF93DF936C017A018B01C0E0D0E0C7
:100FE000CE15DF0581F0D8016D918D01D601ED910F
:100FF000FC910190F081E02DC6010995892B11F03B
:101000002196EECF7E01C701DF91CF911F910F9105
:10101000FF90EF90DF90CF90089587E492E00E94D8
:10102000B80021E0892B09F420E0822F08950E9466
:1010300075121F920F920FB60F9211242F933F93A8
:101040004F935F936F937F938F939F93AF93BF93D0
:10105000EF93FF9387E492E00E942F02FF91EF91BC
:10106000BF91AF919F918F917F916F915F914F91C0
:101070003F912F910F900FBE0F901F9018951F92C8
:101080000F920FB60F9211242F938F939F93EF938C
:10109000FF93E0915702F09158028081E0915D0248
:1010A000F0915E0282FD12C09081809160028F5F9C
:1010B0008F7320916102821751F0E0916002F0E09D
:1010C000E95BFD4F958F8093600201C08081FF91A5
:1010D000EF919F918F912F910F900FBE0F901F90C6
:1010E0001895282F30914602313208F04AC080917D
:1010F00022028111FCCF9091450242E040932202EE
:10110000209321022FEF2093200210921F02309390
:101110001E02E5E2F2E0AEEFB1E020E0321721F08E
:1011200041914D932F5FFACF1092FD012091FD0167
:10113000990F922B9093FD019091FC01913061F4F5
:101140001092FC019091FD019093BB009091BC0026
:1011500093FDF8CF95EC01C095EE9093BC00909173
:1011600022029230E1F3909120029F3F79F080912A
:101170002002803241F080912002803331F084E0FF
:1011800005C081E003C082E001C083E01092240228
:10119000109246021092230208959091220291111A
:1011A000FCCF91E090932202909321022FEF2093A5
:1011B000200210921F02260F20931E029093FD0121
:1011C0009091FD01880F892B8093FD018091FC0196
:1011D000813061F41092FC018091FD018093BB008D
:1011E0008091BC0083FDF8CF85EC01C085EE809333
:1011F000BC00809122028130E1F380911F028617AA
:1012000010F460911F02AEEFB1E0ECEDF1E080E090
:10121000861721F09D9191938F5FFACF08950097E3
:1012200069F0FC0101900020E9F73197AF01481BFC
:10123000590BBC0187E492E00C94E30780E090E056
:1012400008958F929F92AF92BF920F931F93CF9367
:10125000DF93CDB7DEB7A1970FB6F894DEBF0FBE10
:10126000CDBF19A2423008F44AE08E010F5D1F4F36
:10127000842E912CA12CB12CA50194010E947511F2
:10128000E62FB901CA0101501109EA3014F4E05DFA
:1012900001C0E95CD801EC93232B242B252B61F7AB
:1012A000C8010E940F09A1960FB6F894DEBF0FBEC9
:1012B000CDBFDF91CF911F910F91BF90AF909F90C5
:1012C0008F900895CF93DF930E940F09EC0186E37E
:1012D00091E00E940F098C0F9D1FDF91CF9108951F
:1012E00090E0FC01EC55FF4F2491FC01E057FF4FCB
:1012F0003491FC01E458FF4FE491EE2309F43CC023
:10130000222339F1233091F038F42130A9F0223032
:1013100001F584B58F7D12C0273091F02830A1F0FF
:101320002430B9F4809180008F7D03C080918000CB
:101330008F77809380000DC084B58F7784BD09C0FE
:101340008091B0008F7703C08091B0008F7D809333
:10135000B000F0E0EE0FFF1FEE58FF4FA591B491E3
:101360009FB7F894611104C08C913095382302C066
:10137000EC913E2B3C939FBF0895CF93DF9390E079
:10138000FC01E057FF4F2491FC01E458FF4F84918A
:10139000882361F190E0880F991FFC01E859FF4F05
:1013A000C591D491FC01EE58FF4FA591B491611104
:1013B00009C09FB7F8948881209582238883EC9197
:1013C0002E230BC0623061F49FB7F8948881322FCE
:1013D000309583238883EC912E2B2C939FBF06C0DE
:1013E0008FB7F894E8812E2B28838FBFDF91CF91A0
:1013F00008951F93CF93DF93FC01128A118A148AF8
:10140000138A81E0858B209114032C30A0F4820F85
:1014100080931403278B30E0D901AA0FBB1F2A0F3A
:101420003B1FD901A051BD4F88EB9BE012969C93C6
:101430008E93119702C08FEF878B8CED95E0978785
:101440008687442379F081E09FEF978386838FEF2F
:1014500090E09187808780ED97E09387828788EE80
:1014600093E00EC08FEF90E09783868381E09FEF3B
:101470009187808788EE93E09387828780ED97E05D
:101480009587848787898C3008F050C0162FEF012C
:1014900061E0812F0E94BD098F89E82FF0E09F0154
:1014A000220F331FE20FF31FE051FD4F1F736081C6
:1014B000607C162B1083188E198E6CE00E94B6117A
:1014C0009CE0899FB001112440E050E09B01240F73
:1014D000351FF901EE0FFF1F2E0F3F1FF901E051DD
:1014E000FD4F908196FD16C04F5F5F4F4C30510508
:1014F00069F781110FC01092800082E08093810013
:101500001092850010928400B19A80916F008260E1
:1015100080936F00EF89F0E0CF01880F991FE80FEB
:10152000F91FE051FD4F808180648083DF91CF916E
:101530001F9108952FB7F89460912F047091300493
:1015400080913104909132042FBF08951F920F9221
:101550000FB60F9211242F933F938F939F93AF93C6
:10156000BF9380912F0490913004A0913104B091E9
:10157000320430912E0423E0230F2D3720F40196FE
:10158000A11DB11D05C026E8230F0296A11DB11DA6
:1015900020932E0480932F0490933004A093310461
:1015A000B093320480912A0490912B04A0912C04D2
:1015B000B0912D040196A11DB11D80932A04909332
:1015C0002B04A0932C04B0932D04BF91AF919F9155
:1015D0008F913F912F910F900FBE0F901F901895F4
:1015E000CF93DF9300D000D0CDB7DEB7789484B529
:1015F000826084BD84B5816084BD85B5826085BD0F
:1016000085B5816085BD80916E00816080936E009C
:10161000109281008091810082608093810080918E
:10162000810081608093810080918000816080933F
:1016300080008091B10084608093B1008091B000FF
:1016400081608093B00080917A00846080937A00FA
:1016500080917A00826080937A0080917A00816024
:1016600080937A0080917A00806880937A0010924B
:10167000C1000E9473054CED242E41E0342E87E416
:1016800092E00E94B800181619068CF080910301B0
:101690008111BDC16091C6017091C70148E052E55A
:1016A00085E193E00E94950780930301B0C184E532
:1016B00091E00E9462092CEC31E03A8329833C835B
:1016C0002B830E949A0A60934F027093500280937A
:1016D00051029093520287E492E00E94960097FF95
:1016E000BCC30E949A0AC0904F02D0905002E09072
:1016F0005102F0905202DC01CB018C199D09AE0918
:10170000BF09C0904B02D0904C02E0904D02F09087
:101710004E028C159D05AE05BF05E8F26091CC0127
:1017200087E492E00E94510286E391E00E940F0953
:101730008091CC018D3219F0803309F058C1E12C31
:10174000F12C80E090E0E981FA812191FA83E9832C
:10175000FC01E853FE4F20838330910514F4019679
:101760003FC1F3E0EF16F1040CF4F6C05091CA014A
:10177000252F052E000C330B2053310960910401F5
:10178000709105012617370751F03093C701209358
:10179000C60130930501209304011092030140918A
:1017A000CB01242F042E000C330B20533109609100
:1017B0000101709102012617370751F03093C501DE
:1017C0002093C40130930201209301011092000183
:1017D000541709F405C140906F0350907003609056
:1017E0007103709072038090730390907403A090C3
:1017F0007503B09076034091770350917803609120
:10180000790370917A0300917B0310917C032091FE
:101810007D0330917E0300936F0310937003209338
:1018200071033093720300917F0310918003209124
:101830008103309182030093730310937403209308
:1018400075033093760300918303109184032091F4
:1018500085033091860300937703109378032093D8
:10186000790330937A0340927B0350927C03609219
:101870007D0370927E0380927F0390928003A092FA
:101880008103B09282034093830350938403609357
:101890008503709386034090050450900604609081
:1018A0000704709008048090090490900A04A090A6
:1018B0000B04B0900C0440910D0450910E04609103
:1018C0000F047091100400911104109112042091E2
:1018D000130430911404009305041093060420931C
:1018E0000704309308040091150410911604209108
:1018F0001704309118040093090410930A042093EC
:101900000B0430930C040091190410911A042091D7
:101910001B0430911C0400930D0410930E042093BB
:101920000F043093100440921104509212046092FC
:101930001304709214048092150490921604A092DD
:101940001704B09218044093190450931A0460933A
:101950001B0470931C0444C08091C8018D3221F097
:10196000CC24C394D12C03C0CC24CA94DC2C20E317
:101970002093C80188EC91E00E9401102BE42E9D79
:10198000F0012F9DF00D1124E75BFC4FFC83EB83EE
:10199000FC01EC9DC001ED9D900DFC9D900D11246E
:1019A000BC01990F880B990B0E942E10EB81FC81D2
:1019B00062A373A384A395A3EE5BFF4F10821182F1
:1019C000128213822B813C81225C3F4FF9011082ED
:1019D000118212821382FFEFEF1AFF0A80E090E07B
:1019E00029813A812216330609F0ADCE4FCE80E12F
:1019F00090E09A83898387E492E00E949600E981CF
:101A0000FA813197FA83E983EF2BA9F73FCE8091D2
:101A1000000181110CC06091C4017091C50148EDB5
:101A200059E58FE293E00E9495078093000129E435
:101A300033E03A83298307E813E089819A81069687
:101A4000E981FA8127816EEF222339F00E94AF04E9
:101A50006FEF7FE3681B790B03C00E94AF04BC01EA
:101A600080E090E00E942C10E981FA8164877587FC
:101A70008687978720E030E040E858E30E948D1089
:101A800020E030E044EB53E40E948D106B017C01B8
:101A9000F8018485882309F4A6C085E691E00E94B8
:101AA0000F09A7019601C701B6010E947012882391
:101AB00019F08DE691E01AC046015701E894B7F895
:101AC0002FEF3FEF4FE75FE7C501B4010E947012AF
:101AD00081110FC02FEF3FEF4FE75FE7C501B40162
:101AE0000E94271018162CF481E791E00E940F093C
:101AF00076C02FEF3FEF4FE75FE4C701B6010E94CA
:101B00006B1218161CF485E791E0F0CF2FEF3FEF32
:101B10004FE75FECC701B6010E94271087FDF3CFA6
:101B200020E030E0A901C701B6010E94271087FF1D
:101B300009C06DE287E492E00E945102C701B6013C
:101B4000905802C0C701B6012AE037ED43EA5BE3D3
:101B50000E94C9112B013C010E943C124B015C0107
:101B60000E942C109B01AC01C301B2010E94C8115C
:101B70002B013C014AE0C501B4010E9421096EE23B
:101B800087E492E00E94510220E030E040E251E41C
:101B9000C301B2010E948D102B013C010E943C1236
:101BA0004B01A12CB12C4AE0C501B4010E942109CE
:101BB000C501B4010E942C109B01AC01C301B2010C
:101BC0000E94C81120E030E040E251E40E948D10F4
:101BD0000E943C1280E090E04AE00E94210986E3E6
:101BE00091E00E940F0920E030E0A901C701B60191
:101BF0000E946B1287FD14C020E030E846EB53E4EE
:101C0000C701B6010E942710181654F0F801C086CB
:101C1000D186E286F3867C2D6D2D9E2D8F2D05C0FD
:101C2000F8017085618592858385272F362F492F8E
:101C3000582FE981FA8162A173A184A195A10E9424
:101C4000C8116B017C010E9435129B0177FF04C013
:101C500022273327261B370B253B310554F020E084
:101C600030E044EB53E4C701B6010E94C9116B0197
:101C70007C01F8012081318142815381C701B60185
:101C80000E94C9114B015C01F8016083718382835A
:101C90009383E981FA8126A137A140A551A5C70107
:101CA000B6010E948D102B013C01E981FA8122A529
:101CB00033A544A555A5C501B4010E948D109B0113
:101CC000AC01C301B2010E94C9114B015C01F801D2
:101CD0002481358146815781C701B6010E94C81110
:101CE000E981FA8126A537A540A951A90E948D1046
:101CF0009B01AC01C501B4010E94C9110E943512BB
:101D00005B01072E000C880B990B0E942E102B01F3
:101D10003C0120E030E845E653EC0E94271087FDA7
:101D20000DC020E030E845E653E4C301B2010E9453
:101D30006B1218167CF0B7FE10C004C09BE1A92EF0
:101D4000BB24BA9461E0E981FA8180810E94700924
:101D500060E00AC085EEA82EB12C60E0E981FA812E
:101D600080810E94700961E0E981FA8182810E948C
:101D70007009B7FE03C0B194A194B108E981FA815A
:101D80008480958061E0882D0E94BD09A114B10472
:101D900009F449C0FFEFAF16B10409F446C0F401DD
:101DA000FF27EC55FF4FE491E330F9F048F4E130C0
:101DB000B9F0E230A1F584B5806284BDA8BC39C019
:101DC000E730E9F0E83019F1E43049F5809180001E
:101DD000806280938000B0928B00A0928A0029C01C
:101DE00084B5806884BDA7BC24C0809180008068D1
:101DF00080938000B0928900A09288001AC08091E0
:101E0000B00080688093B000A092B30012C08091AF
:101E1000B00080628093B000A092B4000AC020E8B5
:101E2000A216B10414F460E001C061E0882D0E94A4
:101E30007009F801C482D582E682F78229813A814D
:101E4000255B3F4F3A832983055B1F4F2A5234405D
:101E500009F0F3CD0E94C40012CC8A30910509F438
:101E60005DCCEB81FC818193FC83EB832E163F06D6
:101E700009F027CC53CCCF9310924A02109249021A
:101E800088EE93E0A0E0B0E080934B0290934C0288
:101E9000A0934D02B0934E022AE031E03093480205
:101EA0002093470225EC30E03093540220935302F4
:101EB00024EC30E0309356022093550220EC30E0C1
:101EC000309358022093570221EC30E030935A02AD
:101ED0002093590222EC30E030935C0220935B02A5
:101EE00026EC30E030935E0220935D021092600297
:101EF0001092610210926202109263021092E70245
:101F00001092E6028093E8029093E902A093EA021D
:101F1000B093EB028CE191E09093E5028093E402B0
:101F200080E48093510310924F0380939C0310929E
:101F30009A038093E7031092E5038EE080933304C5
:101F400060E00E94BD09C1E0C093340461E080916B
:101F500033040E9470091092350480913404811179
:101F600002C0C093350410922703109226031092EA
:101F700029031092280381E080932A03809114039F
:101F80008C3020F08FEF80932C0313C091E0980FDA
:101F90009093140380932C0390E0FC01EE0FFF1F3D
:101FA0008E0F9F1FFC01E051FD4F88EB9BE0928359
:101FB00081831092410310924003109243031092C8
:101FC000420381E080934403809114038C3020F01D
:101FD0008FEF8093460313C091E0980F9093140302
:101FE0008093460390E0FC01EE0FFF1F8E0F9F1FB2
:101FF000FC01E051FD4F88EB9BE092838183CF9100
:102000000895FC0188279927E89421912032E9F36B
:10201000293010F02E30C8F32B3241F02D3239F434
:10202000689404C00E941F10820F911D21912053BB
:102030002A30C0F31EF4909581959F4F08957AE061
:10204000979F902D879F802D910D112408950E94B8
:10205000691008F481E00895E89409C097FB3EF404
:1020600090958095709561957F4F8F4F9F4F9923E5
:10207000A9F0F92F96E9BB279395F6958795779563
:102080006795B795F111F8CFFAF4BB0F11F460FF23
:102090001BC06F5F7F4F8F4F9F4F16C0882311F07B
:1020A00096E911C0772321F09EE8872F762F05C08F
:1020B000662371F096E8862F70E060E02AF09A952A
:1020C000660F771F881FDAF7880F9695879597F91F
:1020D0000895990F0008550FAA0BE0E8FEEF1616B9
:1020E0001706E807F907C0F012161306E407F5070C
:1020F00098F0621B730B840B950B39F40A2661F080
:10210000232B242B252B21F408950A2609F4A14022
:10211000A6958FEF811D811D08950E94A0100C943B
:1021200011110E94031138F00E940A1120F095232A
:1021300011F00C94FA100C94001111240C94451118
:102140000E94221170F3959FC1F3950F50E0551F27
:10215000629FF001729FBB27F00DB11D639FAA27FC
:10216000F00DB11DAA1F649F6627B00DA11D661F4B
:10217000829F2227B00DA11D621F739FB00DA11D6C
:10218000621F839FA00D611D221F749F3327A00D26
:10219000611D231F849F600D211D822F762F6A2FC2
:1021A00011249F5750409AF0F1F088234AF0EE0F27
:1021B000FF1FBB1F661F771F881F91505040A9F754
:1021C0009E3F510580F00C94FA100C9445115F3F2E
:1021D000E4F3983ED4F3869577956795B795F79590
:1021E000E7959F5FC1F7FE2B880F911D9695879508
:1021F00097F9089597F99F6780E870E060E0089587
:102200009FEF80EC089500240A941616170618060E
:102210000906089500240A941216130614060506EA
:102220000895092E0394000C11F4882352F0BB0F7B
:1022300040F4BF2B11F460FF04C06F5F7F4F8F4FDE
:102240009F4F089557FD9058440F551F59F05F3F19
:1022500071F04795880F97FB991F61F09F3F79F0C8
:1022600087950895121613061406551FF2CF46954A
:10227000F1DF08C0161617061806991FF1CF8695CC
:102280007105610508940895E894BB2766277727B0
:10229000CB0197F90895052E97FB1EF400940E9438
:1022A000621157FD07D00E94751107FC03D04EF450
:1022B0000C94621150954095309521953F4F4F4FAA
:1022C0005F4F089590958095709561957F4F8F4FE2
:1022D0009F4F08950E949711A59F900DB49F900D58
:1022E000A49F800D911D11240895A1E21A2EAA1B0E
:1022F000BB1BFD010DC0AA1FBB1FEE1FFF1FA217B6
:10230000B307E407F50720F0A21BB30BE40BF50BB2
:10231000661F771F881F991F1A9469F7609570953B
:10232000809590959B01AC01BD01CF010895A29FBE
:10233000B001B39FC001A39F700D811D1124911D99
:10234000B29F700D811D1124911D0895DB018F93A3
:102350009F930E946A11BF91AF91A29F800D911D22
:10236000A39F900DB29F900D11240895991B79E0C1
:1023700004C0991F961708F0961B881F7A95C9F715
:1023800080950895EE0FFF1F0590F491E02D0994BC
:102390005058BB27AA270E94E0110C9411110E94EB
:1023A000031138F00E940A1120F039F49F3F19F40C
:1023B00026F40C9400110EF4E095E7FB0C94FA104F
:1023C000E92F0E94221158F3BA1762077307840796
:1023D000950720F079F4A6F50C9444110EF4E095DD
:1023E0000B2EBA2FA02D0B01B90190010C01CA01CF
:1023F000A0011124FF27591B99F0593F50F4503E7A
:1024000068F11A16F040A22F232F342F4427585F6B
:10241000F3CF469537952795A795F0405395C9F783
:102420007EF41F16BA0B620B730B840BBAF091503B
:10243000A1F0FF0FBB1F661F771F881FC2F70EC0DA
:10244000BA0F621F731F841F48F4879577956795AD
:10245000B795F7959E3F08F0B0CF9395880F08F099
:102460009927EE0F9795879508950E943C126894DE
:10247000B1110C94451108950E942A1188F09F57BC
:1024800098F0B92F9927B751B0F0E1F0660F771F98
:10249000881F991F1AF0BA95C9F714C0B13091F08E
:1024A0000E944411B1E008950C944411672F782FD5
:1024B0008827B85F39F0B93FCCF386957795679553
:1024C000B395D9F73EF490958095709561957F4FBF
:1024D0008F4F9F4F08950E94691008F48FEF089561
:1024E0000E946910880B990B089581E090E0F894A0
:0824F0000C947A12F894FFCF5E
:1024F80001FFFF01FFFF000000005102E307870012
:102508009E02B8009600AA00000000005B012E01A0
:102518008B01020126011201030149324320657231
:10252800726F723A20000D0A00526F626F74206950
:102538006E7469616C697A696E672E2E2E2E00445E
:102548006F6E65004D6573736167652072656365BD
:102558006976656400616E676C653A20006E616E2D
:0A25680000696E66006F76660000E1
:00000001FF
