:100000000C945D000C9485000C9485000C94850084
:100010000C9485000C9485000C9485000C9485004C
:100020000C9485000C9485000C9485000C94BB0105
:100030000C9485000C946B060C9485000C94850040
:100040000C94C30A0C9485000C94F1070C94CB0714
:100050000C9485000C9485000C9485000C9485000C
:100060000C947C020C948500000000002400270002
:100070002A0000000000250028002B0004040404CE
:100080000404040402020202020203030303030342
:10009000010204081020408001020408102001021F
:1000A00004081020000000080002010000030407FB
:1000B00000000000000000001A0E11241FBECFEF48
:1000C000D8E0DEBFCDBF11E0A0E0B1E0E6EBF2E2A8
:1000D00002C005900D92AA35B107D9F724E0AAE530
:1000E000B1E001C01D92A231B207E1F710E0CDE509
:1000F000D0E004C02197FE010E94A110CC35D107A9
:10010000C9F70E940D0B0C9459110C940000FC01CE
:10011000918D828D981761F0828DDF01A80FB11D3E
:100120005D968C91928D9F5F9F73928F90E0089562
:100130008FEF9FEF0895FC01918D828D981731F01C
:10014000828DE80FF11D858D90E008958FEF9FEF70
:100150000895FC01918D228D892F90E0805C9F4F46
:10016000821B91098F739927089580E090E0892B75
:1001700029F00E94500781110C940000089585ED2C
:100180008093BC008091BC0084FDFCCF1092FE01E6
:10019000089540917E01262F30E0240F311D213239
:1001A0003105DCF42091FE012430C9F4FC0180E02B
:1001B00090E0861758F430917E012191DC01A45A19
:1001C000BE4FA30FB11D2C930196F3CF80917E01FA
:1001D000680F60937E0180E0089581E0089582E0D9
:1001E0000895089508950895E0915B0180915A0162
:1001F000E81730F4F0E0E854FE4F808190E0089575
:100200008FEF9FEF089590915B0180915A019817AD
:1002100050F4E92FF0E0E854FE4F208130E09F5F7A
:1002200090935B0102C02FEF3FEFC90108958091C9
:100230005A0190E020915B01821B91090895CF92B1
:10024000DF92EF92FF920F931F93CF93DF937C0186
:10025000CB018A012091FF01222389F0EB016B0180
:10026000C40ED51ECC15DD0569F06991D701ED915D
:10027000FC910190F081E02DC7010995F3CF642F27
:100280000E94C900C801DF91CF911F910F91FF908B
:10029000EF90DF90CF900895CF93DF931F92CDB76B
:1002A000DEB769832091FF012223D1F02091220241
:1002B000203240F021E030E0FC013383228380E0F3
:1002C00090E015C080910002E82FF0E0EF5FFD4F55
:1002D000998190838F5F809300028093220205C0F2
:1002E00061E0CE0101960E94C90081E090E00F908C
:1002F000DF91CF910895089580E090E00895CF9325
:10030000C42FFC01828191E09093FF018093210230
:10031000109200021092220280EC92E00E944C01A6
:100320006C2F80EC92E00E944C0181E0CF910C9404
:100330002308FC01848DDF01A80FB11DA35ABF4F14
:100340002C91848D90E001968F739927848FA689D4
:10035000B7892C93A089B1898C91837080648C9328
:10036000938D848D981306C00288F389E02D8081D7
:100370008F7D808308951F920F920FB60F921124E4
:100380002F933F934F935F936F937F938F939F939D
:10039000AF93BF93EF93FF938091A30187FF05C0B5
:1003A00010928500109284001BC02091A301022EA0
:1003B000000C330B8091F00290E02817390784F489
:1003C0008091A301082E000C990BFC01EE0FFF1F7A
:1003D0008E0F9F1FFC01E453FD4F808186FD15C0E9
:1003E0008091A3018F5F8093A3012091A301022E2E
:1003F000000C330B8091F00290E028173907C4F409
:100400008091A3018C3064F113C08091A301082E68
:10041000000C990BFC01EE0FFF1F8E0F9F1FFC01BC
:10042000E453FD4F808160E08F730E944609D8CF6E
:100430008091840090918500049680349C4918F442
:1004400080E49CE905C08091840090918500049629
:1004500090938900809388008FEF8093A3013BC025
:1004600020918400309185008091A301082E000C1A
:10047000990BFC01EE0FFF1F8E0F9F1FFC01E45331
:10048000FD4F81819281820F931F90938900809309
:1004900088008091A301082E000C990BFC01EE0F3F
:1004A000FF1F8E0F9F1FFC01E453FD4F808186FFCD
:1004B00012C08091A301082E000C990BFC01EE0FD5
:1004C000FF1F8E0F9F1FFC01E453FD4F808161E0F1
:1004D0008F730E944609FF91EF91BF91AF919F9159
:1004E0008F917F916F915F914F913F912F910F90DD
:1004F0000FBE0F901F9018951F920F920FB60F927C
:1005000011242F933F934F935F936F937F938F9318
:100510009F93AF93BF93EF93FF938091B900887F30
:10052000803609F49CC068F5883209F45BC090F409
:10053000803109F454C038F4882309F4F6C08830B7
:1005400009F44DC0F6C0883109F44CC0803209F47A
:100550005DC0EFC0803409F468C048F4803309F40A
:1005600055C0883309F0E5C08093FC01D8C08035C0
:1005700009F44FC0883509F45DC0883409F0D9C04A
:10058000D6C0883909F4C7C0A8F4883709F467C011
:1005900038F4883609F463C0803709F460C0C9C0F4
:1005A000883809F4B8C0803909F45FC0803809F090
:1005B000C0C05BC0803B09F486C038F4803A09F4BF
:1005C00066C0883A09F47FC0B4C0803C09F4A7C073
:1005D000883C09F4A4C0883B09F48AC0AAC0809171
:1005E000D90110C09091FB018091FA01981770F524
:1005F000E091FB0181E08E0F8093FB01F0E0E65279
:10060000FE4F80818093BB0085EC86C08093FC0107
:100610008EC0E091FB0181E08E0F8093FB01809101
:10062000BB00F0E0E652FE4F80839091FB01809189
:10063000FA016EC0E091FB0181E08E0F8093FB0117
:100640008091BB00F0E0E652FE4F80838091FD0177
:1006500081116DC081E08093D80184EA61C083E09C
:100660008093FE011092A201CFCF8091A20180322F
:1006700008F051C0E091A20181E08E0F8093A201A9
:100680008091BB00F0E0EE57FE4F8083BDCF85EC3C
:100690008093BC001092FE018091A201803230F460
:1006A000E091A201F0E0EE57FE4F10826091A201AE
:1006B00070E0E0918001F091810182E891E009957C
:1006C0001092A20136C084E08093FE0110927F0157
:1006D00010927E01E0917C01F0917D01099580915D
:1006E0007E01811105C081E080937E0110925C0142
:1006F000E0917F0181E08E0F80937F01F0E0E45A6A
:10070000FE4F80818093BB0090917F0180917E019C
:10071000981708F479CF85E88093BC000AC085EC6F
:100720008093BC001092FE0104C01092FC010E9454
:10073000BF00FF91EF91BF91AF919F918F917F91FA
:100740006F915F914F913F912F910F900FBE0F903E
:100750001F9018950F931F93CF93DF938C01FC018B
:10076000828191E09093FF01809321021092000218
:100770001092220280EC92E00E944C0180E00E94E4
:100780002308C82F882379F086E291E00E94C108EF
:100790006C2F70E080E090E04AE00E94D30882E392
:1007A00091E00E94C10862E0F80182810E947F0806
:1007B00010925B0180935A0180EC92E00E94030149
:1007C000EC0180EC92E00E940301DD2796E0CC0F63
:1007D000DD1F9A95E1F78F739E01280F311DC90126
:1007E000DF91CF911F910F9108950F931F93CF9396
:1007F000DF93EC0140E066E10E947F0140E067E1A9
:10080000CE010E947F016EEFCE010E94AA038C01EF
:10081000AC0186E0569547958A95E1F766E1CE01F1
:100820000E947F01402F4F7367E1CE01DF91CF918E
:100830001F910F910C947F011F93CF93DF93EC01D5
:1008400011E0188319821E821F821886198666E1BC
:100850000E94AA039D838C838A811093FF01809359
:100860002102109200021092220265E180EC92E0D7
:100870000E944C0180E00E942308182F882379F001
:1008800086E291E00E94C108612F70E080E090E074
:100890004AE00E94D30882E391E00E94C10861E02F
:1008A0008A810E947F0810925B0180935A0180EC3C
:1008B00092E00E9403018B831A861B861C861D868C
:1008C0001B8E1A8E8BEA9AEAAAEABEE38E8B9F8B66
:1008D000A88FB98FDF91CF911F9108954F925F92AA
:1008E0006F927F928F929F92AF92BF92CF92DF9240
:1008F000EF92FF921F93CF93DF93CDB7DEB7CB5428
:10090000D1090FB6F894DEBF0FBECDBFE3E2F2E02F
:10091000A089B18982E08C93A485B5851C92A685B7
:10092000B7858FEC8C93108EA489B58986E08C9363
:10093000A289B3898C9180618C93A289B3898C91AF
:1009400088608C93A289B3898C9180688C9302888B
:10095000F389E02D80818F7D808310925B0110925E
:100960005A0110920002109222021092FE0181E0C0
:100970008093FD011092D80161E082E10E94460956
:1009800061E083E10E944609E9EBF0E080818E7F1F
:10099000808380818D7F808388E48093B80085E4A4
:1009A0008093BC0081EF90E090937D0180937C0167
:1009B00082EF90E0909381018093800110E4198789
:1009C0001F8285E090E09A83898384E090E09C8395
:1009D0008B8383E090E09E838D8361E085E00E94BD
:1009E000930961E08B810E94930961E08D810E94EF
:1009F00093091F821987CE0107960E941C04CE011D
:100A000007960E94F50380E090E0AAE2B3E48FA38A
:100A100098A7A9A7BAA78DECC82E8CECD82EED2CE0
:100A20008DE3F82ECBA6DCA6EDA6FEA680E090E036
:100A3000AAEAB2E48FA798ABA9ABBAAB412C512C70
:100A400090E4692E91E4792E4BAA5CAA6DAA7EAA45
:100A5000CFAAD8AEE9AEFAAE812C912C20ECA22E12
:100A600020E4B22E8BAE9CAEADAEBEAE2C961FAEC9
:100A70002C978BE4FE013196A5E2B3E001900D9234
:100A80008A95E1F719871F8288E090E09A8389832D
:100A900087E090E09C838B8386E090E09E838D834B
:100AA00061E088E00E94930961E08B810E949309D4
:100AB00061E08D810E9493091F8281E48987CE01C4
:100AC00007960E941C04CE0107960E94F50340E0A1
:100AD00050E066E173E44FA358A769A77AA7CBA6B5
:100AE000DCA6EDA6FEA680E090E0ACE8B2E48FA71D
:100AF00098ABA9ABBAAB4BAB5CAB6DAB7EABCFAA43
:100B0000D8AEE9AEFAAE8BAF9CAFADAFBEAF2C9610
:100B10001FAE2C978BE4FE013196A0E7B3E0019065
:100B20000D928A95E1F719871F828CE090E09A83F5
:100B300089838DE090E09C838B838BE090E09E83A3
:100B40008D8361E08CE00E94930961E08B810E94BB
:100B5000930961E08D810E9493091F8282E4898755
:100B6000CE0107960E941C04CE0107960E94F50351
:100B70004FA258A669A67AA6CBA6DCA6EDA6FEA62D
:100B80008FA698AAA9AABAAA80E090E0AAE2B3E444
:100B90008BAB9CABADABBEABCFAAD8AEE9AEFAAED9
:100BA00080E090E0AAEAB2E48BAF9CAFADAFBEAFFD
:100BB0002C961FAE2C978BE4FE013196ABEBB3E085
:100BC00001900D928A95E1F780E090E0A0EAB1E40F
:100BD0008093470390934803A0934903B0934A033B
:100BE00010926703109268031092690310926A03CF
:100BF00010926303109264031092650310926603CF
:100C00008093920390939303A0939403B0939503DE
:100C10001092B2031092B3031092B4031092B50372
:100C20001092AE031092AF031092B0031092B10372
:100C300080E090E0ACE5B2EC8093DD039093DE03BE
:100C4000A093DF03B093E0031092FD031092FE0324
:100C50001092FF03109200041092F9031092FA030D
:100C60001092FB031092FC0341E069E070E0CE01BA
:100C700001960E94CF098AE1FE013196A1EFB2E010
:100C800001900D928A95E1F740E06AE070E0CE01B4
:100C900001960E94CF098AE1FE013196ABE0B3E0F4
:100CA00001900D928A95E1F7C55BDF4F0FB6F8947E
:100CB000DEBF0FBECDBFDF91CF911F91FF90EF90B0
:100CC000DF90CF90BF90AF909F908F907F906F906C
:100CD0005F904F9008951F920F920FB60F921124BC
:100CE0002F933F934F935F936F937F938F939F9334
:100CF000AF93BF93EF93FF93E0E0F0E00995FF918E
:100D0000EF91BF91AF919F918F917F916F915F9183
:100D10004F913F912F910F900FBE0F901F901895FC
:100D20007F928F929F92AF92BF92CF92DF92EF927B
:100D3000FF920F931F93CF93DF93EC017F888BE09B
:100D4000871508F466C0CA84DB840D2C000CEE08FD
:100D5000FF088E809F80092C000CAA08BB082C85F8
:100D60003D85C901330FAA0BBB0B9C01AD012C19AA
:100D70003D094E095F09CB01770FAA0BBB0BBC01E4
:100D8000CD01681979098A099B090E948510288577
:100D900039858901330F220B330BA90198012819DA
:100DA00039094A095B090E942A10C20ED31EE41EAB
:100DB000F51E288D88E890E0821B910927FD939508
:100DC000880F991F880F991FC816D90684F0898D3E
:100DD00048E552E0481B510987FD5395440F551FC4
:100DE000440F551FC6014C155D050CF4CA0102974E
:100DF000880F991F4FB7F894272D30E0F901EE0FB7
:100E0000FF1F2E0F3F1FF901E453FD4F9283818393
:100E10004FBFDF91CF911F910F91FF90EF90DF9027
:100E2000CF90BF90AF909F908F907F900895CF927A
:100E3000DF92EF92FF920F931F93CF93DF936C019A
:100E40007A018B01C0E0D0E0CE15DF0581F0D8013A
:100E50006D918D01D601ED91FC910190F081E02D15
:100E6000C6010995892B11F02196EECF7E01C701AD
:100E7000DF91CF911F910F91FF90EF90DF90CF9076
:100E80000895FC01538D448D252F30E0842F90E090
:100E9000821B930B541710F0CF9608950197089575
:100EA00083E292E00E94A90021E0892B09F420E06E
:100EB000822F08950E945411EF92FF920F931F9377
:100EC000CF93DF93EC0181E0888F9B8D8C8D9813FD
:100ED00005C0E889F989808185FD26C0F62E0B8D35
:100EE00010E00F5F1F4F0F731127E02E8C8DE8125B
:100EF0000CC00FB607FCFACFE889F989808185FF1D
:100F0000F5CFCE010E949901F1CF8B8DFE01E80F44
:100F1000F11DE35AFF4FF0829FB7F8940B8FEA89D7
:100F2000FB89808180620AC09FB7F894EE89FF89AF
:100F30006083E889F98980818370806480839FBFA2
:100F400081E090E0DF91CF911F910F91FF90EF90A2
:100F50000895CF93DF93EC01888D8823C9F0EA8947
:100F6000FB89808185FD05C0A889B9898C9186FDA2
:100F70000FC00FB607FCF5CF808185FFF2CFA8899F
:100F8000B9898C9185FFEDCFCE010E949901E7CF01
:100F9000DF91CF9108951F920F920FB60F921124F7
:100FA0002F933F934F935F936F937F938F939F9371
:100FB000AF93BF93EF93FF9383E292E00E94990176
:100FC000FF91EF91BF91AF919F918F917F916F9121
:100FD0005F914F913F912F910F900FBE0F901F90F7
:100FE00018951F920F920FB60F9211242F938F9383
:100FF0009F93EF93FF93E0913302F091340280814D
:10100000E0913902F0913A0282FD12C09081809104
:101010003C028F5F8F7320913D02821751F0E09167
:101020003C02F0E0ED5DFD4F958F80933C0201C0E6
:101030008081FF91EF919F918F912F910F900FBE23
:101040000F901F901895282F30912202313208F00E
:101050004AC08091FE018111FCCF9091210242E0B3
:101060004093FE012093FD012FEF2093FC0110928D
:10107000FB013093FA01E1E0F2E0AAEDB1E020E0FB
:10108000321721F041914D932F5FFACF1092D90181
:101090002091D901990F922B9093D9019091D80169
:1010A000913061F41092D8019091D9019093BB00D6
:1010B0009091BC0093FDF8CF95EC01C095EE909314
:1010C000BC009091FE019230E1F39091FC019F3FB2
:1010D00079F08091FC01803241F08091FC018033F5
:1010E00031F084E005C081E003C082E001C083E00C
:1010F00010920002109222021092FF010895909126
:10110000FE019111FCCF91E09093FE019093FD01BF
:101110002FEF2093FC011092FB01260F2093FA0180
:101120009093D9019091D901880F892B8093D9018F
:101130008091D801813061F41092D8018091D90159
:101140008093BB008091BC0083FDF8CF85EC01C08B
:1011500085EE8093BC008091FE018130E1F38091A7
:10116000FB01861710F46091FB01AAEDB1E0E8EBFA
:10117000F1E080E0861721F09D9191938F5FFACF87
:101180000895009769F0FC0101900020E9F731977C
:10119000AF01481B590BBC0183E292E00C94170786
:1011A00080E090E008958F929F92AF92BF920F934C
:1011B0001F93CF93DF93CDB7DEB7A1970FB6F89407
:1011C000DEBF0FBECDBF19A2423008F44AE08E0147
:1011D0000F5D1F4F842E912CA12CB12CA5019401E1
:1011E0000E945410E62FB901CA0101501109EA30DA
:1011F00014F4E05D01C0E95CD801EC93232B242BAF
:10120000252B61F7C8010E94C108A1960FB6F8947A
:10121000DEBF0FBECDBFDF91CF911F910F91BF9069
:10122000AF909F908F900895CF92DF92EF92FF92B0
:10123000CF93DF936C01990FEE08FF08F7FE13C000
:101240006DE283E292E00E945C07EC01662777275B
:10125000CB016C197D098E099F094AE00E94D308D1
:10126000C80FD91F06C04AE0C701B6010E94D308C3
:10127000EC0182E391E00E94C1088C0F9D1FDF9179
:10128000CF91FF90EF90DF90CF90089590E0FC0118
:10129000EC55FF4F2491FC01E057FF4F3491FC01C6
:1012A000E458FF4FE491EE2309F43CC0222339F1C6
:1012B000233091F038F42130A9F0223001F584B5C3
:1012C0008F7D12C0273091F02830A1F02430B9F47E
:1012D000809180008F7D03C0809180008F77809304
:1012E00080000DC084B58F7784BD09C08091B000A7
:1012F0008F7703C08091B0008F7D8093B000F0E0C5
:10130000EE0FFF1FEE58FF4FA591B4919FB7F894D1
:10131000611104C08C913095382302C0EC913E2BB2
:101320003C939FBF0895CF93DF9390E0FC01E0577B
:10133000FF4F2491FC01E458FF4F8491882361F111
:1013400090E0880F991FFC01E859FF4FC591D49197
:10135000FC01EE58FF4FA591B491611109C09FB7F0
:10136000F8948881209582238883EC912E230BC0EA
:10137000623061F49FB7F8948881322F30958323CF
:101380008883EC912E2B2C939FBF06C08FB7F894C7
:10139000E8812E2B28838FBFDF91CF9108951F9373
:1013A000CF93DF93FC01128A118A148A138A81E099
:1013B000858B2091F0022C30A0F4820F8093F002F4
:1013C000278B30E0D901AA0FBB1F2A0F3B1FD90181
:1013D000A453BD4F88EB9BE012969C938E9311977C
:1013E00002C08FEF878B8CED95E09787868744232B
:1013F00079F081E09FEF978386838FEF90E091876C
:10140000808780ED97E09387828788EE93E00EC017
:101410008FEF90E09783868381E09FEF91878087AD
:1014200088EE93E09387828780ED97E095878487A5
:1014300087898C3008F050C0162FEF0161E0812FB2
:101440000E9493098F89E82FF0E09F01220F331F3C
:10145000E20FF31FE453FD4F1F736081607C162B76
:101460001083188E198E6CE00E9495109CE0899F65
:10147000B001112440E050E09B01240F351FF90119
:10148000EE0FFF1F2E0F3F1FF901E453FD4F908118
:1014900096FD16C04F5F5F4F4C30510569F78111C3
:1014A0000FC01092800082E080938100109285002E
:1014B00010928400B19A80916F00826080936F00D7
:1014C000EF89F0E0CF01880F991FE80FF91FE4536F
:1014D000FD4F808180648083DF91CF911F910895BB
:1014E0002FB7F89460910B0470910C0480910D0457
:1014F00090910E042FBF08950F931F93CF93DF9306
:10150000EC018B018D89882329F00E94700A7C8B65
:101510006B8B1D8A01301105C9F00230110531F1C4
:10152000012B21F50E94700A2B893C89621B730BE9
:10153000683072451CF46E817F8113C060E070E0FA
:10154000CE010E94900681E08D8B16C00E94700A29
:101550002B893C89621B730B683072457CF7688568
:101560007985CE010E9490061E8A07C060E070E077
:10157000CE010E94900681E08E8B8E89DF91CF9103
:101580001F910F9108951F920F920FB60F92112481
:101590002F933F938F939F93AF93BF9380910B04AF
:1015A00090910C04A0910D04B0910E0430910A04A6
:1015B00023E0230F2D3720F40196A11DB11D05C096
:1015C00026E8230F0296A11DB11D20930A048093E3
:1015D0000B0490930C04A0930D04B0930E0480911F
:1015E000060490910704A0910804B09109040196A3
:1015F000A11DB11D8093060490930704A0930804D5
:10160000B0930904BF91AF919F918F913F912F911A
:101610000F900FBE0F901F901895789484B582603C
:1016200084BD84B5816084BD85B5826085BD85B586
:10163000816085BD80916E00816080936E00109204
:10164000810080918100826080938100809181007F
:101650008160809381008091800081608093800010
:101660008091B10084608093B1008091B00081606E
:101670008093B00080917A00846080937A0080919A
:101680007A00826080937A0080917A0081608093F2
:101690007A0080917A00806880937A001092C1006D
:1016A0000E946E0438EB232E31E0332E83E292E069
:1016B0000E94A900181619067CF080910001811182
:1016C000A5C06091A6017091A70181EF92E00E94F0
:1016D0007C0A809300019AC085E391E00E94C108D2
:1016E00082E391E00E94C1082CEAE22E21E0F22E72
:1016F000E7010E94700A60932B0270932C02809382
:101700002D0290932E0283E292E00E94870097FFC1
:1017100087C20E94700A00912B0210912C02209126
:101720002D0230912E02DC01CB01801B910BA20B0C
:10173000B30B0091270210912802209129023091C9
:101740002A0280179107A207B307E8F200E010E031
:10175000C0E0D0E0F70181917F01FE01E855FE4F26
:101760008083C230D10514F421964BC0033011059B
:1017700014F18091A901082E000C990BC097909349
:10178000A7018093A6012091AA01022E000C330B21
:10179000205331093093A5012093A4011092010137
:1017A000109200010E9414098091A4019091A5015A
:1017B0000E94140926C088EA91E00E94E00EFBE432
:1017C000F09FE001F19FD00D1124CB5DDC4FBC01F7
:1017D000990F880B990B0E940D0F6AA37BA38CA312
:1017E0009DA3FE01EE5BFF4F1082118212821382D5
:1017F000EE96188219821A821B820F5F1F4FC0E07B
:10180000D0E02E143F0409F0A5CF57CF80910101FD
:1018100081110AC06091A4017091A5018BE093E051
:101820000E947C0A80930101C5E2D3E003E613E045
:10183000CE0106962F816EEF222339F00E94AA0373
:101840006FEF7FE3681B790B03C00E94AA03BC0102
:1018500080E090E00E940B0F6C877D878E879F87CA
:1018600020E030E040E858E30E946C0F20E030E0D8
:1018700044EB53E40E946C0F6B017C01F8018485FA
:10188000882309F4A6C086E491E00E94C108A7015C
:101890009601C701B6010E944F11882319F08EE40A
:1018A00091E01AC046015701E894B7F82FEF3FEFD7
:1018B0004FE75FE7C501B4010E944F1181110FC0CE
:1018C0002FEF3FEF4FE75FE7C501B4010E94060F1E
:1018D00018162CF482E591E00E94C10876C02FEF23
:1018E0003FEF4FE75FE4C701B6010E944A111816A7
:1018F0001CF486E591E0F0CF2FEF3FEF4FE75FEC70
:10190000C701B6010E94060F87FDF3CF20E030E04B
:10191000A901C701B6010E94060F87FF09C06DE249
:1019200083E292E00E945C07C701B601905802C0B2
:10193000C701B6012AE037ED43EA5BE30E94A81035
:101940002B013C010E941B114B015C010E940B0FFB
:101950009B01AC01C301B2010E94A7102B013C0105
:101960004AE0C501B4010E94D3086EE283E292E02E
:101970000E945C0720E030E040E251E4C301B20184
:101980000E946C0F2B013C010E941B114B01A12CEA
:10199000B12C4AE0C501B4010E94D308C501B401CD
:1019A0000E940B0F9B01AC01C301B2010E94A71062
:1019B00020E030E040E251E40E946C0F0E941B11D5
:1019C00080E090E04AE00E94D30882E391E00E9428
:1019D000C10820E030E0A901C701B6010E944A1108
:1019E00087FD14C020E030E846EB53E4C701B601A0
:1019F0000E94060F181654F0F801C086D186E286C0
:101A0000F3867C2D6D2D9E2D8F2D05C0F8017085E0
:101A1000618592858385272F362F492F582F6AA1FC
:101A20007BA18CA19DA10E94A7106B017C010E944B
:101A300014119B0177FF04C022273327261B370B85
:101A4000253B310554F020E030E044EB53E4C7017E
:101A5000B6010E94A8106B017C01F8012081318140
:101A600042815381C701B6010E94A8104B015C015D
:101A7000F80160837183828393832EA13FA148A5DF
:101A800059A5C701B6010E946C0F2B013C012AA584
:101A90003BA54CA55DA5C501B4010E946C0F9B013F
:101AA000AC01C301B2010E94A8104B015C01F80116
:101AB0002481358146815781C701B6010E94A71054
:101AC0002EA53FA548A959A90E946C0F9B01AC0106
:101AD000C501B4010E94A8100E9414115B01072ED9
:101AE000000C880B990B0E940D0F2B013C0120E08C
:101AF00030E845E653EC0E94060F87FD0DC020E05C
:101B000030E845E653E4C301B2010E944A111816B9
:101B10006CF0B7FE0EC004C09BE1A92EBB24BA94A2
:101B200061E088810E94460960E008C085EEA82E29
:101B3000B12C60E088810E94460961E08A810E94A0
:101B40004609B7FE03C0B194A194B1088C809D8072
:101B500061E0882D0E949309A114B10409F449C0E1
:101B6000FFEFAF16B10409F446C0F401FF27EC55AE
:101B7000FF4FE491E330F9F048F4E130B9F0E2309E
:101B8000A1F584B5806284BDA8BC39C0E730E9F016
:101B9000E83019F1E43049F580918000806280934B
:101BA0008000B0928B00A0928A0029C084B5806822
:101BB00084BDA7BC24C08091800080688093800091
:101BC000B0928900A09288001AC08091B00080680D
:101BD0008093B000A092B30012C08091B0008062E8
:101BE0008093B000A092B4000AC020E8A216B1040D
:101BF00014F460E001C061E0882D0E944609F801FC
:101C0000C482D582E682F782C55BDF4F055B1F4F3A
:101C1000F4E0C630DF0709F00BCE0E94B50046CDD8
:101C20008A30910509F492CD89932C163D0609F06E
:101C300060CD8CCDCF93109226021092250288EEB3
:101C400093E0A0E0B0E08093270290932802A09355
:101C50002902B0932A0226E031E030932402209337
:101C6000230225EC30E03093300220932F0224EC45
:101C700030E0309332022093310220EC30E0309398
:101C800034022093330221EC30E03093360220936B
:101C9000350222EC30E0309338022093370226ECF4
:101CA00030E030933A022093390210923C021092B5
:101CB0003D0210923E0210923F021092C302109217
:101CC000C2028093C4029093C502A093C602B0934F
:101CD000C70288E191E09093C1028093C00280E442
:101CE00080932D0310922B03809378031092760338
:101CF0008093C3031092C1038EE080930F0460E0D1
:101D00000E949309C1E0C093100461E080910F0428
:101D10000E9446091092110480911004811102C0A2
:101D2000C093110410920303109202031092050352
:101D30001092040381E0809306038091F0028C30BE
:101D400020F08FEF8093080313C091E0980F9093D9
:101D5000F0028093080390E0FC01EE0FFF1F8E0F4E
:101D60009F1FFC01E453FD4F88EB9BE0928381832E
:101D700010921D0310921C0310921F0310921E0359
:101D800081E0809320038091F0028C3020F08FEF6F
:101D90008093220313C091E0980F9093F0028093F8
:101DA000220390E0FC01EE0FFF1F8E0F9F1FFC012E
:101DB000E453FD4F88EB9BE092838183CF9108959C
:101DC000FC0188279927E89421912032E9F32930F2
:101DD00010F02E30C8F32B3241F02D3239F46894D4
:101DE00004C00E94FE0E820F911D219120532A30C3
:101DF000C0F31EF4909581959F4F08957AE0979FC8
:101E0000902D879F802D910D112408950E94480FD9
:101E100008F481E00895E89409C097FB3EF490959A
:101E20008095709561957F4F8F4F9F4F9923A9F0B3
:101E3000F92F96E9BB279395F69587957795679542
:101E4000B795F111F8CFFAF4BB0F11F460FF1BC086
:101E50006F5F7F4F8F4F9F4F16C0882311F096E919
:101E600011C0772321F09EE8872F762F05C06623C7
:101E700071F096E8862F70E060E02AF09A95660F80
:101E8000771F881FDAF7880F9695879597F9089539
:101E9000990F0008550FAA0BE0E8FEEF161617067B
:101EA000E807F907C0F012161306E407F50798F0E3
:101EB000621B730B840B950B39F40A2661F0232BFC
:101EC000242B252B21F408950A2609F4A140A69578
:101ED0008FEF811D811D08950E947F0F0C94F00FDC
:101EE0000E94E20F38F00E94E90F20F0952311F0D4
:101EF0000C94D90F0C94DF0F11240C9424100E9421
:101F0000011070F3959FC1F3950F50E0551F629F2C
:101F1000F001729FBB27F00DB11D639FAA27F00D42
:101F2000B11DAA1F649F6627B00DA11D661F829F69
:101F30002227B00DA11D621F739FB00DA11D621F4E
:101F4000839FA00D611D221F749F3327A00D611D6B
:101F5000231F849F600D211D822F762F6A2F11244D
:101F60009F5750409AF0F1F088234AF0EE0FFF1F80
:101F7000BB1F661F771F881F91505040A9F79E3FD7
:101F8000510580F00C94D90F0C9424105F3FE4F3BA
:101F9000983ED4F3869577956795B795F795E7952D
:101FA0009F5FC1F7FE2B880F911D9695879597F936
:101FB000089597F99F6780E870E060E008959FEFCB
:101FC00080EC089500240A941616170618060906D0
:101FD000089500240A94121613061406050608959F
:101FE000092E0394000C11F4882352F0BB0F40F427
:101FF000BF2B11F460FF04C06F5F7F4F8F4F9F4F67
:10200000089557FD9058440F551F59F05F3F71F0E8
:102010004795880F97FB991F61F09F3F79F087954F
:102020000895121613061406551FF2CF4695F1DFD8
:1020300008C0161617061806991FF1CF8695710568
:10204000610508940895E894BB2766277727CB019C
:1020500097F90895052E97FB1EF400940E944110F5
:1020600057FD07D00E94541007FC03D04EF40C9487
:10207000411050954095309521953F4F4F4F5F4F00
:10208000089590958095709561957F4F8F4F9F4FE4
:1020900008950E947610A59F900DB49F900DA49F67
:1020A000800D911D11240895A1E21A2EAA1BBB1BBD
:1020B000FD010DC0AA1FBB1FEE1FFF1FA217B30714
:1020C000E407F50720F0A21BB30BE40BF50B661F2A
:1020D000771F881F991F1A9469F7609570958095EE
:1020E00090959B01AC01BD01CF010895A29FB00165
:1020F000B39FC001A39F700D811D1124911DB29F3C
:10210000700D811D1124911D0895DB018F939F9304
:102110000E944910BF91AF91A29F800D911DA39F76
:10212000900DB29F900D11240895991B79E004C081
:10213000991F961708F0961B881F7A95C9F7809506
:102140000895EE0FFF1F0590F491E02D099450586B
:10215000BB27AA270E94BF100C94F00F0E94E20F29
:1021600038F00E94E90F20F039F49F3F19F426F46B
:102170000C94DF0F0EF4E095E7FB0C94D90FE92FD8
:102180000E94011058F3BA17620773078407950776
:1021900020F079F4A6F50C9423100EF4E0950B2EA4
:1021A000BA2FA02D0B01B90190010C01CA01A001A9
:1021B0001124FF27591B99F0593F50F4503E68F104
:1021C0001A16F040A22F232F342F4427585FF3CF45
:1021D000469537952795A795F0405395C9F77EF416
:1021E0001F16BA0B620B730B840BBAF09150A1F05F
:1021F000FF0FBB1F661F771F881FC2F70EC0BA0FE5
:10220000621F731F841F48F4879577956795B7956C
:10221000F7959E3F08F0B0CF9395880F08F0992767
:10222000EE0F9795879508950E941B116894B11140
:102230000C94241008950E94091088F09F5798F07C
:10224000B92F9927B751B0F0E1F0660F771F881FBB
:10225000991F1AF0BA95C9F714C0B13091F00E94D5
:102260002310B1E008950C942310672F782F88274E
:10227000B85F39F0B93FCCF3869577956795B395FC
:10228000D9F73EF490958095709561957F4F8F4F6B
:102290009F4F08950E94480F08F48FEF08950E9401
:1022A000480F880B990B089581E090E0F8940C9406
:0622B0005911F894FFCF64
:1022B6000101000000005C0717074107A907A900F4
:1022C60087009B00000000004C011F017C01F30009
:1022D60017010301F400493243206572726F723AA6
:1022E60020000D0A004D6573736167652072656392
:1022F600656976656400616E676C653A20006E619B
:0A2306006E00696E66006F766600D7
:00000001FF
