:100000000C945D000C9485000C9485000C94850084
:100010000C9485000C9485000C9485000C9485004C
:100020000C9485000C9485000C9485000C944A0473
:100030000C9485000C9485000C9485000C9485002C
:100040000C947A020C9485000C94EA020C94C4027D
:100050000C9485000C9485000C9485000C9485000C
:100060000C941C030C948500000000002400270061
:100070002A0000000000250028002B0004040404CE
:100080000404040402020202020203030303030342
:10009000010204081020408001020408102001021F
:1000A00004081020000000080002010000030407FB
:1000B0000000000000000000460D11241FBECFEF1D
:1000C000D8E0DEBFCDBF11E0A0E0B1E0E2EEF0E2AB
:1000D00002C005900D92AA35B107D9F723E0AAE531
:1000E000B1E001C01D92AA3DB207E1F710E0CDE5F5
:1000F000D0E004C02197FE010E94B70FCC35D10794
:10010000C9F70E94FD0A0C946F100C94000008952A
:100110000895CF92DF92EF92FF920F931F93CF93A8
:10012000DF936C017A018B01C0E0D0E0CE15DF05D2
:1001300081F0D8016D918D01D601ED91FC91019076
:10014000F081E02DC6010995892B11F02196EECFA3
:100150007E01C701DF91CF911F910F91FF90EF902A
:10016000DF90CF900895FC01538D448D252F30E012
:10017000842F90E0821B930B541710F0CF960895B4
:1001800001970895FC01918D828D981761F0828D01
:10019000DF01A80FB11D5D968C91928D9F5F9F73BB
:1001A000928F90E008958FEF9FEF0895FC01918D5D
:1001B000828D981731F0828DE80FF11D858D90E0CA
:1001C00008958FEF9FEF0895FC01918D228D892F67
:1001D00090E0805C9F4F821B91098F73992708954F
:1001E00084E292E00E94E40021E0892B09F420E0FF
:1001F000822F0895FC01848DDF01A80FB11DA35A41
:10020000BF4F2C91848D90E001968F739927848F36
:10021000A689B7892C93A089B1898C918370806459
:100220008C93938D848D981306C00288F389E02DFA
:1002300080818F7D80830895EF92FF920F931F93AB
:10024000CF93DF93EC0181E0888F9B8D8C8D981389
:1002500005C0E889F989808185FD26C0F62E0B8DC1
:1002600010E00F5F1F4F0F731127E02E8C8DE812E7
:100270000CC00FB607FCFACFE889F989808185FFA9
:10028000F5CFCE010E94FA00F1CF8B8DFE01E80F71
:10029000F11DE35AFF4FF0829FB7F8940B8FEA8964
:1002A000FB89808180620AC09FB7F894EE89FF893C
:1002B0006083E889F98980818370806480839FBF2F
:1002C00081E090E0DF91CF911F910F91FF90EF902F
:1002D0000895CF93DF93EC01888D8823C9F0EA89D4
:1002E000FB89808185FD05C0A889B9898C9186FD2F
:1002F0000FC00FB607FCF5CF808185FFF2CFA8892C
:10030000B9898C9185FFEDCFCE010E94FA00E7CF2D
:10031000DF91CF91089580E090E0892B29F00E9431
:10032000F00081110C940000089585ED8093BC00CD
:100330008091BC0084FDFCCF1092FF010895409194
:100340007B01262F30E0240F311D21323105DCF4F2
:100350002091FF012430C9F4FC0180E090E0861771
:1003600058F430917B012191DC01A55ABE4FA30FB7
:10037000B11D2C930196F3CF80917B01680F6093A0
:100380007B0180E0089581E0089582E0089508955A
:10039000E091B8018091B701E81730F4F0E0E7543C
:1003A000FE4F808190E008958FEF9FEF0895909128
:1003B000B8018091B701981750F4E92FF0E0E754A5
:1003C000FE4F208130E09F5F9093B80102C02FEF75
:1003D0003FEFC90108958091B70190E02091B801E5
:1003E000821B91090895CF92DF92EF92FF920F93B3
:1003F0001F93CF93DF937C01CB018A0120910002F0
:10040000222389F0EB016B01C40ED51ECC15DD054E
:1004100069F06991D701ED91FC910190F081E02D97
:10042000C7010995F3CF642F0E949F01C801DF9196
:10043000CF911F910F91FF90EF90DF90CF90089593
:10044000CF93DF931F92CDB7DEB76983209100026F
:100450002223D1F020912302203240F021E030E02D
:10046000FC013383228380E090E015C0809101027B
:10047000E82FF0E0EE5FFD4F998190838F5F8093CE
:1004800001028093230205C061E0CE0101960E9423
:100490009F0181E090E00F90DF91CF910895089542
:1004A00080E090E008950E946A103FB7F894809130
:1004B000B3019091B401A091B501B091B60126B5F8
:1004C000A89B05C02F3F19F00196A11DB11D3FBF8C
:1004D000BA2FA92F982F8827820F911DA11DB11D1A
:1004E000BC01CD0142E0660F771F881F991F4A9516
:1004F000D1F708951F920F920FB60F9211242F93E8
:100500003F938F939F93AF93BF938091AF0190914F
:10051000B001A091B101B091B2013091AE0123E0E0
:10052000230F2D3720F40196A11DB11D05C026E82B
:10053000230F0296A11DB11D2093AE018093AF0140
:100540009093B001A093B101B093B2018091B30137
:100550009091B401A091B501B091B6010196A11D91
:10056000B11D8093B3019093B401A093B501B093F2
:10057000B601BF91AF919F918F913F912F910F90B5
:100580000FBE0F901F9018951F920F920FB60F92EB
:1005900011242F933F934F935F936F937F938F9388
:1005A0009F93AF93BF93EF93FF9384E292E00E94F7
:1005B000FA00FF91EF91BF91AF919F918F917F9141
:1005C0006F915F914F913F912F910F900FBE0F90C0
:1005D0001F9018951F920F920FB60F9211242F9310
:1005E0008F939F93EF93FF93E0913402F091350244
:1005F0008081E0913A02F0913B0282FD12C090812D
:1006000080913D028F5F8F7320913E02821751F0DF
:10061000E0913D02F0E0EC5DFD4F958F80933D024F
:1006200001C08081FF91EF919F918F912F910F9049
:100630000FBE0F901F9018951F920F920FB60F923A
:1006400011242F933F934F935F936F937F938F93D7
:100650009F93AF93BF93EF93FF938091B900887FEF
:10066000803609F49CC068F5883209F45BC090F4C8
:10067000803109F454C038F4882309F4F6C0883076
:1006800009F44DC0F6C0883109F44CC0803209F439
:100690005DC0EFC0803409F468C048F4803309F4C9
:1006A00055C0883309F0E5C08093FD01D8C080357E
:1006B00009F44FC0883509F45DC0883409F0D9C009
:1006C000D6C0883909F4C7C0A8F4883709F467C0D0
:1006D00038F4883609F463C0803709F460C0C9C0B3
:1006E000883809F4B8C0803909F45FC0803809F04F
:1006F000C0C05BC0803B09F486C038F4803A09F47E
:1007000066C0883A09F47FC0B4C0803C09F4A7C031
:10071000883C09F4A4C0883B09F48AC0AAC080912F
:10072000DA0110C09091FC018091FB01981770F5DF
:10073000E091FC0181E08E0F8093FC01F0E0E55236
:10074000FE4F80818093BB0085EC86C08093FD01C5
:100750008EC0E091FC0181E08E0F8093FC018091BE
:10076000BB00F0E0E552FE4F80839091FC01809148
:10077000FB016EC0E091FC0181E08E0F8093FC01D3
:100780008091BB00F0E0E552FE4F80838091FE0136
:1007900081116DC081E08093D90184EA61C083E05A
:1007A0008093FF0110929D01CFCF80919D018032F7
:1007B00008F051C0E0919D0181E08E0F80939D0172
:1007C0008091BB00F0E0E358FE4F8083BDCF85EC05
:1007D0008093BC001092FF0180919D01803230F423
:1007E000E0919D01F0E0E358FE4F108260919D0181
:1007F00070E0E0919E01F0919F018DE791E00995F5
:1008000010929D0136C084E08093FF0110927C011C
:1008100010927B01E091A001F091A10109958091D6
:100820007B01811105C081E080937B0110925B0107
:10083000E0917C0181E08E0F80937C01F0E0E55A2D
:10084000FE4F80818093BB0090917C0180917B0161
:10085000981708F479CF85E88093BC000AC085EC2E
:100860008093BC001092FF0104C01092FD010E9411
:100870009501FF91EF91BF91AF919F918F917F91E2
:100880006F915F914F913F912F910F900FBE0F90FD
:100890001F9018951F920F920FB60F9211242F934D
:1008A0003F934F935F936F937F938F939F93AF93F8
:1008B000BF93EF93FF9380915A0187FF05C0109279
:1008C0008500109284001BC020915A01022E000C5A
:1008D000330B8091F10290E02817390784F480915E
:1008E0005A01082E000C990BFC01EE0FFF1F8E0F12
:1008F0009F1FFC01E353FD4F808186FD15C0809151
:100900005A018F5F80935A0120915A01022E000CE8
:10091000330B8091F10290E028173907C4F48091DD
:100920005A018C3064F113C080915A01082E000CDA
:10093000990BFC01EE0FFF1F8E0F9F1FFC01E3536D
:10094000FD4F808160E08F730E94DC08D8CF8091DA
:10095000840090918500049680349C4918F480E4CA
:100960009CE905C080918400909185000496909345
:100970008900809388008FEF80935A013BC02091BB
:1009800084003091850080915A01082E000C990B4B
:10099000FC01EE0FFF1F8E0F9F1FFC01E353FD4F65
:1009A00081819281820F931F9093890080938800A8
:1009B00080915A01082E000C990BFC01EE0FFF1FCD
:1009C0008E0F9F1FFC01E353FD4F808186FF12C0F5
:1009D00080915A01082E000C990BFC01EE0FFF1FAD
:1009E0008E0F9F1FFC01E353FD4F808161E08F73E9
:1009F0000E94DC08FF91EF91BF91AF919F918F9181
:100A00007F916F915F914F913F912F910F900FBE0A
:100A10000F901F901895CF93C42FFC01828191E015
:100A200090930002809322021092010210922302FE
:100A300081EC92E00E9420026C2F81EC92E00E94F7
:100A4000200281E0CF910C94EB070F931F93CF937B
:100A5000DF938C01FC01828191E0909300028093EE
:100A60002202109201021092230281EC92E00E9475
:100A7000200280E00E94EB07C82F882379F085E2EE
:100A800091E00E9489086C2F70E080E090E04AE0DD
:100A90000E949B0881E391E00E94890862E0F801CE
:100AA00082810E9447081092B8018093B70181ECBF
:100AB00092E00E94D701EC0181EC92E00E94D70104
:100AC000DD2796E0CC0FDD1F9A95E1F78F739E012D
:100AD000280F311DC901DF91CF911F910F9108950A
:100AE0004F925F926F927F928F929F92AF92BF923E
:100AF000CF92DF92EF92FF920F931F93CF93DF93EA
:100B0000EC0106962F816EEF222339F00E94250515
:100B10006FEF7FE3681B790B03C00E942505BC01C2
:100B200080E090E00E94210E6C877D878E879F87F2
:100B300020E030E040E858E30E94820E20E030E000
:100B400044EB53E40E94820E6B017C018EAD88233E
:100B500009F4A6C084E391E00E948908A7019601E8
:100B6000C701B6010E946510882319F08CE391E05B
:100B70001AC046015701E894B7F82FEF3FEF4FE74F
:100B80005FE7C501B4010E94651081110FC02FEF0E
:100B90003FEF4FE75FE7C501B4010E941C0E181636
:100BA0002CF480E491E00E94890876C02FEF3FEF9B
:100BB0004FE75FE4C701B6010E94601018161CF4ED
:100BC00084E491E0F0CF2FEF3FEF4FE75FECC701F8
:100BD000B6010E941C0E87FDF3CF20E030E0A90192
:100BE000C701B6010E941C0E87FF09C06DE284E2B6
:100BF00092E00E941C01C701B601905802C0C701D3
:100C0000B6012AE037ED43EA5BE30E94BE0F2B01F9
:100C10003C010E9431104B015C010E94210E9B019E
:100C2000AC01C301B2010E94BD0F2B013C014AE09F
:100C3000C501B4010E949B086EE284E292E00E942A
:100C40001C0120E030E040E251E4C301B2010E9407
:100C5000820E2B013C010E9431104B01A12CB12CC2
:100C60004AE0C501B4010E949B08C501B4010E947D
:100C7000210E9B01AC01C301B2010E94BD0F20E017
:100C800030E040E251E40E94820E0E94311080E088
:100C900090E04AE00E949B0881E391E00E9489086D
:100CA00020E030E0A901C701B6010E94601087FD75
:100CB00013C020E030E846EB53E4C701B6010E94C0
:100CC0001C0E18164CF0CAAEDBAEECAEFDAE7C2DA1
:100CD0006D2D9E2D8F2D04C07AAD6BAD9CAD8DAD6D
:100CE000272F362F492F582F6AA17BA18CA19DA1B8
:100CF0000E94BD0F4B015C010E942A109B0177FFEF
:100D000004C022273327261B370B253B310554F01F
:100D100020E030E044EB53E4C501B4010E94BE0F73
:100D20004B015C012AA93BA94CA95DA9C501B401ED
:100D30000E94BE0F6B017C016AAB7BAB8CAB9DABA1
:100D40002EA13FA148A559A5C501B4010E94820E5C
:100D50002B013C012AA53BA54CA55DA5C701B60109
:100D60000E94820E9B01AC01C301B2010E94BE0F22
:100D70006B017C012EA93FA948AD59ADC501B40155
:100D80000E94BD0F2EA53FA548A959A90E94820E19
:100D90009B01AC01C701B6010E94BE0F0E942A1040
:100DA0008B0101308FEF18073CF00F3F110509F060
:100DB0005CF417FF0BC002C001E01FEF61E0888107
:100DC0000E94DC0860E007C00FEF10E060E088815F
:100DD0000E94DC0861E08A810E94DC0817FF03C0E2
:100DE000119501951109EC80FD8061E08E2D0E9426
:100DF00029090115110509F447C00F3F110509F430
:100E000045C0F701FF27EC55FF4FE491E330F9F0BF
:100E100048F4E130B9F0E230A1F584B5806284BDD8
:100E200008BD38C0E730E9F0E83019F1E43049F5A1
:100E30008091800080628093800010938B000093EB
:100E40008A0028C084B5806884BD07BD23C0809116
:100E50008000806880938000109389000093880050
:100E600019C08091B00080688093B0000093B300F7
:100E700011C08091B00080628093B0000093B400F4
:100E800009C00038110514F460E001C061E08E2D46
:100E90000E94DC088EAA9FAAA8AEB9AEDF91CF91BE
:100EA0001F910F91FF90EF90DF90CF90BF90AF9088
:100EB0009F908F907F906F905F904F9008958F924A
:100EC0009F92AF92BF92CF92DF92EF92FF920F93D9
:100ED0001F93CF93C0910303CC3008F070C0C09033
:100EE000FC02D090FD020D2C000CEE08FF08809053
:100EF000F8029090F902092C000CAA08BB08209176
:100F0000FE023091FF02A901330F660B770B9A01A5
:100F1000AB012C193D094E095F09092E000CAA0BE3
:100F2000BB0BBC01CD01681979098A099B090E9494
:100F30009B0F2091FA023091FB028901330F220BA3
:100F4000330BA9019801281939094A095B090E9444
:100F5000400FC20ED31EE41EF51E2091040388E844
:100F600090E0821B910927FD9395880F991F880FA8
:100F7000991FC816D9068CF08091050348E552E008
:100F8000481B510987FD5395440F551F440F551FAA
:100F9000C6014C155D050CF4CA010297880F991F14
:100FA0004FB7F8942C2F30E0F901EE0FFF1F2E0FF2
:100FB0003F1FF901E353FD4F928381834FBFCF91D0
:100FC0001F910F91FF90EF90DF90CF90BF90AF9067
:100FD0009F908F900895282F30912302313208F08E
:100FE0004AC08091FF018111FCCF9091220242E022
:100FF0004093FF012093FE012FEF2093FD011092FB
:10100000FC013093FB01E2E0F2E0ABEDB1E020E067
:10101000321721F041914D932F5FFACF1092DA01F0
:101020002091DA01990F922B9093DA019091D901D6
:10103000913061F41092D9019091DA019093BB0044
:101040009091BC0093FDF8CF95EC01C095EE909384
:10105000BC009091FF019230E1F39091FD019F3F20
:1010600079F08091FD01803241F08091FD01803363
:1010700031F084E005C081E003C082E001C083E07C
:101080001092010210922302109200020895909192
:10109000FF019111FCCF91E09093FF019093FE012D
:1010A0002FEF2093FD011092FC01260F2093FB01EE
:1010B0009093DA019091DA01880F892B8093DA01FD
:1010C0008091D901813061F41092D9018091DA01C7
:1010D0008093BB008091BC0083FDF8CF85EC01C0FC
:1010E00085EE8093BC008091FF018130E1F3809117
:1010F000FC01861710F46091FC01ABEDB1E0E9EB67
:10110000F1E080E0861721F09D9191938F5FFACFF7
:101110000895009769F0FC0101900020E9F73197EC
:10112000AF01481B590BBC0184E292E00C9489008A
:1011300080E090E008958F929F92AF92BF920F93BC
:101140001F93CF93DF93CDB7DEB7A1970FB6F89477
:10115000DEBF0FBECDBF19A2423008F44AE08E01B7
:101160000F5D1F4F842E912CA12CB12CA501940151
:101170000E946A0FE62FB901CA0101501109EA3035
:1011800014F4E05D01C0E95CD801EC93232B242B1F
:10119000252B61F7C8010E948908A1960FB6F89423
:1011A000DEBF0FBECDBFDF91CF911F910F91BF90DA
:1011B000AF909F908F90089590E0FC01EC55FF4F09
:1011C0002491FC01E057FF4F3491FC01E458FF4F9C
:1011D000E491EE2309F43CC0222339F1233091F04D
:1011E00038F42130A9F0223001F584B58F7D12C08A
:1011F000273091F02830A1F02430B9F4809180009C
:101200008F7D03C0809180008F77809380000DC018
:1012100084B58F7784BD09C08091B0008F7703C0FB
:101220008091B0008F7D8093B000F0E0EE0FFF1F43
:10123000EE58FF4FA591B4919FB7F894611104C087
:101240008C913095382302C0EC913E2B3C939FBF8C
:101250000895CF93DF9390E0FC01E057FF4F249176
:10126000FC01E458FF4F8491882361F190E0880FDE
:10127000991FFC01E859FF4FC591D491FC01EE582C
:10128000FF4FA591B491611109C09FB7F89488816F
:10129000209582238883EC912E230BC0623061F469
:1012A0009FB7F8948881322F309583238883EC91FF
:1012B0002E2B2C939FBF06C08FB7F894E8812E2B5E
:1012C00028838FBFDF91CF9108951F93CF93DF9332
:1012D000FC012091F1022C30A8F481E0820F809370
:1012E000F102218B30E0D901AA0FBB1F2A0F3B1F4F
:1012F000D901A353BD4F88EB9BE012969C938E932C
:10130000119702C08FEF818B8CED95E097878687D0
:10131000442379F081E09FEF978386838FEF90E0FD
:101320009187808780ED97E09387828788EE93E0AE
:101330000EC08FEF90E09783868381E09FEF9187C7
:10134000808788EE93E09387828780ED97E095878A
:10135000848781898C3008F050C0162FEF0161E03E
:10136000812F0E9429098989E82FF0E09F01220F2F
:10137000331FE20FF31FE353FD4F1F736081607C47
:10138000162B10831A8A1B8A6CE00E94AB0F9CE01C
:10139000899FB001112440E050E09B01240F351FCC
:1013A000F901EE0FFF1F2E0F3F1FF901E353FD4F11
:1013B000908196FD16C04F5F5F4F4C30510569F725
:1013C00081110FC01092800082E080938100109202
:1013D000850010928400B19A80916F0082608093A2
:1013E0006F00E989F0E0CF01880F991FE80FF91F1E
:1013F000E353FD4F808180648083DF91CF911F9103
:1014000008954F925F926F927F928F929F92AF92C8
:10141000BF92CF92DF92EF92FF920F931F93CF93E1
:10142000DF93CDB7DEB73C01862F502E83010A5FD4
:101430001F4F90E4F301908716826083718353837A
:1014400042833583248361E00E94290961E0F3012E
:1014500082810E94290961E0F30184810E942909A7
:10146000F3015086552453945682178214861586AC
:101470001686178666E1C8010E942505F301938749
:10148000828780855092000280932202109201028E
:101490001092230265E181EC92E00E94200280E03C
:1014A0000E94EB07582E882379F085E291E00E9494
:1014B0008908652D70E080E090E04AE00E949B087A
:1014C00081E391E00E94890861E0F30180850E9438
:1014D00047081092B8018093B70181EC92E00E9416
:1014E000D701F3018187108A118A128A138A11A207
:1014F00010A28BEA9AEAAAEABEE3848F958FA68FA0
:10150000B78F40E066E1C8010E940B0540E067E14B
:10151000C8010E940B056EEFC8010E9425052C0131
:10152000AC0186E0569547958A95E1F766E1C801DA
:101530000E940B05442D4F7367E1C8010E940B0503
:10154000F301C6A2D7A2E0A6F1A68DEC9CECACEC10
:10155000BDE382A793A7A4A7B5A786A697A6A0AA2E
:10156000B1AA16AEDF91CF911F910F91FF90EF902E
:10157000DF90CF90BF90AF909F908F907F906F90B3
:101580005F904F9008958F929F92AF92BF92CF92AB
:10159000DF92EF92FF926B017C010E9455024B019A
:1015A0005C01C114D104E104F104F1F00E94550280
:1015B000DC01CB0188199909AA09BB09883E93402F
:1015C000A105B10570F321E0C21AD108E108F108C4
:1015D00088EE880E83E0981EA11CB11CC114D104B2
:1015E000E104F10419F7DDCFFF90EF90DF90CF9089
:1015F000BF90AF909F908F900895CF93DF93CDB71A
:10160000DEB7EF970FB6F894DEBF0FBECDBF78946C
:1016100084B5826084BD84B5816084BD85B58260F7
:1016200085BD85B5816085BD80916E0081608093A8
:101630006E00109281008091810082608093810011
:101640008091810081608093810080918000816021
:10165000809380008091B10084608093B10080917C
:10166000B00081608093B00080917A0084608093A4
:101670007A0080917A00826080937A0080917A006B
:10168000816080937A0080917A00806880937A00EC
:101690001092C100E0913402F091350282E0808323
:1016A000E0913002F09131021082E0913202F0912B
:1016B00033028FEC808310923C02E0913802F0916B
:1016C000390286E08083E0913602F0913702808112
:1016D00080618083E0913602F091370280818860DA
:1016E0008083E0913602F0913702808180688083A8
:1016F000E0913602F091370280818F7D80831092D5
:10170000B8011092B70110920102109223021092B8
:10171000FF01772473947092FE011092D90161E069
:1017200082E10E94DC0861E083E10E94DC08809194
:10173000B9008E7F8093B9008091B9008D7F80932E
:10174000B90088E48093B80085E48093BC0087E802
:1017500090E09093A1018093A00188E890E090939D
:101760009F0180939E01812C912C94EBA92E92E4F1
:10177000B92EC12CD12C24E3E22E23E4F22E00E476
:1017800010E023E030E044E050E065E070E0CE019E
:1017900001960E94010A8FE3FE013196AAE1B3E0AF
:1017A00001900D928A95E1F7812C912C3CE8A32EB3
:1017B00032E4B32EC12CD12C46E1E42E43E4F42EC6
:1017C00001E410E026E030E047E050E068E070E03F
:1017D000CE0101960E94010A8FE3FE013196A9E530
:1017E000B3E001900D928A95E1F7812C912C50EC99
:1017F000A52E50E4B52EC12CD12C60E4E62E61E478
:10180000F62E02E410E02BE030E04DE050E06CE01A
:1018100070E0CE0101960E94010A8FE3FE0131962D
:10182000A8E9B3E001900D928A95E1F77092D60392
:1018300010923C0310923D0310923E0310923F031E
:1018400010925003109251031092520310925303BE
:1018500010924C0310924D0310924E0310924F03BE
:1018600080E090E0A0EAB0E480937B0390937C0357
:10187000A0937D03B0937E0310928F031092900388
:10188000109291031092920310928B0310928C038A
:1018900010928D0310928E0380E090E0ACE5B2ECE4
:1018A0008093BA039093BB03A093BC03B093BD0392
:1018B0001092CE031092CF031092D0031092D10356
:1018C0001092CA031092CB031092CC031092CD0356
:1018D00041E069E070E0CE0101960E94650984E173
:1018E000FE013196A2EFB2E001900D928A95E1F7E8
:1018F00040E06AE070E0CE0101960E94650984E153
:10190000FE013196A6E0B3E001900D928A95E1F7D1
:101910007EEAC72E71E0D72EEFE39E2E8091000164
:10192000882391F08091F8029091F9020E945F075C
:1019300068E072E580E090E00E94C30A80E090E0F9
:101940000E945F071092000184E292E00E94E4008E
:10195000181619067CF08AE193E00E94700589E56B
:1019600093E00E94700588E993E00E9470050E9450
:101970008B01D4CF88E491E00E94890881E391E053
:101980000E94890885EAE82E81E0F82E87012FB7AA
:10199000F8948091AF019091B001A091B101B09104
:1019A000B2012FBF80932C0290932D02A0932E02A0
:1019B000B0932F0284E292E00E94C20097FF5BC0C6
:1019C0002FB7F8948091AF019091B001A091B1012F
:1019D000B091B2012FBF40912C0250912D02609125
:1019E0002E0270912F02841B950BA60BB70B409112
:1019F00028025091290260912A0270912B028417CB
:101A00009507A607B707B0F2A12CB12C80E090E0B3
:101A1000F70121917F01FC01EE55FE4F20838230BA
:101A2000910514F4019623C082EA91E00E94F60D1C
:101A30009A9C80019B9C100D1124065E1C4FBC01DA
:101A4000990F880B990B0E94230EF80162A373A3D0
:101A500084A395A316AA17AA10AE11AE12AA13AAB0
:101A600014AA15AAFFEFAF1ABF0A80E090E0CE14C7
:101A7000DF0471F670CF8A30910531F2F80181935D
:101A80008F01CE16DF0609F082CFBECFCF93109222
:101A900027021092260288EE93E0A0E0B0E0809347
:101AA000280290932902A0932A02B0932B0225E0EA
:101AB00031E0309325022093240225EC30E030936E
:101AC00031022093300224EC30E030933302209333
:101AD000320220EC30E0309335022093340221ECC6
:101AE00030E0309337022093360222EC30E030931E
:101AF00039022093380226EC30E030933B022093E9
:101B00003A0210923D0210923E0210923F02109251
:101B100040021092C4021092C3028093C5029093B7
:101B2000C602A093C702B093C80287E191E09093E8
:101B3000C2028093C10280E48093220310922003AA
:101B40008093610310925F038093A00310929E0321
:101B50008EE08093D70360E00E942909C1E0C09322
:101B6000D80361E08091D7030E94DC081092D9036A
:101B70008091D803811102C0C093D9038091F102F2
:101B80008C3020F08FEF8093030313C091E0980F07
:101B90009093F1028093030390E0FC01EE0FFF1F8E
:101BA0008E0F9F1FFC01E353FD4F88EB9BE0928358
:101BB00081838091F1028C3020F08FEF80931703A6
:101BC00013C091E0980F9093F1028093170390E077
:101BD000FC01EE0FFF1F8E0F9F1FFC01E353FD4F13
:101BE00088EB9BE092838183CF910895FC01882745
:101BF0009927E89421912032E9F3293010F02E3012
:101C0000C8F32B3241F02D3239F4689404C00E949D
:101C1000140E820F911D219120532A30C0F31EF41F
:101C2000909581959F4F08957AE0979F902D879F7B
:101C3000802D910D112408950E945E0E08F481E01C
:101C40000895E89409C097FB3EF4909580957095AF
:101C500061957F4F8F4F9F4F9923A9F0F92F96E9F8
:101C6000BB279395F695879577956795B795F1116D
:101C7000F8CFFAF4BB0F11F460FF1BC06F5F7F4F0A
:101C80008F4F9F4F16C0882311F096E911C077231C
:101C900021F09EE8872F762F05C0662371F096E825
:101CA000862F70E060E02AF09A95660F771F881FF4
:101CB000DAF7880F9695879597F90895990F000898
:101CC000550FAA0BE0E8FEEF16161706E807F9070E
:101CD000C0F012161306E407F50798F0621B730BA9
:101CE000840B950B39F40A2661F0232B242B252B2A
:101CF00021F408950A2609F4A140A6958FEF811DCD
:101D0000811D08950E94950E0C94060F0E94F80EF6
:101D100038F00E94FF0E20F0952311F00C94EF0E86
:101D20000C94F50E11240C943A0F0E94170F70F3C7
:101D3000959FC1F3950F50E0551F629FF001729F70
:101D4000BB27F00DB11D639FAA27F00DB11DAA1F7F
:101D5000649F6627B00DA11D661F829F2227B00DCC
:101D6000A11D621F739FB00DA11D621F839FA00D57
:101D7000611D221F749F3327A00D611D231F849FA7
:101D8000600D211D822F762F6A2F11249F575040FE
:101D90009AF0F1F088234AF0EE0FFF1FBB1F661F79
:101DA000771F881F91505040A9F79E3F510580F042
:101DB0000C94EF0E0C943A0F5F3FE4F3983ED4F38B
:101DC000869577956795B795F795E7959F5FC1F7E6
:101DD000FE2B880F911D9695879597F9089597F991
:101DE0009F6780E870E060E008959FEF80EC0895C1
:101DF00000240A94161617061806090608950024EA
:101E00000A9412161306140605060895092E039463
:101E1000000C11F4882352F0BB0F40F4BF2B11F4D7
:101E200060FF04C06F5F7F4F8F4F9F4F089557FD36
:101E30009058440F551F59F05F3F71F04795880F38
:101E400097FB991F61F09F3F79F0879508951216CF
:101E500013061406551FF2CF4695F1DF08C016167B
:101E600017061806991FF1CF86957105610508942C
:101E70000895E894BB2766277727CB0197F9089543
:101E8000052E97FB1EF400940E94570F57FD07D0B4
:101E90000E946A0F07FC03D04EF40C94570F509524
:101EA0004095309521953F4F4F4F5F4F0895909546
:101EB0008095709561957F4F8F4F9F4F08950E9439
:101EC0008C0FA59F900DB49F900DA49F800D911D28
:101ED00011240895A1E21A2EAA1BBB1BFD010DC0FF
:101EE000AA1FBB1FEE1FFF1FA217B307E407F507CA
:101EF00020F0A21BB30BE40BF50B661F771F881FA6
:101F0000991F1A9469F760957095809590959B013B
:101F1000AC01BD01CF010895A29FB001B39FC001E4
:101F2000A39F700D811D1124911DB29F700D811D05
:101F30001124911D0895DB018F939F930E945F0FE1
:101F4000BF91AF91A29F800D911DA39F900DB29F55
:101F5000900D11240895991B79E004C0991F9617DC
:101F600008F0961B881F7A95C9F780950895EE0FA3
:101F7000FF1F0590F491E02D09945058BB27AA2724
:101F80000E94D50F0C94060F0E94F80E38F00E94A4
:101F9000FF0E20F039F49F3F19F426F40C94F50E4F
:101FA0000EF4E095E7FB0C94EF0EE92F0E94170F5B
:101FB00058F3BA17620773078407950720F079F47E
:101FC000A6F50C94390F0EF4E0950B2EBA2FA02D28
:101FD0000B01B90190010C01CA01A0011124FF27D6
:101FE000591B99F0593F50F4503E68F11A16F040D1
:101FF000A22F232F342F4427585FF3CF46953795D0
:102000002795A795F0405395C9F77EF41F16BA0B94
:10201000620B730B840BBAF09150A1F0FF0FBB1F42
:10202000661F771F881FC2F70EC0BA0F621F731F8B
:10203000841F48F4879577956795B795F7959E3FE8
:1020400008F0B0CF9395880F08F09927EE0F979579
:10205000879508950E9431106894B1110C943A0F3D
:1020600008950E941F0F88F09F5798F0B92F992765
:10207000B751B0F0E1F0660F771F881F991F1AF073
:10208000BA95C9F714C0B13091F00E94390FB1E090
:1020900008950C94390F672F782F8827B85F39F08F
:1020A000B93FCCF3869577956795B395D9F73EF40C
:1020B00090958095709561957F4F8F4F9F4F0895B4
:1020C0000E945E0E08F48FEF08950E945E0E880B4A
:1020D000990B089581E090E0F8940C946F10F894B7
:0220E000FFCF30
:1020E20001000000001C018900B3006901E400C284
:1020F20000D600000000002002F3015002C701EBED
:1021020001D701C801493243206572726F723A20C9
:10211200000D0A00616E676C653A20006E616E0008
:10212200696E66006F7666004D6573736167652040
:0A213200726563656976656400005C
:00000001FF
