:100000000C945D000C9485000C9485000C94850084
:100010000C9485000C9485000C9485000C9485004C
:100020000C9485000C9485000C9485000C94740548
:100030000C9485000C9463070C9485000C94850047
:100040000C94750A0C9485000C9442050C941C05C4
:100050000C9485000C9485000C9485000C9485000C
:100060000C9435060C948500000000002400270045
:100070002A0000000000250028002B0004040404CE
:100080000404040402020202020203030303030342
:10009000010204081020408001020408102001021F
:1000A00004081020000000080002010000030407FB
:1000B0000000000000000000840B11241FBECFEFE1
:1000C000D8E0DEBFCDBF11E0A0E0B1E0ECE9F9E19E
:1000D00002C005900D92A835B107D9F724E0A8E534
:1000E000B1E001C01D92A830B207E1F710E0CDE504
:1000F000D0E004C02197FE010E94C10CCC35D1078D
:10010000C9F70E94BF0A0C94CC0C0C940000CF924B
:10011000DF92EF92FF920F931F93CF93DF936C01C7
:100120007A018B01C0E0D0E0CE15DF0581F0D80167
:100130006D918D01D601ED91FC910190F081E02D42
:10014000C6010995892B11F02196EECF7E01C701DA
:10015000DF91CF911F910F91FF90EF90DF90CF90A3
:100160000895FC01538D448D252F30E0842F90E0BD
:10017000821B930B541710F0CF96089501970895A2
:10018000FC01918D828D981761F0828DDF01A80F9F
:10019000B11D5D968C91928D9F5F9F73928F90E0C1
:1001A00008958FEF9FEF0895FC01918D828D981730
:1001B00031F0828DE80FF11D858D90E008958FEF6D
:1001C0009FEF0895FC01918D228D892F90E0805C36
:1001D0009F4F821B91098F73992708958DE192E0BB
:1001E0000E94E20021E0892B09F420E0822F08958B
:1001F000FC01848DDF01A80FB11DA35ABF4F2C91C4
:10020000848D90E001968F739927848FA689B78992
:100210002C93A089B1898C91837080648C93938D89
:10022000848D981306C00288F389E02D80818F7D2C
:1002300080830895EF92FF920F931F93CF93DF93E4
:10024000EC0181E0888F9B8D8C8D981305C0E88927
:10025000F989808185FD26C0F62E0B8D10E00F5F99
:100260001F4F0F731127E02E8C8DE8120CC00FB6B4
:1002700007FCFACFE889F989808185FFF5CFCE01A7
:100280000E94F800F1CF8B8DFE01E80FF11DE35ABB
:10029000FF4FF0829FB7F8940B8FEA89FB8980812A
:1002A00080620AC09FB7F894EE89FF896083E8896D
:1002B000F98980818370806480839FBF81E090E0B2
:1002C000DF91CF911F910F91FF90EF900895CF9301
:1002D000DF93EC01888D8823C9F0EA89FB8980814E
:1002E00085FD05C0A889B9898C9186FD0FC00FB620
:1002F00007FCF5CF808185FFF2CFA889B9898C9161
:1003000085FFEDCFCE010E94F800E7CFDF91CF91BE
:10031000089580E090E0892B29F00E94EE00811181
:100320000C940000089585ED8093BC008091BC0082
:1003300084FDFCCF1092F401089540917C01262F9A
:1003400030E0240F311D21323105DCF42091F4011D
:100350002430C9F4FC0180E090E0861758F4309115
:100360007C012191DC01A65ABE4FA30FB11D2C9335
:100370000196F3CF80917C01680F60937C0180E04F
:10038000089581E0089582E00895089508950895FC
:10039000E091590180915801E81730F4F0E0E255FE
:1003A000FE4F808190E008958FEF9FEF0895909128
:1003B000590180915801981750F4E92FF0E0E25567
:1003C000FE4F208130E09F5F9093590102C02FEFD4
:1003D0003FEFC90108958091580190E020915901A3
:1003E000821B91090895CF92DF92EF92FF920F93B3
:1003F0001F93CF93DF937C01CB018A012091F501FC
:10040000222389F0EB016B01C40ED51ECC15DD054E
:1004100069F06991D701ED91FC910190F081E02D97
:10042000C7010995F3CF642F0E949D01C801DF9198
:10043000CF911F910F91FF90EF90DF90CF90089593
:10044000CF93DF931F92CDB7DEB769832091F5017B
:100450002223D1F020911802203240F021E030E038
:10046000FC013383228380E090E015C08091F60187
:10047000E82FF0E0E950FE4F998190838F5F8093E1
:10048000F6018093180205C061E0CE0101960E943A
:100490009D0181E090E00F90DF91CF910895089544
:1004A00080E090E008950E94C70CCF93C42FFC0118
:1004B000828191E09093F501809317021092F601EA
:1004C000109218028AEB92E00E9420026C2F8AEBB5
:1004D00092E00E94200281E0CF910C9448081F9383
:1004E000CF93DF93EC018A8191E09093F5018093A3
:1004F00017021092F601109218028AEB92E00E9405
:10050000200280E00E944808182F882339F084E2F6
:1005100091E00E94E608812F0E94F80862E08A813B
:100520000E94A40810925901809358018AEB92E02E
:100530000E94D701EC018AEB92E00E94D701DD27EF
:1005400096E0CC0FDD1F9A95E1F78F739E01280F7F
:10055000311DC901DF91CF911F9108950F931F9312
:10056000CF93DF93EC0140E066E10E94550240E04A
:1005700067E1CE010E9455026EEFCE010E946F022C
:100580008C01AC0186E0569547958A95E1F766E1C6
:10059000CE010E945502402F4F7367E1CE01DF91DB
:1005A000CF911F910F910C9455021F93CF93DF931E
:1005B000EC0111E0188319821E821F8218861986A9
:1005C00066E10E946F029D838C838A811093F501FE
:1005D000809317021092F6011092180265E18AEBDF
:1005E00092E00E94200280E00E944808182F882391
:1005F00039F084E291E00E94E608812F0E94F80819
:1006000061E08A810E94A4081092590180935801E8
:100610008AEB92E00E94D7018B831A861B861C8688
:100620001D861B8E1A8E8BEA9AEAAAEABEE38E8B8F
:100630009F8BA88FB98FDF91CF911F9108954F9213
:100640005F926F927F928F929F92AF92BF92CF9262
:10065000DF92EF92FF921F93CF93DF93CDB7DEB778
:10066000CB54D1090FB6F894DEBF0FBECDBFEDE17C
:10067000F2E0A089B18982E08C93A485B5851C92B3
:10068000A685B7858FEC8C93108EA489B58986E0FA
:100690008C93A289B3898C9180618C93A289B38950
:1006A0008C9188608C93A289B3898C9180688C939B
:1006B0000288F389E02D80818F7D8083109259011B
:1006C000109258011092F601109218021092F40143
:1006D00081E08093F3011092CE0161E082E10E94FB
:1006E0004B0961E083E10E944B09E9EBF0E0808176
:1006F0008E7F808380818D7F808388E48093B800A3
:1007000085E48093BC0085EC91E090937B0180931D
:100710007A0186EC91E090937F0180937E0110E452
:1007200019871F8285E090E09A83898384E090E0B6
:100730009C838B8383E090E09E838D8361E085E0E2
:100740000E94980961E08B810E94980961E08D8187
:100750000E9498091F821987CE0107960E94D50230
:10076000CE0107960E94AE0280E090E0AAE2B3E4D8
:100770008FA398A7A9A7BAA78DECC82E8CECD82E6A
:10078000ED2C8DE3F82ECBA6DCA6EDA6FEA680E030
:1007900090E0AAEAB2E48FA798ABA9ABBAAB412C20
:1007A000512C90E4692E91E4792E4BAA5CAA6DAA93
:1007B0007EAACFAAD8AEE9AEFAAE812C912C20EC5D
:1007C000A22E20E4B22E8BAE9CAEADAEBEAE2C9669
:1007D0001FAE2C978BE4FE013196AFE1B3E00190A0
:1007E0000D928A95E1F719871F8288E090E09A833D
:1007F000898387E090E09C838B8386E090E09E83F2
:100800008D8361E088E00E94980961E08B810E94FD
:10081000980961E08D810E9498091F8281E489878F
:10082000CE0107960E94D502CE0107960E94AE0225
:1008300040E050E066E173E44FA358A769A77AA7A8
:10084000CBA6DCA6EDA6FEA680E090E0ACE8B2E484
:100850008FA798ABA9ABBAAB4BAB5CAB6DAB7EAB28
:10086000CFAAD8AEE9AEFAAE8BAF9CAFADAFBEAFFC
:100870002C961FAE2C978BE4FE013196AAE6B3E0CE
:1008800001900D928A95E1F719871F828CE090E024
:100890009A8389838DE090E09C838B838BE090E04A
:1008A0009E838D8361E08CE00E94980961E08B81DA
:1008B0000E94980961E08D810E9498091F8282E45C
:1008C0008987CE0107960E94D502CE0107960E9425
:1008D000AE024FA258A669A67AA6CBA6DCA6EDA6C4
:1008E000FEA68FA698AAA9AABAAA80E090E0AAE2DA
:1008F000B3E48BAB9CABADABBEABCFAAD8AEE9AE8D
:10090000FAAE80E090E0AAEAB2E48BAF9CAFADAF64
:10091000BEAF2C961FAE2C978BE4FE013196A5EB53
:10092000B3E001900D928A95E1F780E090E0A0EAB3
:10093000B1E48093410390934203A0934303B093A7
:1009400044031092610310926203109263031092A9
:10095000640310925D0310925E0310925F03109285
:10096000600380938C0390938D03A0938E03B093C8
:100970008F031092AC031092AD031092AE0310924D
:10098000AF031092A8031092A9031092AA03109229
:10099000AB0380E090E0ACE5B2EC8093D70390939A
:1009A000D803A093D903B093DA031092F7031092FF
:1009B000F8031092F9031092FA031092F3031092C5
:1009C000F4031092F5031092F60341E069E070E041
:1009D000CE0101960E94D4098AE1FE013196ABEE68
:1009E000B2E001900D928A95E1F740E06AE070E094
:1009F000CE0101960E94D4098AE1FE013196A5E05C
:100A0000B3E001900D928A95E1F7C55BDF4F0FB619
:100A1000F894DEBF0FBECDBFDF91CF911F91FF9045
:100A2000EF90DF90CF90BF90AF909F908F907F908E
:100A30006F905F904F9008951F920F920FB60F9294
:100A400011242F933F934F935F936F937F938F93D3
:100A50009F93AF93BF93EF93FF938DE192E00E943A
:100A6000F800FF91EF91BF91AF919F918F917F918E
:100A70006F915F914F913F912F910F900FBE0F900B
:100A80001F9018951F920F920FB60F9211242F935B
:100A90008F939F93EF93FF93E0912D02F0912E029D
:100AA0008081E0913302F091340282FD12C0908186
:100AB000809136028F5F8F7320913702821751F039
:100AC000E0913602F0E0E35EFD4F958F80933602B1
:100AD00001C08081FF91EF919F918F912F910F9095
:100AE0000FBE0F901F9018951F920F920FB60F9286
:100AF00011242F933F934F935F936F937F938F9323
:100B00009F93AF93BF93EF93FF938091A10187FFD2
:100B100005C010928500109284001BC02091A10195
:100B2000022E000C330B8091EA0290E0281739075F
:100B300084F48091A101082E000C990BFC01EE0FAA
:100B4000FF1F8E0F9F1FFC01EA53FD4F808186FD22
:100B500015C08091A1018F5F8093A1012091A10117
:100B6000022E000C330B8091EA0290E0281739071F
:100B7000C4F48091A1018C3064F113C08091A10173
:100B8000082E000C990BFC01EE0FFF1F8E0F9F1F0C
:100B9000FC01EA53FD4F808160E08F730E944B0996
:100BA000D8CF8091840090918500049680349C4930
:100BB00018F480E49CE905C0809184009091850040
:100BC000049690938900809388008FEF8093A10111
:100BD0003BC020918400309185008091A101082EB6
:100BE000000C990BFC01EE0FFF1F8E0F9F1FFC01E5
:100BF000EA53FD4F81819281820F931F9093890068
:100C0000809388008091A101082E000C990BFC01B3
:100C1000EE0FFF1F8E0F9F1FFC01EA53FD4F8081D7
:100C200086FF12C08091A101082E000C990BFC01D7
:100C3000EE0FFF1F8E0F9F1FFC01EA53FD4F8081B7
:100C400061E08F730E944B09FF91EF91BF91AF91CB
:100C50009F918F917F916F915F914F913F912F91D4
:100C60000F900FBE0F901F9018951F920F920FB606
:100C70000F9211242F933F934F935F936F937F9322
:100C80008F939F93AF93BF93EF93FF938091B9009E
:100C9000887F803609F49CC068F5883209F45BC00F
:100CA00090F4803109F454C038F4882309F4F6C074
:100CB000883009F44DC0F6C0883109F44CC0803248
:100CC00009F45DC0EFC0803409F468C048F4803393
:100CD00009F455C0883309F0E5C08093F201D8C00B
:100CE000803509F44FC0883509F45DC0883409F0B7
:100CF000D9C0D6C0883909F4C7C0A8F4883709F428
:100D000067C038F4883609F463C0803709F460C0DE
:100D1000C9C0883809F4B8C0803909F45FC0803888
:100D200009F0C0C05BC0803B09F486C038F4803A4B
:100D300009F466C0883A09F47FC0B4C0803C09F465
:100D4000A7C0883C09F4A4C0883B09F48AC0AAC0A3
:100D50008091CF0110C09091F1018091F00198171E
:100D600070F5E091F10181E08E0F8093F101F0E0E8
:100D7000E053FE4F80818093BB0085EC86C080935A
:100D8000F2018EC0E091F10181E08E0F8093F101BC
:100D90008091BB00F0E0E053FE4F80839091F10121
:100DA0008091F0016EC0E091F10181E08E0F80939F
:100DB000F1018091BB00F0E0E053FE4F8083809111
:100DC000F30181116DC081E08093CE0184EA61C09E
:100DD00083E08093F4011092A001CFCF8091A00115
:100DE000803208F051C0E091A00181E08E0F809325
:100DF000A0018091BB00F0E0E058FE4F8083BDCFA2
:100E000085EC8093BC001092F4018091A0018032A7
:100E100030F4E091A001F0E0E058FE4F10826091C4
:100E2000A00170E0E0917E01F0917F0180E891E007
:100E300009951092A00136C084E08093F4011092CD
:100E40007D0110927C01E0917A01F0917B0109957E
:100E500080917C01811105C081E080937C0110921A
:100E60005A01E0917D0181E08E0F80937D01F0E0D9
:100E7000E65AFE4F80818093BB0090917D01809166
:100E80007C01981708F479CF85E88093BC000AC0EC
:100E900085EC8093BC001092F40104C01092F20122
:100EA0000E949301FF91EF91BF91AF919F918F911C
:100EB0007F916F915F914F913F912F910F900FBE56
:100EC0000F901F9018951F920F920FB60F9211243A
:100ED0002F933F934F935F936F937F938F939F9342
:100EE000AF93BF93EF93FF93E0E0F0E00995FF919C
:100EF000EF91BF91AF919F918F917F916F915F9192
:100F00004F913F912F910F900FBE0F901F9018950A
:100F10007F928F929F92AF92BF92CF92DF92EF9289
:100F2000FF920F931F93CF93DF93EC017F888BE0A9
:100F3000871508F466C0CA84DB840D2C000CEE080B
:100F4000FF088E809F80092C000CAA08BB082C8506
:100F50003D85C901330FAA0BBB0B9C01AD012C19B8
:100F60003D094E095F09CB01770FAA0BBB0BBC01F2
:100F7000CD01681979098A099B090E94A50C288569
:100F800039858901330F220B330BA90198012819E8
:100F900039094A095B090E944A0CC20ED31EE41E9D
:100FA000F51E288D88E890E0821B910927FD939516
:100FB000880F991F880F991FC816D90684F0898D4C
:100FC00048E552E0481B510987FD5395440F551FD2
:100FD000440F551FC6014C155D050CF4CA0102975C
:100FE000880F991F4FB7F894272D30E0F901EE0FC5
:100FF000FF1F2E0F3F1FF901EA53FD4F928381839C
:101000004FBFDF91CF911F910F91FF90EF90DF9035
:10101000CF90BF90AF909F908F907F900895CF9387
:10102000DF93EC018D89882371F02FB7F8948091BC
:10103000190290911A02A0911B02B0911C022FBFBD
:101040009C8B8B8B1D8A2FB7F894809119029091FD
:101050001A02A0911B02B0911C022FBF2B893C8960
:10106000821B930B843398403CF468857985CE01CC
:101070000E9488071E8A08C060E070E0CE010E94CE
:10108000880781E08D8B8E8B8E89DF91CF910895BB
:10109000282F30911802313208F04AC08091F401B3
:1010A0008111FCCF9091170242E04093F40120930C
:1010B000F3012FEF2093F2011092F1013093F00130
:1010C000E7EFF1E0A0EDB1E020E0321721F041912F
:1010D0004D932F5FFACF1092CF012091CF01990F3E
:1010E000922B9093CF019091CE01913061F41092A8
:1010F000CE019091CF019093BB009091BC0093FDE5
:10110000F8CF95EC01C095EE9093BC009091F4015E
:101110009230E1F39091F2019F3F79F08091F201DA
:10112000803241F08091F201803331F084E005C0DB
:1011300081E003C082E001C083E01092F6011092CA
:1011400018021092F50108959091F4019111FCCFCD
:1011500091E09093F4019093F3012FEF2093F2012B
:101160001092F101260F2093F0019093CF019091FE
:10117000CF01880F892B8093CF018091CE018130E0
:1011800061F41092CE018091CF018093BB008091D9
:10119000BC0083FDF8CF85EC01C085EE8093BC00D8
:1011A0008091F4018130E1F38091F101861710F410
:1011B0006091F101A0EDB1E0EEEAF1E080E0861788
:1011C00021F09D9191938F5FFACF0895009769F078
:1011D000FC0101900020E9F73197AF01481B590B42
:1011E000BC018DE192E00C94870080E090E00895CE
:1011F000CF92DF92EF92FF920F931F93CF93DF93E3
:10120000CDB7DEB7A1970FB6F894DEBF0FBECDBF46
:10121000282F30E040E050E019A28E010F5D1F4FF3
:101220008AE0C82ED12CE12CF12CCA01B901A7010A
:1012300096010E94740C605DF80162938F01211584
:1012400031054105510589F7CF010E94E6088C015F
:1012500085E591E00E94E608800F911FA1960FB6E8
:10126000F894DEBF0FBECDBFDF91CF911F910F91DC
:10127000FF90EF90DF90CF900895CF93DF930E947F
:10128000E608EC0185E591E00E94E6088C0F9D1FC1
:10129000DF91CF91089590E0FC01EC55FF4F249130
:1012A000FC01E057FF4F3491FC01E458FF4FE491FB
:1012B000EE2309F43CC0222339F1233091F038F4B5
:1012C0002130A9F0223001F584B58F7D12C027307E
:1012D00091F02830A1F02430B9F4809180008F7D06
:1012E00003C0809180008F77809380000DC084B50B
:1012F0008F7784BD09C08091B0008F7703C0809143
:10130000B0008F7D8093B000F0E0EE0FFF1FEE582D
:10131000FF4FA591B4919FB7F894611104C08C91CF
:101320003095382302C0EC913E2B3C939FBF08952B
:10133000CF93DF9390E0FC01E057FF4F2491FC0135
:10134000E458FF4F8491882361F190E0880F991F42
:10135000FC01E859FF4FC591D491FC01EE58FF4FB5
:10136000A591B491611109C09FB7F8948881209527
:1013700082238883EC912E230BC0623061F49FB7E7
:10138000F8948881322F309583238883EC912E2B1B
:101390002C939FBF06C08FB7F894E8812E2B28832B
:1013A0008FBFDF91CF9108951F93CF93DF93FC01FF
:1013B000128A118A148A138A81E0858B2091EA02AD
:1013C0002C30A0F4820F8093EA02278B30E0D90101
:1013D000AA0FBB1F2A0F3B1FD901AA53BD4F88EB91
:1013E0009BE012969C938E93119702C08FEF878B90
:1013F0008CED95E097878687442379F081E09FEF15
:10140000978386838FEF90E09187808780ED97E0C8
:101410009387828788EE93E00EC08FEF90E09783EA
:10142000868381E09FEF9187808788EE93E09387A2
:10143000828780ED97E09587848787898C3008F0D4
:1014400050C0162FEF0161E0812F0E9498098F890B
:10145000E82FF0E09F01220F331FE20FF31FEA5342
:10146000FD4F1F736081607C162B1083188E198EC0
:101470006CE00E94B50C9CE0899FB001112440E013
:1014800050E09B01240F351FF901EE0FFF1F2E0FB7
:101490003F1FF901EA53FD4F908196FD16C04F5F43
:1014A0005F4F4C30510569F781110FC010928000D9
:1014B00082E0809381001092850010928400B19A9E
:1014C00080916F00826080936F00EF89F0E0CF0120
:1014D000880F991FE80FF91FEA53FD4F8081806440
:1014E0008083DF91CF911F9108951F920F920FB6C5
:1014F0000F9211242F933F938F939F93AF93BF939A
:101500008091190290911A02A0911B02B0911C02C5
:101510003091040423E0230F2D3720F40196A11D00
:10152000B11D05C026E8230F0296A11DB11D209311
:1015300004048093190290931A02A0931B02B093A3
:101540001C028091000490910104A0910204B091CA
:1015500003040196A11DB11D809300049093010422
:10156000A0930204B0930304BF91AF919F918F9118
:101570003F912F910F900FBE0F901F901895789468
:1015800084B5826084BD84B5816084BD85B5826088
:1015900085BD85B5816085BD80916E008160809339
:1015A0006E001092810080918100826080938100A2
:1015B00080918100816080938100809180008160B2
:1015C000809380008091B10084608093B10080910D
:1015D000B00081608093B00080917A008460809335
:1015E0007A0080917A00826080937A0080917A00FC
:1015F000816080937A0080917A00806880937A007D
:101600001092C1000E941F038DE192E00E94E2004F
:10161000181619061CF00E948901F6CF80E391E0AC
:101620000E943D09C2EAD1E02FB7F89480911902D7
:1016300090911A02A0911B02B0911C022FBF8093BF
:10164000250290932602A0932702B09328028DE1F1
:1016500092E00E94C00097FF4DC02FB7F894809190
:10166000190290911A02A0911B02B0911C022FBF87
:101670004091250250912602609127027091280224
:10168000841B950BA60BB70B4091210250912202AF
:10169000609123027091240284179507A607B7076B
:1016A000B0F20CE010E0E12CF12CC0E0D0E0C23050
:1016B000D10514F421961AC083E0E816F1046CF009
:1016C0008BEE92E00E940F0885E093E00E940F08E5
:1016D00081E491E00E943D0909C08FEFE81AF80A01
:1016E0008BE491E00E943D09C0E0D0E00150110977
:1016F000F1F691CF8A309105A1F2899381E0CE3A3B
:10170000D80709F091CFCDCFCF931092200210923D
:101710001F0288EE93E0A0E0B0E080932102909356
:101720002202A0932302B093240224E031E03093FC
:101730001E0220931D0225EC30E030932A022093F4
:10174000290224EC30E030932C0220932B0220EC71
:1017500030E030932E0220932D0221EC30E03093C4
:10176000300220932F0222EC30E03093320220939B
:10177000310226EC30E03093340220933302109291
:1017800036021092370210923802109239021092EB
:10179000BD021092BC028093BE029093BF02A09340
:1017A000C002B093C10286E191E09093BB028093A6
:1017B000BA0280E48093270310922503809372037A
:1017C000109270038093BD031092BB038EE0809350
:1017D000050460E00E949809C1E0C093060461E03E
:1017E000809105040E944B09109207048091060421
:1017F000811102C0C09307041092FD021092FC02F6
:101800001092FF021092FE0281E08093000380910B
:10181000EA028C3020F08FEF8093020313C091E036
:10182000980F9093EA028093020390E0FC01EE0F80
:10183000FF1F8E0F9F1FFC01EA53FD4F88EB9BE0BB
:10184000928381831092170310921603109219034A
:101850001092180381E080931A038091EA028C3081
:1018600020F08FEF80931C0313C091E0980F9093AA
:10187000EA0280931C0390E0FC01EE0FFF1F8E0F25
:101880009F1FFC01EA53FD4F88EB9BE0928381830D
:10189000CF910895052E97FB1EF400940E94610CD1
:1018A00057FD07D00E94740C07FC03D04EF40C9433
:1018B000610C50954095309521953F4F4F4F5F4FAC
:1018C000089590958095709561957F4F8F4F9F4FAC
:1018D00008950E94960CA59F900DB49F900DA49F13
:1018E000800D911D11240895A1E21A2EAA1BBB1B85
:1018F000FD010DC0AA1FBB1FEE1FFF1FA217B307DC
:10190000E407F50720F0A21BB30BE40BF50B661FF1
:10191000771F881F991F1A9469F7609570958095B5
:1019200090959B01AC01BD01CF010895A29FB0012C
:10193000B39FC001A39F700D811D1124911DB29F03
:10194000700D811D1124911D0895DB018F939F93CC
:101950000E94690CBF91AF91A29F800D911DA39F22
:10196000900DB29F900D11240895991B79E004C049
:10197000991F961708F0961B881F7A95C9F78095CE
:101980000895EE0FFF1F0590F491E02D099481E07A
:0C19900090E0F8940C94CC0CF894FFCF7D
:10199C00000000001A018700B1006701E200C000DE
:1019AC00D400000000002002F3015002C701EB013B
:1019BC00D701C801493243206572726F723A200018
:1019CC004D657373616765207265636569766564DF
:1019DC0000496E206A6F696E747300496E20616EE7
:0819EC00676C6573000D0A0031
:00000001FF
