:100000000C945D000C9485000C9485000C94850084
:100010000C9485000C9485000C9485000C9485004C
:100020000C9485000C9485000C9485000C94DB03E3
:100030000C9485000C9485000C9485000C9485002C
:100040000C94AE080C9485000C947B020C94550221
:100050000C9485000C9485000C9485000C9485000C
:100060000C94AD020C948500000000080002010011
:100070000003040700000000000000000000000072
:10008000250028002B0000000000240027002A0083
:10009000040404040404040402020202020203032E
:1000A0000303030301020408102040800102040836
:1000B00010200102040810200B0B11241FBECFEFEB
:1000C000D8E0DEBFCDBF11E0A0E0B1E0EEEEFAE196
:1000D00002C005900D92A835B107D9F723E0A8E535
:1000E000B1E001C01D92AC3AB207E1F710E0CDE5F6
:1000F000D0E004C02197FE010E94BD0CCC35D10791
:10010000C9F70E94F8080C94750D0C94000008952E
:100110000895CF92DF92EF92FF920F931F93CF93A8
:10012000DF936C017A018B01C0E0D0E0CE15DF05D2
:1001300081F0D8016D918D01D601ED91FC91019076
:10014000F081E02DC6010995892B11F02196EECFA3
:100150007E01C701DF91CF911F910F91FF90EF902A
:10016000DF90CF900895FC01538D448D252F30E012
:10017000842F90E0821B930B541710F0CF960895B4
:1001800001970895FC01918D828D981761F0828D01
:10019000DF01A80FB11D5D968C91928D9F5F9F73BB
:1001A000928F90E008958FEF9FEF0895FC01918D5D
:1001B000828D981731F0828DE80FF11D858D90E0CA
:1001C00008958FEF9FEF0895FC01918D228D892F67
:1001D00090E0805C9F4F821B91098F73992708954F
:1001E00081E492E00E94E40021E0892B09F420E000
:1001F000822F0895FC01848DDF01A80FB11DA35A41
:10020000BF4F2C91848D90E001968F739927848F36
:10021000A689B7892C93A089B1898C918370806459
:100220008C93938D848D981306C00288F389E02DFA
:1002300080818F7D80830895EF92FF920F931F93AB
:10024000CF93DF93EC0181E0888F9B8D8C8D981389
:1002500005C0E889F989808185FD26C0F62E0B8DC1
:1002600010E00F5F1F4F0F731127E02E8C8DE812E7
:100270000CC00FB607FCFACFE889F989808185FFA9
:10028000F5CFCE010E94FA00F1CF8B8DFE01E80F71
:10029000F11DE35AFF4FF0829FB7F8940B8FEA8964
:1002A000FB89808180620AC09FB7F894EE89FF893C
:1002B0006083E889F98980818370806480839FBF2F
:1002C00081E090E0DF91CF911F910F91FF90EF902F
:1002D0000895CF93DF93EC01888D8823C9F0EA89D4
:1002E000FB89808185FD05C0A889B9898C9186FD2F
:1002F0000FC00FB607FCF5CF808185FFF2CFA8892C
:10030000B9898C9185FFEDCFCE010E94FA00E7CF2D
:10031000DF91CF91089580E090E0892B29F00E9431
:10032000F00081110C940000089585ED8093BC00CD
:100330008091BC0084FDFCCF10921C020895409176
:100340009D01262F30E0240F311D21323105DCF4D0
:1003500020911C022430C9F4FC0180E090E0861753
:1003600058F430919D012191DC01A358BE4FA30F99
:10037000B11D2C930196F3CF80919D01680F60937E
:100380009D0180E0089581E0089582E00895089538
:10039000E091D5018091D401E81730F4F0E0EA5201
:1003A000FE4F808190E008958FEF9FEF0895909128
:1003B000D5018091D401981750F4E92FF0E0EA526A
:1003C000FE4F208130E09F5F9093D50102C02FEF58
:1003D0003FEFC90108958091D40190E02091D501AB
:1003E000821B91090895CF92DF92EF92FF920F93B3
:1003F0001F93CF93DF937C01CB018A0120911D02D3
:10040000222389F0EB016B01C40ED51ECC15DD054E
:1004100069F06991D701ED91FC910190F081E02D97
:10042000C7010995F3CF642F0E949F01C801DF9196
:10043000CF911F910F91FF90EF90DF90CF90089593
:10044000CF93DF931F92CDB7DEB7698320911D0252
:100450002223D1F020914002203240F021E030E010
:10046000FC013383228380E090E015C080911E025E
:10047000E82FF0E0E15EFD4F998190838F5F8093DC
:100480001E028093400205C061E0CE0101960E94E9
:100490009F0181E090E00F90DF91CF910895089542
:1004A00080E090E008950E94700D1F920F920FB6A9
:1004B0000F9211242F933F934F935F936F937F93EA
:1004C0008F939F93AF93BF93EF93FF9381E492E059
:1004D0000E94FA00FF91EF91BF91AF919F918F9190
:1004E0007F916F915F914F913F912F910F900FBE30
:1004F0000F901F9018951F920F920FB60F92112414
:100500002F938F939F93EF93FF93E0915102F0917C
:1005100052028081E0915702F091580282FD12C090
:10052000908180915A028F5F8F7320915B028217B6
:1005300051F0E0915A02F0E0EF5BFD4F958F809310
:100540005A0201C08081FF91EF919F918F912F916D
:100550000F900FBE0F901F9018951F920F920FB61D
:100560000F9211242F933F934F935F936F937F9339
:100570008F939F93AF93BF93EF93FF938091B900B5
:10058000887F803609F49CC068F5883209F45BC026
:1005900090F4803109F454C038F4882309F4F6C08B
:1005A000883009F44DC0F6C0883109F44CC080325F
:1005B00009F45DC0EFC0803409F468C048F48033AA
:1005C00009F455C0883309F0E5C080931A02D8C0F9
:1005D000803509F44FC0883509F45DC0883409F0CE
:1005E000D9C0D6C0883909F4C7C0A8F4883709F43F
:1005F00067C038F4883609F463C0803709F460C0F6
:10060000C9C0883809F4B8C0803909F45FC080389F
:1006100009F0C0C05BC0803B09F486C038F4803A62
:1006200009F466C0883A09F47FC0B4C0803C09F47C
:10063000A7C0883C09F4A4C0883B09F48AC0AAC0BA
:100640008091F70110C090911902809118029817BB
:1006500070F5E091190281E08E0F80931902F0E0AD
:10066000E850FE4F80818093BB0085EC86C080936C
:100670001A028EC0E091190281E08E0F8093190258
:100680008091BB00F0E0E850FE4F8083909119020A
:10069000809118026EC0E091190281E08E0F809364
:1006A00019028091BB00F0E0E850FE4F80838091FA
:1006B0001B0281116DC081E08093F60184EA61C064
:1006C00083E080931C021092BF01CFCF8091BF01C5
:1006D000803208F051C0E091BF0181E08E0F80931D
:1006E000BF018091BB00F0E0E156FE4F8083BDCF9B
:1006F00085EC8093BC0010921C028091BF01803277
:1007000030F4E091BF01F0E0E156FE4F10826091BD
:10071000BF0170E0E091C001F091C1018FE991E06B
:1007200009951092BF0136C084E080931C0210929C
:100730009E0110929D01E091C201F091C3010995C3
:1007400080919D01811105C081E080939D011092EF
:100750007D01E0919E0181E08E0F80939E01F0E08B
:10076000E358FE4F80818093BB0090919E01809161
:100770009D01981708F479CF85E88093BC000AC0E2
:1007800085EC8093BC0010921C0204C010921A02E7
:100790000E949501FF91EF91BF91AF919F918F9131
:1007A0007F916F915F914F913F912F910F900FBE6D
:1007B0000F901F9018951F920F920FB60F92112451
:1007C0002F933F938F939F93EF93FF9380917C019F
:1007D00087FF05C0109285001092840005C08091AB
:1007E0007C0187FD80917C0180917C018F5F8093EB
:1007F0007C0180917C0187FF20C080917C018C303E
:10080000E4F4209184003091850080917C01082ED1
:10081000000C990BFC01EE0FFF1F8E0F9F1FFC01B8
:10082000E85AFE4F81819281820F931F9093890035
:100830008093880080917C0117C080918400909102
:100840008500049680349C4918F480E49CE905C036
:100850008091840090918500049690938900809304
:1008600088008FEF80937C01FF91EF919F918F9192
:100870003F912F910F900FBE0F901F901895CF931F
:10088000C42FFC01828191E090931D0280933F026E
:1008900010921E02109240028EED92E00E94200201
:1008A0006C2F8EED92E00E94200281E0CF910C949B
:1008B00092060F931F93CF93DF938C01FC018281EB
:1008C00091E090931D0280933F0210921E021092BD
:1008D00040028EED92E00E94200280E00E9492068B
:1008E000C82F882379F084E291E00E9430076C2FB2
:1008F00070E080E090E04AE00E94420780E391E0EF
:100900000E94300762E0F80182810E94EE06109298
:10091000D5018093D4018EED92E00E94D701EC01C5
:100920008EED92E00E94D701DD2796E0CC0FDD1F0F
:100930009A95E1F78F739E01280F311DC901DF9150
:10094000CF911F910F9108954F925F926F927F9276
:100950008F929F92AF92BF92CF92DF92EF92FF92CF
:100960000F931F93CF93DF93EC0106962F816EEFC9
:10097000222339F00E9459046FEF7FE3681B790B43
:1009800003C00E945904BC0180E090E00E947C0BEF
:100990006C877D878E879F8720E030E040E858E3B2
:1009A0000E94DD0B20E030E044EB53E40E94DD0BBD
:1009B0006B017C018EAD882309F4A6C083E391E02E
:1009C0000E943007A7019601C701B6010E946B0D76
:1009D000882319F08BE391E01AC046015701E8948F
:1009E000B7F82FEF3FEF4FE75FE7C501B4010E9473
:1009F0006B0D81110FC02FEF3FEF4FE75FE7C50190
:100A0000B4010E94770B18162CF48FE391E00E943A
:100A1000300776C02FEF3FEF4FE75FE4C701B60125
:100A20000E94660D18161CF483E491E0F0CF2FEFBE
:100A30003FEF4FE75FECC701B6010E94770B87FDE0
:100A4000F3CF20E030E0A901C701B6010E94770B87
:100A500087FF09C06DE281E492E00E941C01C7019A
:100A6000B601905802C0C701B6012AE037ED43EA4B
:100A70005BE30E94C40C2B013C010E94370D4B012B
:100A80005C010E947C0B9B01AC01C301B2010E947E
:100A9000C30C2B013C014AE0C501B4010E9442078E
:100AA0006EE281E492E00E941C0120E030E040E22E
:100AB00051E4C301B2010E94DD0B2B013C010E94F5
:100AC000370D4B01A12CB12C4AE0C501B4010E94A5
:100AD0004207C501B4010E947C0B9B01AC01C3011C
:100AE000B2010E94C30C20E030E040E251E40E94D9
:100AF000DD0B0E94370D80E090E04AE00E94420743
:100B000080E391E00E94300720E030E0A901C701B6
:100B1000B6010E94660D87FD13C020E030E846EB69
:100B200053E4C701B6010E94770B18164CF0CAAE09
:100B3000DBAEECAEFDAE7C2D6D2D9E2D8F2D04C059
:100B40007AAD6BAD9CAD8DAD272F362F492F582F29
:100B50006AA17BA18CA19DA10E94C30C4B015C01E9
:100B60000E94300D9B0177FF04C022273327261BEC
:100B7000370B253B310554F020E030E044EB53E4E3
:100B8000C501B4010E94C40C4B015C012AA93BA918
:100B90004CA95DA9C501B4010E94C40C6B017C0184
:100BA0006AAB7BAB8CAB9DAB2EA13FA148A559A5F1
:100BB000C501B4010E94DD0B2B013C012AA53BA518
:100BC0004CA55DA5C701B6010E94DD0B9B01AC01E0
:100BD000C301B2010E94C40C6B017C012EA93FA984
:100BE00048AD59ADC501B4010E94C30C2EA53FA567
:100BF00048A959A90E94DD0B9B01AC01C701B601B0
:100C00000E94C40C0E94300D8B0101308FEF180739
:100C10003CF00F3F110509F05CF417FF0BC002C058
:100C200001E01FEF61E088810E94610860E007C079
:100C30000FEF10E060E088810E94610861E08A8126
:100C40000E94610817FF03C0119501951109EC80FE
:100C5000FD808E2D0E9483070115110509F447C000
:100C60000F3F110509F445C0F701FF27E859FF4F71
:100C7000E491E330F9F048F4E130B9F0E230A1F565
:100C800084B5806284BD08BD38C0E730E9F0E83043
:100C900019F1E43049F580918000806280938000F2
:100CA00010938B0000938A0028C084B5806884BDAF
:100CB00007BD23C0809180008068809380001093DE
:100CC00089000093880019C08091B00080688093EB
:100CD000B0000093B30011C08091B0008062809397
:100CE000B0000093B40009C00038110514F460E0AE
:100CF00001C061E08E2D0E9461088EAA9FAAA8AE55
:100D0000B9AEDF91CF911F910F91FF90EF90DF90DF
:100D1000CF90BF90AF909F908F907F906F905F909B
:100D20004F900895282F30914002313208F04AC088
:100D300080911C028111FCCF90913F0242E04093D0
:100D40001C0220931B022FEF20931A02109219020B
:100D500030931802EFE1F2E0A8EFB1E020E03217A3
:100D600021F041914D932F5FFACF1092F70120911E
:100D7000F701990F922B9093F7019091F601913022
:100D800061F41092F6019091F7019093BB0090915D
:100D9000BC0093FDF8CF95EC01C095EE9093BC009C
:100DA00090911C029230E1F390911A029F3F79F0EA
:100DB00080911A02803241F080911A02803331F022
:100DC00084E005C081E003C082E001C083E01092AE
:100DD0001E021092400210921D02089590911C0272
:100DE0009111FCCF91E090931C0290931B022FEF86
:100DF00020931A0210921902260F20931802909342
:100E0000F7019091F701880F892B8093F70180916A
:100E1000F601813061F41092F6018091F701809320
:100E2000BB008091BC0083FDF8CF85EC01C085EE4E
:100E30008093BC0080911C028130E1F38091190203
:100E4000861710F460911902A8EFB1E0E6EDF1E029
:100E500080E0861721F09D9191938F5FFACF0895DE
:100E6000009769F0FC0101900020E9F73197AF018C
:100E7000481B590BBC0181E492E00C94890080E08E
:100E800090E008958F929F92AF92BF920F931F931D
:100E9000CF93DF93CDB7DEB7A1970FB6F894DEBF3F
:100EA0000FBECDBF19A2423008F44AE08E010F5D9B
:100EB0001F4F842E912CA12CB12CA50194010E94CE
:100EC0009B0CE62FB901CA0101501109EA3014F454
:100ED000E05D01C0E95CD801EC93232B242B252B8A
:100EE00061F7C8010E943007A1960FB6F894DEBFE3
:100EF0000FBECDBFDF91CF911F910F91BF90AF90EB
:100F00009F908F90089590E0FC01EC55FF4F249145
:100F1000FC01E057FF4F8491882399F090E0880FFF
:100F2000991FFC01EA57FF4FA591B491FC01E458C9
:100F3000FF4F859194918FB7F894EC91E22BEC934D
:100F40008FBF08954F925F926F927F928F929F9280
:100F5000AF92BF92CF92DF92EF92FF920F931F93C7
:100F6000CF93DF93CDB7DEB73C01862F502E8301A0
:100F70000A5F1F4F90E4F3019087168260837183AC
:100F800053834283358324830E948307F301828144
:100F90000E948307F30184810E948307F301508636
:100FA0005524539456821782148615861686178602
:100FB00066E1C8010E945904F30193878287808506
:100FC00050921D0280933F0210921E021092400226
:100FD00065E18EED92E00E94200280E00E94920680
:100FE000582E882379F084E291E00E943007652D25
:100FF00070E080E090E04AE00E94420780E391E0E8
:101000000E94300761E0F30180850E94EE06109295
:10101000D5018093D4018EED92E00E94D701F301B7
:101020008187108A118A128A138A11A210A28BEA70
:101030009AEAAAEABEE3848F958FA68FB78F40E025
:1010400066E1C8010E943F0440E067E1C8010E94D8
:101050003F046EEFC8010E9459042C01AC0186E0E8
:10106000569547958A95E1F766E1C8010E943F04CD
:10107000442D4F7367E1C8010E943F04F301C6A2EB
:10108000D7A2E0A6F1A68DEC9CECACECBDE382A768
:1010900093A7A4A7B5A786A697A6A0AAB1AA16AE9D
:1010A000DF91CF911F910F91FF90EF90DF90CF9044
:1010B000BF90AF909F908F907F906F905F904F9078
:1010C000089590E0FC01E859FF4F2491FC01EC5594
:1010D000FF4F3491FC01E057FF4FE491EE2309F4F8
:1010E0003CC0222339F1233091F038F42130A9F0AB
:1010F000223001F584B58F7D12C0273091F0283061
:10110000A1F02430B9F4809180008F7D03C08091DC
:1011100080008F77809380000DC084B58F7784BD69
:1011200009C08091B0008F7703C08091B0008F7D9F
:101130008093B000F0E0EE0FFF1FE458FF4FA59141
:10114000B4919FB7F894611104C08C913095382305
:1011500002C0EC913E2B3C939FBF08951F920F92CB
:101160000FB60F9211242F933F938F939F93AF93BA
:10117000BF938091D0019091D101A091D201B09103
:10118000D3013091AB0323E0230F2D3720F40196D8
:10119000A11DB11D05C026E8230F0296A11DB11D9A
:1011A0002093AB038093D0019093D101A093D201FF
:1011B000B093D3018091A7039091A803A091A903B4
:1011C000B091AA030196A11DB11D8093A70390932E
:1011D000A803A093A903B093AA03BF91AF919F91D5
:1011E0008F913F912F910F900FBE0F901F901895E8
:1011F000CF93DF93CDB7DEB7EF970FB6F894DEBF8E
:101200000FBECDBF789484B5826084BD84B5816003
:1012100084BD85B5826085BD85B5816085BD8091C1
:101220006E00816080936E00109281008091810039
:101230008260809381008091810081608093810031
:10124000809180008160809380008091B1008460F3
:101250008093B1008091B00081608093B000809154
:101260007A00846080937A0080917A008260809313
:101270007A0080917A00816080937A0080917A0070
:10128000806880937A001092C100E0915102F09141
:10129000520282E08083E0914D02F0914E02108272
:1012A000E0914F02F09150028FEC8083109259022E
:1012B000E0915502F091560286E08083E09153025E
:1012C000F0915402808180618083E0915302F0911B
:1012D0005402808188608083E0915302F09154022F
:1012E000808180688083E0915302F0915402808174
:1012F0008F7D80831092D5011092D40110921E022E
:101300001092400210921C027724739470921B0278
:101310001092F60161E082E10E94610861E083E1E0
:101320000E9461088091B9008E7F8093B9008091FE
:10133000B9008D7F8093B90088E48093B80085E47C
:101340008093BC0087E890E09093C3018093C20132
:1013500088E890E09093C1018093C001812C912C8A
:1013600094EBA92E92E4B92EC12CD12C24E3E22EC9
:1013700023E4F22E00E410E023E030E044E050E00B
:1013800065E070E0CE0101960E94A2078FE3FE01A6
:101390003196AAEEB2E001900D928A95E1F7812C88
:1013A000912C3CE8A32E32E4B32EC12CD12C46E183
:1013B000E42E43E4F42E01E410E026E030E047E0C0
:1013C00050E068E070E0CE0101960E94A2078FE332
:1013D000FE013196A9E2B3E001900D928A95E1F702
:1013E000812C912C50ECA52E50E4B52EC12CD12C83
:1013F00060E4E62E61E4F62E02E410E02BE030E03B
:101400004DE050E06CE070E0CE0101960E94A20732
:101410008FE3FE013196A8E6B3E001900D928A9524
:10142000E1F77092A60310920C0310920D03109234
:101430000E0310920F0310922003109221031092BA
:1014400022031092230310921C0310921D0310928A
:101450001E0310921F0380E090E0A0EAB0E48093A6
:101460004B0390934C03A0934D03B0934E03109203
:101470005F03109260031092610310926203109256
:101480005B0310925C0310925D0310925E0380E098
:1014900090E0ACE5B2EC80938A0390938B03A09329
:1014A0008C03B0938D0310929E0310929F031092B1
:1014B000A0031092A10310929A0310929B03109222
:1014C0009C0310929D0370EDC72E71E0D72EEFE3C1
:1014D0009E2E81E492E00E94E400181619067CF02A
:1014E0008AEE92E00E94A40489E293E00E94A404A0
:1014F00088E693E00E94A4040E948B01EACF87E46F
:1015000091E00E94300780E391E00E94300787EC71
:10151000E82E81E0F82E87012FB7F8948091D00152
:101520009091D101A091D201B091D3012FBF8093AE
:10153000490290934A02A0934B02B0934C0281E47B
:1015400092E00E94C20097FF5BC02FB7F894809191
:10155000D0019091D101A091D201B091D3012FBFC0
:101560004091490250914A0260914B0270914C02A5
:10157000841B950BA60BB70B409145025091460278
:10158000609147027091480284179507A607B70734
:10159000B0F2A12CB12C80E090E0F70121917F0105
:1015A000FC01EC53FE4F20838230910514F4019628
:1015B00023C084EC91E00E94510B9A9C80019B9C7B
:1015C000100D112406511D4FBC01990F880B990B6A
:1015D0000E947E0BF80162A373A384A395A316AAAD
:1015E00017AA10AE11AE12AA13AA14AA15AAFFEFD9
:1015F000AF1ABF0A80E090E0CE14DF0471F670CF1E
:101600008A30910531F2F80181938F01CE16DF0601
:1016100009F082CFBECFE1E4F2E01382128288EEBD
:1016200093E0A0E0B0E084839583A683B78324E0B1
:1016300031E03183208325EC30E03587248724ECAA
:1016400030E03787268720EC30E0318B208B21EC8F
:1016500030E0338B228B22EC30E0358B248B26EC70
:1016600030E0378B268B118E128E138E148EEEED9A
:10167000F2E01382128284839583A683B78386E186
:1016800091E091838083EAEEF2E080E48087168225
:101690008093310310922F038093700310926E0396
:1016A0000895FC0188279927E89421912032E9F3D5
:1016B000293010F02E30C8F32B3241F02D3239F49E
:1016C000689404C00E946F0B820F911D21912053DA
:1016D0002A30C0F31EF4909581959F4F08957AE0CB
:1016E000979F902D879F802D910D112408950E9422
:1016F000B90B08F481E00895E89409C097FB3EF423
:1017000090958095709561957F4F8F4F9F4F99234E
:10171000A9F0F92F96E9BB279395F69587957795CC
:101720006795B795F111F8CFFAF4BB0F11F460FF8C
:101730001BC06F5F7F4F8F4F9F4F16C0882311F0E4
:1017400096E911C0772321F09EE8872F762F05C0F8
:10175000662371F096E8862F70E060E02AF09A9593
:10176000660F771F881FDAF7880F9695879597F988
:101770000895990F0008550FAA0BE0E8FEEF161622
:101780001706E807F907C0F012161306E407F50775
:1017900098F0621B730B840B950B39F40A2661F0E9
:1017A000232B242B252B21F408950A2609F4A1408C
:1017B000A6958FEF811D811D08950E94F00B0C945A
:1017C000610C0E94530C38F00E945A0C20F09523B3
:1017D00011F00C944A0C0C94500C11240C94950CA0
:1017E0000E94720C70F3959FC1F3950F50E0551F46
:1017F000629FF001729FBB27F00DB11D639FAA2766
:10180000F00DB11DAA1F649F6627B00DA11D661FB4
:10181000829F2227B00DA11D621F739FB00DA11DD5
:10182000621F839FA00D611D221F749F3327A00D8F
:10183000611D231F849F600D211D822F762F6A2F2B
:1018400011249F5750409AF0F1F088234AF0EE0F90
:10185000FF1FBB1F661F771F881F91505040A9F7BD
:101860009E3F510580F00C944A0C0C94950C5F3F00
:10187000E4F3983ED4F3869577956795B795F795F9
:10188000E7959F5FC1F7FE2B880F911D9695879571
:1018900097F9089597F99F6780E870E060E00895F0
:1018A0009FEF80EC089500240A9416161706180678
:1018B0000906089500240A94121613061406050654
:1018C0000895092E0394000C11F4882352F0BB0FE5
:1018D00040F4BF2B11F460FF04C06F5F7F4F8F4F48
:1018E0009F4F089557FD9058440F551F59F05F3F83
:1018F00071F04795880F97FB991F61F09F3F79F032
:1019000087950895121613061406551FF2CF4695B3
:10191000F1DF08C0161617061806991FF1CF869535
:101920007105610508940895E894BB276627772719
:10193000CB0197F90895A1E21A2EAA1BBB1BFD014A
:101940000DC0AA1FBB1FEE1FFF1FA217B307E4079E
:10195000F50720F0A21BB30BE40BF50B661F771FF6
:10196000881F991F1A9469F76095709580959095D6
:101970009B01AC01BD01CF010895EE0FFF1F059043
:10198000F491E02D09945058BB27AA270E94DB0C44
:101990000C94610C0E94530C38F00E945A0C20F0F9
:1019A00039F49F3F19F426F40C94500C0EF4E09592
:1019B000E7FB0C944A0CE92F0E94720C58F3BA17FB
:1019C000620773078407950720F079F4A6F50C9455
:1019D000940C0EF4E0950B2EBA2FA02D0B01B9013B
:1019E00090010C01CA01A0011124FF27591B99F095
:1019F000593F50F4503E68F11A16F040A22F232FA1
:101A0000342F4427585FF3CF469537952795A795F0
:101A1000F0405395C9F77EF41F16BA0B620B730B97
:101A2000840BBAF09150A1F0FF0FBB1F661F771F08
:101A3000881FC2F70EC0BA0F621F731F841F48F4BD
:101A4000879577956795B795F7959E3F08F0B0CF46
:101A50009395880F08F09927EE0F9795879508952D
:101A60000E94370D6894B1110C94950C08950E9452
:101A70007A0C88F09F5798F0B92F9927B751B0F09A
:101A8000E1F0660F771F881F991F1AF0BA95C9F702
:101A900014C0B13091F00E94940CB1E008950C9400
:101AA000940C672F782F8827B85F39F0B93FCCF3B3
:101AB000869577956795B395D9F73EF4909580957F
:101AC000709561957F4F8F4F9F4F08950E94B90B7E
:101AD00008F48FEF08950E94B90B880B990B0895B5
:0E1AE00081E090E0F8940C94750DF894FFCF1F
:101AEE00000000001C018900B3006901E400C2007F
:101AFE00D600000000002002F3015002C701EB01E6
:101B0E00D701C801493243206572726F723A2000C4
:101B1E000D0A00616E676C653A20006E616E006999
:101B2E006E66006F7666004D657373616765207231
:081B3E006563656976656400CA
:00000001FF
