:100000000C945D000C9485000C9485000C94850084
:100010000C9485000C9485000C9485000C9485004C
:100020000C9485000C9485000C9485000C9442027D
:100030000C9485000C94F2060C9485000C948500B9
:100040000C94980A0C9485000C943F080C941908A1
:100050000C9485000C9485000C9485000C9485000C
:100060000C9403030C94850000000000240027007A
:100070002A0000000000250028002B0004040404CE
:100080000404040402020202020203030303030342
:10009000010204081020408001020408102001021F
:1000A00004081020000000080002010000030407FB
:1000B0000000000000000000010E11241FBECFEF61
:1000C000D8E0DEBFCDBF11E0A0E0B1E0E4E8F2E2AD
:1000D00002C005900D92AA35B107D9F724E0AAE530
:1000E000B1E001C01D92A631B207E1F710E0CDE505
:1000F000D0E004C02197FE010E948810CC35D107C2
:10010000C9F70E94E20A0C9440110C940000FC0113
:10011000918D828D981761F0828DDF01A80FB11D3E
:100120005D968C91928D9F5F9F73928F90E0089562
:100130008FEF9FEF0895FC01918D828D981731F01C
:10014000828DE80FF11D858D90E008958FEF9FEF70
:100150000895FC01918D228D892F90E0805C9F4F46
:10016000821B91098F739927089580E090E0892B75
:1001700029F00E949E0781110C940000089585EDDE
:100180008093BC008091BC0084FDFCCF10920202E1
:10019000089540917E01262F30E0240F311D213239
:1001A0003105DCF4209102022430C9F4FC0180E026
:1001B00090E0861758F430917E012191DC01A45A19
:1001C000BE4FA30FB11D2C930196F3CF80917E01FA
:1001D000680F60937E0180E0089581E0089582E0D9
:1001E0000895089508950895E0915B0180915A0162
:1001F000E81730F4F0E0E454FE4F808190E0089579
:100200008FEF9FEF089590915B0180915A019817AD
:1002100050F4E92FF0E0E454FE4F208130E09F5F7E
:1002200090935B0102C02FEF3FEFC90108958091C9
:100230005A0190E020915B01821B91090895CF92B1
:10024000DF92EF92FF920F931F93CF93DF937C0186
:10025000CB018A0120910302222389F0EB016B017B
:10026000C40ED51ECC15DD0569F06991D701ED915D
:10027000FC910190F081E02DC7010995F3CF642F27
:100280000E94C900C801DF91CF911F910F91FF908B
:10029000EF90DF90CF900895CF93DF931F92CDB76B
:1002A000DEB76983209103022223D1F02091260238
:1002B000203240F021E030E0FC013383228380E0F3
:1002C00090E015C080910402E82FF0E0EB5FFD4F55
:1002D000998190838F5F809304028093260205C0EA
:1002E00061E0CE0101960E94C90081E090E00F908C
:1002F000DF91CF910895089580E090E008957F9276
:100300008F929F92AF92BF92CF92DF92EF92FF9225
:100310000F931F93CF93DF93EC017F888BE08715BA
:1003200008F466C0CA84DB840D2C000CEE08FF08BC
:100330008E809F80092C000CAA08BB082C853D8567
:10034000C901330FAA0BBB0B9C01AD012C193D0950
:100350004E095F09CB01770FAA0BBB0BBC01CD0186
:10036000681979098A099B090E946C1028853985CA
:100370008901330F220B330BA90198012819390980
:100380004A095B090E941110C20ED31EE41EF51E1D
:10039000288D88E890E0821B910927FD9395880FAE
:1003A000991F880F991FC816D90684F0898D48E5D2
:1003B00052E0481B510987FD5395440F551F440FC8
:1003C000551FC6014C155D050CF4CA010297880F34
:1003D000991F4FB7F894272D30E0F901EE0FFF1F5A
:1003E0002E0F3F1FF901E053FD4F928381834FBFD2
:1003F000DF91CF911F910F91FF90EF90DF90CF9001
:10040000BF90AF909F908F907F900895CF93C42F0F
:10041000FC01828191E09093030280932502109267
:1004200004021092260284EC92E00E944C016C2F90
:1004300084EC92E00E944C0181E0CF910C94710811
:10044000FC01848DDF01A80FB11DA35ABF4F2C9171
:10045000848D90E001968F739927848FA689B78940
:100460002C93A089B1898C91837080648C93938D37
:10047000848D981306C00288F389E02D80818F7DDA
:10048000808308951F920F920FB60F9211242F931D
:100490003F934F935F936F937F938F939F93AF930C
:1004A000BF93EF93FF938091A30187FF05C0109244
:1004B0008500109284001BC02091A301022E000C25
:1004C000330B8091F40290E02817390784F480916F
:1004D000A301082E000C990BFC01EE0FFF1F8E0FDD
:1004E0009F1FFC01E053FD4F808186FD15C0809168
:1004F000A3018F5F8093A3012091A301022E000C22
:10050000330B8091F40290E028173907C4F48091EE
:10051000A3018C3064F113C08091A301082E000C5C
:10052000990BFC01EE0FFF1F8E0F9F1FFC01E05384
:10053000FD4F808160E08F730E946209D8CF809167
:10054000840090918500049680349C4918F480E4DE
:100550009CE905C080918400909185000496909359
:100560008900809388008FEF8093A3013BC0209186
:100570008400309185008091A301082E000C990B16
:10058000FC01EE0FFF1F8E0F9F1FFC01E053FD4F7C
:1005900081819281820F931F9093890080938800BC
:1005A0008091A301082E000C990BFC01EE0FFF1F98
:1005B0008E0F9F1FFC01E053FD4F808186FF12C00C
:1005C0008091A301082E000C990BFC01EE0FFF1F78
:1005D0008E0F9F1FFC01E053FD4F808161E08F7300
:1005E0000E946209FF91EF91BF91AF919F918F910E
:1005F0007F916F915F914F913F912F910F900FBE1F
:100600000F901F9018951F920F920FB60F92112402
:100610002F933F934F935F936F937F938F939F930A
:10062000AF93BF93EF93FF938091B900887F80369B
:1006300009F49CC068F5883209F45BC090F48031FD
:1006400009F454C038F4882309F4F6C0883009F45A
:100650004DC0F6C0883109F44CC0803209F45DC049
:10066000EFC0803409F468C048F4803309F455C001
:10067000883309F0E5C080930002D8C0803509F4C2
:100680004FC0883509F45DC0883409F0D9C0D6C0A0
:10069000883909F4C7C0A8F4883709F467C038F46A
:1006A000883609F463C0803709F460C0C9C088384F
:1006B00009F4B8C0803909F45FC0803809F0C0C0BF
:1006C0005BC0803B09F486C038F4803A09F466C008
:1006D000883A09F47FC0B4C0803C09F4A7C0883CC4
:1006E00009F4A4C0883B09F48AC0AAC08091DD0146
:1006F00010C09091FF018091FE01981770F5E09174
:10070000FF0181E08E0F8093FF01F0E0E252FE4F87
:1007100080818093BB0085EC86C0809300028EC0F0
:10072000E091FF0181E08E0F8093FF018091BB007B
:10073000F0E0E252FE4F80839091FF018091FE0134
:100740006EC0E091FF0181E08E0F8093FF018091E8
:10075000BB00F0E0E252FE4F8083809101028111E4
:100760006DC081E08093DC0184EA61C083E0809306
:1007700002021092A201CFCF8091A201803208F034
:1007800051C0E091A20181E08E0F8093A20180917F
:10079000BB00F0E0EE57FE4F8083BDCF85EC809329
:1007A000BC00109202028091A201803230F4E091EC
:1007B000A201F0E0EE57FE4F10826091A20170E0BE
:1007C000E0918001F091810182E891E00995109219
:1007D000A20136C084E08093020210927F01109241
:1007E0007E01E0917C01F0917D01099580917E016F
:1007F000811105C081E080937E0110925C01E0913F
:100800007F0181E08E0F80937F01F0E0E45AFE4F7C
:1008100080818093BB0090917F0180917E01981729
:1008200008F479CF85E88093BC000AC085EC8093FA
:10083000BC001092020204C0109200020E94BF008D
:10084000FF91EF91BF91AF919F918F917F916F91A8
:100850005F914F913F912F910F900FBE0F901F907E
:1008600018950F931F93CF93DF938C01FC01828126
:1008700091E090930302809325021092040210925B
:10088000260284EC92E00E944C0180E00E947108F4
:10089000C82F882379F086E291E00E940F096C2F1F
:1008A00070E080E090E04AE00E94210982E391E05C
:1008B0000E940F0962E0F80182810E94CD08109227
:1008C0005B0180935A0184EC92E00E940301EC01E9
:1008D00084EC92E00E940301DD2796E0CC0FDD1F3F
:1008E0009A95E1F78F739E01280F311DC901DF91A1
:1008F000CF911F910F9108950F931F93CF93DF9383
:10090000EC0140E066E10E94060240E067E1CE01B2
:100910000E9406026EEFCE010E9431048C01AC01F0
:1009200086E0569547958A95E1F766E1CE010E94EB
:100930000602402F4F7367E1CE01DF91CF911F91E7
:100940000F910C9406021F93CF93DF93EC0111E0FB
:10095000188319821E821F821886198666E10E94FA
:1009600031049D838C838A81109303028093250236
:10097000109204021092260265E184EC92E00E943B
:100980004C0180E00E947108182F882379F086E2DC
:1009900091E00E940F09612F70E080E090E04AE052
:1009A0000E94210982E391E00E940F0961E08A819F
:1009B0000E94CD0810925B0180935A0184EC92E072
:1009C0000E9403018B831A861B861C861D861B8E44
:1009D0001A8E8BEA9AEAAAEABEE38E8B9F8BA88FC7
:1009E000B98FDF91CF911F9108954F925F926F92CF
:1009F0007F928F929F92AF92BF92CF92DF92EF92AF
:100A0000FF921F93CF93DF93CDB7DEB7CB54D109BD
:100A10000FB6F894DEBF0FBECDBFE7E2F2E0A089CB
:100A2000B18982E08C93A485B5851C92A685B78593
:100A30008FEC8C93108EA489B58986E08C93A28963
:100A4000B3898C9180618C93A289B3898C918860E1
:100A50008C93A289B3898C9180688C930288F389E6
:100A6000E02D80818F7D808310925B0110925A016E
:100A700010920402109226021092020281E08093EA
:100A800001021092DC0161E082E10E94620961E0F2
:100A900083E10E946209E9EBF0E080818E7F808330
:100AA00080818D7F808388E48093B80085E4809383
:100AB000BC0081EF90E090937D0180937C0182EFF8
:100AC00090E0909381018093800110E419871F8248
:100AD00085E090E09A83898384E090E09C838B8317
:100AE00083E090E09E838D8361E085E00E94AF0902
:100AF00061E08B810E94AF0961E08D810E94AF09A6
:100B00001F821987CE0107960E94A304CE01079683
:100B10000E947C0480E090E0AAE2B3E48FA398A74F
:100B2000A9A7BAA78DECC82E8CECD82EED2C8DE39E
:100B3000F82ECBA6DCA6EDA6FEA680E090E0AAEA01
:100B4000B2E48FA798ABA9ABBAAB412C512C90E47F
:100B5000692E91E4792E4BAA5CAA6DAA7EAACFAA2F
:100B6000D8AEE9AEFAAE812C912C20ECA22E20E476
:100B7000B22E8BAE9CAEADAEBEAE2C961FAE2C97F9
:100B80008BE4FE013196A9E2B3E001900D928A95C3
:100B9000E1F719871F8288E090E09A83898387E0D4
:100BA00090E09C838B8386E090E09E838D8361E060
:100BB00088E00E94AF0961E08B810E94AF0961E08B
:100BC0008D810E94AF091F8281E48987CE0107963B
:100BD0000E94A304CE0107960E947C0440E050E0EE
:100BE00066E173E44FA358A769A77AA7CBA6DCA652
:100BF000EDA6FEA680E090E0ACE8B2E48FA798AB4B
:100C0000A9ABBAAB4BAB5CAB6DAB7EABCFAAD8AEEE
:100C1000E9AEFAAE8BAF9CAFADAFBEAF2C961FAEB8
:100C20002C978BE4FE013196A4E7B3E001900D927E
:100C30008A95E1F719871F828CE090E09A83898377
:100C40008DE090E09C838B838BE090E09E838D838E
:100C500061E08CE00E94AF0961E08B810E94AF09E6
:100C600061E08D810E94AF091F8282E48987CE01F5
:100C700007960E94A304CE0107960E947C044FA20F
:100C800058A669A67AA6CBA6DCA6EDA6FEA68FA6D8
:100C900098AAA9AABAAA80E090E0AAE2B3E48BAB32
:100CA0009CABADABBEABCFAAD8AEE9AEFAAE80E09E
:100CB00090E0AAEAB2E48BAF9CAFADAFBEAF2C968A
:100CC0001FAE2C978BE4FE013196AFEBB3E00190A1
:100CD0000D928A95E1F780E090E0A0EAB1E480937C
:100CE0004B0390934C03A0934D03B0934E0310928B
:100CF0006B0310926C0310926D0310926E031092AE
:100D00006703109268031092690310926A0380933C
:100D1000960390939703A0939803B093990310922E
:100D2000B6031092B7031092B8031092B903109251
:100D3000B2031092B3031092B4031092B50380E093
:100D400090E0ACE5B2EC8093E1039093E203A093D2
:100D5000E303B093E4031092010410920204109292
:100D60000304109204041092FD031092FE031092EB
:100D7000FF031092000441E069E070E0CE010196AB
:100D80000E94EB098AE1FE013196A5EFB2E00190E5
:100D90000D928A95E1F740E06AE070E0CE0101969D
:100DA0000E94EB098AE1FE013196AFE0B3E00190C9
:100DB0000D928A95E1F7C55BDF4F0FB6F894DEBF61
:100DC0000FBECDBFDF91CF911F91FF90EF90DF90CD
:100DD000CF90BF90AF909F908F907F906F905F90DB
:100DE0004F9008951F920F920FB60F9211242F93D8
:100DF0003F934F935F936F937F938F939F93AF93A3
:100E0000BF93EF93FF93E0E0F0E00995FF91EF913E
:100E1000BF91AF919F918F917F916F915F914F9112
:100E20003F912F910F900FBE0F901F901895EF924A
:100E3000FF920F931F93CF93DF93EC017B018A0105
:100E40008D89882329F00E948C0A7C8B6B8B1D8AEC
:100E500081E0E816F104D1F082E0E816F10431F106
:100E6000EF2821F50E948C0A2B893C89621B730BA9
:100E7000601771071CF46E817F8113C060E070E021
:100E8000CE010E947F0181E08D8B16C00E948C0AEA
:100E90002B893C89621B730B601771077CF768858F
:100EA0007985CE010E947F011E8A07C060E070E054
:100EB000CE010E947F0181E08E8B8E89DF91CF91E0
:100EC0001F910F91FF90EF900895CF92DF92EF92D4
:100ED000FF920F931F93CF93DF936C017A018B01E5
:100EE000C0E0D0E0CE15DF0581F0D8016D918D0115
:100EF000D601ED91FC910190F081E02DC60109959C
:100F0000892B11F02196EECF7E01C701DF91CF91A1
:100F10001F910F91FF90EF90DF90CF900895FC010B
:100F2000538D448D252F30E0842F90E0821B930B4E
:100F3000541710F0CF9608950197089587E292E034
:100F40000E94A90021E0892B09F420E0822F089556
:100F50000E943B11EF92FF920F931F93CF93DF9369
:100F6000EC0181E0888F9B8D8C8D981305C0E889FA
:100F7000F989808185FD26C0F62E0B8D10E00F5F6C
:100F80001F4F0F731127E02E8C8DE8120CC00FB687
:100F900007FCFACFE889F989808185FFF5CFCE017A
:100FA0000E942002F1CF8B8DFE01E80FF11DE35A64
:100FB000FF4FF0829FB7F8940B8FEA89FB898081FD
:100FC00080620AC09FB7F894EE89FF896083E88940
:100FD000F98980818370806480839FBF81E090E085
:100FE000DF91CF911F910F91FF90EF900895CF93D4
:100FF000DF93EC01888D8823C9F0EA89FB89808121
:1010000085FD05C0A889B9898C9186FD0FC00FB6F2
:1010100007FCF5CF808185FFF2CFA889B9898C9133
:1010200085FFEDCFCE010E942002E7CFDF91CF9167
:1010300008951F920F920FB60F9211242F933F9392
:101040004F935F936F937F938F939F93AF93BF93D0
:10105000EF93FF9387E292E00E942002FF91EF91CD
:10106000BF91AF919F918F917F916F915F914F91C0
:101070003F912F910F900FBE0F901F9018951F92C8
:101080000F920FB60F9211242F938F939F93EF938C
:10109000FF93E0913702F09138028081E0913D02A8
:1010A000F0913E0282FD12C09081809140028F5FDC
:1010B0008F7320914102821751F0E0914002F0E0DD
:1010C000E95DFD4F958F8093400201C08081FF91C3
:1010D000EF919F918F912F910F900FBE0F901F90C6
:1010E0001895282F30912602313208F04AC080919D
:1010F00002028111FCCF9091250242E0409302024E
:10110000209301022FEF209300021092FF013093F1
:10111000FE01E5E0F2E0AEEDB1E020E0321721F0B3
:1011200041914D932F5FFACF1092DD012091DD01A7
:10113000990F922B9093DD019091DC01913061F435
:101140001092DC019091DD019093BB009091BC0066
:1011500093FDF8CF95EC01C095EE9093BC00909173
:1011600002029230E1F3909100029F3F79F080916A
:101170000002803241F080910002803331F084E03F
:1011800005C081E003C082E001C083E01092040248
:10119000109226021092030208959091020291117A
:1011A000FCCF91E090930202909301022FEF2093E5
:1011B00000021092FF01260F2093FE019093DD01A3
:1011C0009091DD01880F892B8093DD018091DC01F6
:1011D000813061F41092DC018091DD018093BB00CD
:1011E0008091BC0083FDF8CF85EC01C085EE809333
:1011F000BC00809102028130E1F38091FF018617EB
:1012000010F46091FF01AEEDB1E0ECEBF1E080E0B5
:10121000861721F09D9191938F5FFACF08950097E3
:1012200069F0FC0101900020E9F73197AF01481BFC
:10123000590BBC0187E292E00C94650780E090E0D6
:1012400008958F929F92AF92BF920F931F93CF9367
:10125000DF93CDB7DEB7A1970FB6F894DEBF0FBE10
:10126000CDBF19A2423008F44AE08E010F5D1F4F36
:10127000842E912CA12CB12CA50194010E943B102D
:10128000E62FB901CA0101501109EA3014F4E05DFA
:1012900001C0E95CD801EC93232B242B252B61F7AB
:1012A000C8010E940F09A1960FB6F894DEBF0FBEC9
:1012B000CDBFDF91CF911F910F91BF90AF909F90C5
:1012C0008F90089590E0FC01EC55FF4F2491FC01B4
:1012D000E057FF4F3491FC01E458FF4FE491EE23B7
:1012E00009F43CC0222339F1233091F038F4213045
:1012F000A9F0223001F584B58F7D12C0273091F01E
:101300002830A1F02430B9F4809180008F7D03C093
:10131000809180008F77809380000DC084B58F7797
:1013200084BD09C08091B0008F7703C08091B00068
:101330008F7D8093B000F0E0EE0FFF1FEE58FF4F5F
:10134000A591B4919FB7F894611104C08C91309528
:10135000382302C0EC913E2B3C939FBF0895CF935E
:10136000DF9390E0FC01E057FF4F2491FC01E4582B
:10137000FF4F8491882361F190E0880F991FFC0151
:10138000E859FF4FC591D491FC01EE58FF4FA5914C
:10139000B491611109C09FB7F89488812095822388
:1013A0008883EC912E230BC0623061F49FB7F894D0
:1013B0008881322F309583238883EC912E2B2C93B8
:1013C0009FBF06C08FB7F894E8812E2B28838FBF6C
:1013D000DF91CF9108951F93CF93DF93FC01128A81
:1013E000118A148A138A81E0858B2091F4022C30B3
:1013F000A0F4820F8093F402278B30E0D901AA0F6A
:10140000BB1F2A0F3B1FD901A053BD4F88EB9BE0A8
:1014100012969C938E93119702C08FEF878B8CED61
:1014200095E097878687442379F081E09FEF978343
:1014300086838FEF90E09187808780ED97E0938798
:10144000828788EE93E00EC08FEF90E097838683CB
:1014500081E09FEF9187808788EE93E09387828772
:1014600080ED97E09587848787898C3008F050C09D
:10147000162FEF0161E0812F0E94AF098F89E82FBD
:10148000F0E09F01220F331FE20FF31FE053FD4FE7
:101490001F736081607C162B1083188E198E6CE090
:1014A0000E947C109CE0899FB001112440E050E034
:1014B0009B01240F351FF901EE0FFF1F2E0F3F1F59
:1014C000F901E053FD4F908196FD16C04F5F5F4FCD
:1014D0004C30510569F781110FC01092800082E0F5
:1014E000809381001092850010928400B19A8091BF
:1014F0006F00826080936F00EF89F0E0CF01880F6A
:10150000991FE80FF91FE053FD4F808180648083AD
:10151000DF91CF911F9108952FB7F89460910F0438
:101520007091100480911104909112042FBF0895BE
:101530001F920F920FB60F9211242F933F938F9308
:101540009F93AF93BF9380910F0490911004A0914B
:101550001104B091120430910E0423E0230F2D37B3
:1015600020F40196A11DB11D05C026E8230F0296A7
:10157000A11DB11D20930E0480930F0490931004BD
:10158000A0931104B093120480910A0490910B046B
:10159000A0910C04B0910D040196A11DB11D809382
:1015A0000A0490930B04A0930C04B0930D04BF9114
:1015B000AF919F918F913F912F910F900FBE0F9000
:1015C0001F901895789484B5826084BD84B581603D
:1015D00084BD85B5826085BD85B5816085BD8091FE
:1015E0006E00816080936E00109281008091810076
:1015F000826080938100809181008160809381006E
:10160000809180008160809380008091B10084602F
:101610008093B1008091B00081608093B000809190
:101620007A00846080937A0080917A00826080934F
:101630007A0080917A00816080937A0080917A00AC
:10164000806880937A001092C1000E94F5043CEB00
:10165000232E31E0332E87E292E00E94A900181673
:1016600019068CF0809101018111B5C06091A8012B
:101670007091A90148E052E585EF92E00E941707BA
:1016800080930101A8C085E391E00E940F0982E3E5
:1016900091E00E940F0920EBE22E21E0F22EE701FB
:1016A0000E948C0A60932F02709330028093310263
:1016B0009093320287E292E00E94870097FF97C2E0
:1016C0000E948C0A00912F02109130022091310269
:1016D00030913202DC01CB01801B910BA20BB30BCA
:1016E00000912B0210912C0220912D0230912E029C
:1016F00080179107A207B307E8F200E010E020E0AE
:1017000030E0F70181917F01F901E455FE4F8083BC
:10171000223031051CF42F5F3F4F58C003301105B4
:101720007CF18091AD01082E000C990BC09740917F
:10173000AA015091AB018417950751F09093A9012C
:101740008093A8019093AB018093AA0110920101AC
:101750008091AE01082E000C990BC0974091A60114
:101760005091A7018417950789F19093A501809363
:10177000A4019093A7018093A6011092000126C0B6
:101780008CEA91E00E94C70EFBE4F09FE001F19F1C
:10179000D00D1124C75DDC4FBC01990F880B990B4C
:1017A0000E94F40E6AA37BA38CA39DA3FE01EE5BB3
:1017B000FF4F1082118212821382EE9618821982D4
:1017C0001A821B820F5F1F4F20E030E02E143F046F
:1017D00009F097CF47CF8091000181110CC0609133
:1017E000A4017091A50140EF55E58FE093E00E94C0
:1017F000170780930001C9E2D3E007E613E0CE01AA
:1018000006962F816EEF222339F00E9431046FEF8C
:101810007FE3681B790B03C00E943104BC0180E0A8
:1018200090E00E94F20E6C877D878E879F8720E074
:1018300030E040E858E30E94530F20E030E044EBF2
:1018400053E40E94530F6B017C01F80184858823C7
:1018500009F4A6C086E491E00E940F09A701960151
:10186000C701B6010E943611882319F08EE491E079
:101870001AC046015701E894B7F82FEF3FEF4FE742
:101880005FE7C501B4010E94361181110FC02FEF2F
:101890003FEF4FE75FE7C501B4010E94ED0E181658
:1018A0002CF482E591E00E940F0976C02FEF3FEF04
:1018B0004FE75FE4C701B6010E94311118161CF40E
:1018C00086E591E0F0CF2FEF3FEF4FE75FECC701E8
:1018D000B6010E94ED0E87FDF3CF20E030E0A901B4
:1018E000C701B6010E94ED0E87FF09C06DE287E2D5
:1018F00092E00E94AA07C701B601905802C0C70132
:10190000B6012AE037ED43EA5BE30E948F102B011A
:101910003C010E9402114B015C010E94F20E9B01EE
:10192000AC01C301B2010E948E102B013C014AE0C0
:10193000C501B4010E9421096EE287E292E00E9493
:10194000AA0720E030E040E251E4C301B2010E9466
:10195000530F2B013C010E9402114B01A12CB12C11
:101960004AE0C501B4010E942109C501B4010E94E9
:10197000F20E9B01AC01C301B2010E948E1020E067
:1019800030E040E251E40E94530F0E94021180E0D7
:1019900090E04AE00E94210982E391E00E940F0951
:1019A00020E030E0A901C701B6010E94311187FD96
:1019B00014C020E030E846EB53E4C701B6010E94B2
:1019C000ED0E181654F0F801C086D186E286F38633
:1019D0007C2D6D2D9E2D8F2D05C0F80170856185A4
:1019E00092858385272F362F492F582F6AA17BA1F7
:1019F0008CA19DA10E948E106B017C010E94FB10A6
:101A00009B0177FF04C022273327261B370B253B7A
:101A1000310554F020E030E044EB53E4C701B60157
:101A20000E948F106B017C01F8012081318142817D
:101A30005381C701B6010E948F104B015C01F80170
:101A400060837183828393832EA13FA148A559A50A
:101A5000C701B6010E94530F2B013C012AA53BA5EB
:101A60004CA55DA5C501B4010E94530F9B01AC01BB
:101A7000C301B2010E948F104B015C01F801248167
:101A8000358146815781C701B6010E948E102EA56F
:101A90003FA548A959A90E94530F9B01AC01C5015C
:101AA000B4010E948F100E94FB105B01072E000CF6
:101AB000880B990B0E94F40E2B013C0120E030E8CA
:101AC00045E653EC0E94ED0E87FD0DC020E030E8A6
:101AD00045E653E4C301B2010E94311118166CF0BF
:101AE000B7FE0EC004C09BE1A92EBB24BA9461E0EE
:101AF00088810E94620960E008C085EEA82EB12CA2
:101B000060E088810E94620961E08A810E94620926
:101B1000B7FE03C0B194A194B1088C809D8061E0B0
:101B2000882D0E94AF09A114B10409F449C0FFEF48
:101B3000AF16B10409F446C0F401FF27EC55FF4F7E
:101B4000E491E330F9F048F4E130B9F0E230A1F586
:101B500084B5806284BDA8BC39C0E730E9F0E830C4
:101B600019F1E43049F58091800080628093800013
:101B7000B0928B00A0928A0029C084B5806884BD91
:101B8000A7BC24C080918000806880938000B092C0
:101B90008900A09288001AC08091B000806880936C
:101BA000B000A092B30012C08091B0008062809318
:101BB000B000A092B4000AC020E8A216B10414F448
:101BC00060E001C061E0882D0E946209F801C482D2
:101BD000D582E682F782C55BDF4F055B1F4FF4E0DD
:101BE000CA30DF0709F00BCE0E94B50034CD8A3031
:101BF000910509F482CD89932C163D0609F050CD4C
:101C00007CCDCF9310922A021092290288EE93E0A5
:101C1000A0E0B0E080932B0290932C02A0932D02C1
:101C2000B0932E0226E031E0309328022093270261
:101C300025EC30E0309334022093330224EC30E082
:101C4000309336022093350220EC30E03093380296
:101C50002093370221EC30E030933A02209339028E
:101C600022EC30E030933C0220933B0226EC30E043
:101C700030933E0220933D021092400210924102A6
:101C800010924202109243021092C7021092C602B2
:101C90008093C8029093C902A093CA02B093CB026A
:101CA00088E191E09093C5028093C40280E4809320
:101CB000310310922F0380937C0310927A03809358
:101CC000C7031092C5038EE08093130460E00E9466
:101CD000AF09C1E0C093140461E0809113040E9435
:101CE00062091092150480911404811102C0C093FE
:101CF0001504109207031092060310920903109224
:101D0000080381E080930A038091F4028C3020F074
:101D10008FEF80930C0313C091E0980F9093F4021F
:101D200080930C0390E0FC01EE0FFF1F8E0F9F1FAE
:101D3000FC01E053FD4F88EB9BE09283818310927E
:101D4000210310922003109223031092220381E0BA
:101D5000809324038091F4028C3020F08FEF8093E5
:101D6000260313C091E0980F9093F402809326030A
:101D700090E0FC01EE0FFF1F8E0F9F1FFC01E05350
:101D8000FD4F88EB9BE092838183CF910895FC0106
:101D900088279927E89421912032E9F3293010F01F
:101DA0002E30C8F32B3241F02D3239F4689404C040
:101DB0000E94E50E820F911D219120532A30C0F31D
:101DC0001EF4909581959F4F08957AE0979F902DEE
:101DD000879F802D910D112408950E942F0F08F4E4
:101DE00081E00895E89409C097FB3EF490958095B2
:101DF000709561957F4F8F4F9F4F9923A9F0F92FD1
:101E000096E9BB279395F695879577956795B7954E
:101E1000F111F8CFFAF4BB0F11F460FF1BC06F5F34
:101E20007F4F8F4F9F4F16C0882311F096E911C046
:101E3000772321F09EE8872F762F05C0662371F067
:101E400096E8862F70E060E02AF09A95660F771F7B
:101E5000881FDAF7880F9695879597F90895990F57
:101E60000008550FAA0BE0E8FEEF16161706E80764
:101E7000F907C0F012161306E407F50798F0621B85
:101E8000730B840B950B39F40A2661F0232B242B5A
:101E9000252B21F408950A2609F4A140A6958FEF79
:101EA000811D811D08950E94660F0C94D70F0E941A
:101EB000C90F38F00E94D00F20F0952311F00C9438
:101EC000C00F0C94C60F11240C940B100E94E80F45
:101ED00070F3959FC1F3950F50E0551F629FF0017D
:101EE000729FBB27F00DB11D639FAA27F00DB11D96
:101EF000AA1F649F6627B00DA11D661F829F22271F
:101F0000B00DA11D621F739FB00DA11D621F839FA5
:101F1000A00D611D221F749F3327A00D611D231F7B
:101F2000849F600D211D822F762F6A2F11249F57C9
:101F300050409AF0F1F088234AF0EE0FFF1FBB1FCC
:101F4000661F771F881F91505040A9F79E3F51058B
:101F500080F00C94C00F0C940B105F3FE4F3983E9C
:101F6000D4F3869577956795B795F795E7959F5F35
:101F7000C1F7FE2B880F911D9695879597F90895C7
:101F800097F99F6780E870E060E008959FEF80EC2C
:101F9000089500240A9416161706180609060895CF
:101FA00000240A9412161306140605060895092E35
:101FB0000394000C11F4882352F0BB0F40F4BF2BA4
:101FC00011F460FF04C06F5F7F4F8F4F9F4F0895E4
:101FD00057FD9058440F551F59F05F3F71F04795DA
:101FE000880F97FB991F61F09F3F79F087950895BF
:101FF000121613061406551FF2CF4695F1DF08C0DE
:10200000161617061806991FF1CF869571056105FA
:1020100008940895E894BB2766277727CB0197F9A2
:102020000895052E97FB1EF400940E94281057FD7A
:1020300007D00E943B1007FC03D04EF40C942810EC
:1020400050954095309521953F4F4F4F5F4F0895E4
:1020500090958095709561957F4F8F4F9F4F089514
:102060000E945D10A59F900DB49F900DA49F800DC0
:10207000911D11240895A1E21A2EAA1BBB1BFD017C
:102080000DC0AA1FBB1FEE1FFF1FA217B307E40757
:10209000F50720F0A21BB30BE40BF50B661F771FAF
:1020A000881F991F1A9469F760957095809590958F
:1020B0009B01AC01BD01CF010895A29FB001B39F68
:1020C000C001A39F700D811D1124911DB29F700D41
:1020D000811D1124911D0895DB018F939F930E9410
:1020E0003010BF91AF91A29F800D911DA39F900DC5
:1020F000B29F900D11240895991B79E004C0991F97
:10210000961708F0961B881F7A95C9F78095089551
:10211000EE0FFF1F0590F491E02D09945058BB2756
:10212000AA270E94A6100C94D70F0E94C90F38F05E
:102130000E94D00F20F039F49F3F19F426F40C943C
:10214000C60F0EF4E095E7FB0C94C00FE92F0E9438
:10215000E80F58F3BA17620773078407950720F052
:1021600079F4A6F50C940A100EF4E0950B2EBA2F14
:10217000A02D0B01B90190010C01CA01A00111248D
:10218000FF27591B99F0593F50F4503E68F11A1639
:10219000F040A22F232F342F4427585FF3CF4695CA
:1021A00037952795A795F0405395C9F77EF41F16EC
:1021B000BA0B620B730B840BBAF09150A1F0FF0FB6
:1021C000BB1F661F771F881FC2F70EC0BA0F621FA2
:1021D000731F841F48F4879577956795B795F79592
:1021E0009E3F08F0B0CF9395880F08F09927EE0F27
:1021F0009795879508950E9402116894B1110C94E7
:102200000B1008950E94F00F88F09F5798F0B92F97
:102210009927B751B0F0E1F0660F771F881F991F1B
:102220001AF0BA95C9F714C0B13091F00E940A10A3
:10223000B1E008950C940A10672F782F8827B85FB3
:1022400039F0B93FCCF3869577956795B395D9F773
:102250003EF490958095709561957F4F8F4F9F4F7D
:1022600008950E942F0F08F48FEF08950E942F0FFA
:10227000880B990B089581E090E0F8940C9440113C
:04228000F894FFCF00
:10228400010100000000AA0765078F07F707A900EE
:1022940087009B00000000004C011F017C01F3003B
:1022A40017010301F400493243206572726F723AD8
:1022B40020000D0A004D65737361676520726563C4
:1022C400656976656400616E676C653A20006E61CD
:0A22D4006E00696E66006F7666000A
:00000001FF
