:100000000C945D000C9485000C9485000C94850084
:100010000C9485000C9485000C9485000C9485004C
:100020000C9485000C9485000C9485000C9470034E
:100030000C9485000C94F2060C9485000C948500B9
:100040000C94DB0A0C9485000C943F080C9419085E
:100050000C9485000C9485000C9485000C9485000C
:100060000C9442020C94850000000000240027003C
:100070002A0000000000250028002B0004040404CE
:100080000404040402020202020203030303030342
:10009000010204081020408001020408102001021F
:1000A00004081020000000080002010000030407FB
:1000B0000000000000000000440F11241FBECFEF1D
:1000C000D8E0DEBFCDBF11E0A0E0B1E0EAE0F5E2AC
:1000D00002C005900D92A638B107D9F724E0A6E832
:1000E000B1E001C01D92A234B207E1F710E0CDE506
:1000F000D0E004C02197FE010E94CB11CC35D1077E
:10010000C9F70E94250B0C9483120C940000FC018B
:10011000918D828D981761F0828DDF01A80FB11D3E
:100120005D968C91928D9F5F9F73928F90E0089562
:100130008FEF9FEF0895FC01918D828D981731F01C
:10014000828DE80FF11D858D90E008958FEF9FEF70
:100150000895FC01918D228D892F90E0805C9F4F46
:10016000821B91098F739927089580E090E0892B75
:1001700029F00E949E0781110C940000089585EDDE
:100180008093BC008091BC0084FDFCCF10922E02B5
:1001900008954091AB01262F30E0240F311D21320C
:1001A0003105DCF420912E022430C9F4FC0180E0FA
:1001B00090E0861758F43091AB012191DC01A757EC
:1001C000BE4FA30FB11D2C930196F3CF8091AB01CD
:1001D000680F6093AB0180E0089581E0089582E0AC
:1001E0000895089508950895E09188018091870108
:1001F000E81730F4F0E0E851FE4F808190E0089578
:100200008FEF9FEF08959091880180918701981753
:1002100050F4E92FF0E0E851FE4F208130E09F5F7D
:100220009093880102C02FEF3FEFC901089580919C
:10023000870190E020918801821B91090895CF9257
:10024000DF92EF92FF920F931F93CF93DF937C0186
:10025000CB018A0120912F02222389F0EB016B014F
:10026000C40ED51ECC15DD0569F06991D701ED915D
:10027000FC910190F081E02DC7010995F3CF642F27
:100280000E94C900C801DF91CF911F910F91FF908B
:10029000EF90DF90CF900895CF93DF931F92CDB76B
:1002A000DEB7698320912F022223D1F020915202E0
:1002B000203240F021E030E0FC013383228380E0F3
:1002C00090E015C080913002E82FF0E0EF5CFD4F28
:1002D000998190838F5F809330028093520205C092
:1002E00061E0CE0101960E94C90081E090E00F908C
:1002F000DF91CF910895089580E090E008957F9276
:100300008F929F92AF92BF92CF92DF92EF92FF9225
:100310000F931F93CF93DF93EC017F888BE08715BA
:1003200008F466C0CA84DB840D2C000CEE08FF08BC
:100330008E809F80092C000CAA08BB082C853D8567
:10034000C901330FAA0BBB0B9C01AD012C193D0950
:100350004E095F09CB01770FAA0BBB0BBC01CD0186
:10036000681979098A099B090E94AF112885398586
:100370008901330F220B330BA90198012819390980
:100380004A095B090E945411C20ED31EE41EF51ED9
:10039000288D88E890E0821B910927FD9395880FAE
:1003A000991F880F991FC816D90684F0898D48E5D2
:1003B00052E0481B510987FD5395440F551F440FC8
:1003C000551FC6014C155D050CF4CA010297880F34
:1003D000991F4FB7F894272D30E0F901EE0FFF1F5A
:1003E0002E0F3F1FF901E450FD4F928381834FBFD1
:1003F000DF91CF911F910F91FF90EF90DF90CF9001
:10040000BF90AF909F908F907F900895CF93C42F0F
:10041000FC01828191E090932F028093510210920F
:1004200030021092520280EF92E00E944C016C2F39
:1004300080EF92E00E944C0181E0CF910C94710812
:10044000FC01848DDF01A80FB11DA35ABF4F2C9171
:10045000848D90E001968F739927848FA689B78940
:100460002C93A089B1898C91837080648C93938D37
:10047000848D981306C00288F389E02D80818F7DDA
:10048000808308951F920F920FB60F9211242F931D
:100490003F934F935F936F937F938F939F93AF930C
:1004A000BF93EF93FF938091B900887F803609F462
:1004B0009CC068F5883209F45BC090F4803109F47F
:1004C00054C038F4882309F4F6C0883009F44DC0CC
:1004D000F6C0883109F44CC0803209F45DC0EFC029
:1004E000803409F468C048F4803309F455C0883377
:1004F00009F0E5C080932C02D8C0803509F44FC0C4
:10050000883509F45DC0883409F0D9C0D6C088396F
:1005100009F4C7C0A8F4883709F467C038F48836EE
:1005200009F463C0803709F460C0C9C0883809F491
:10053000B8C0803909F45FC0803809F0C0C05BC022
:10054000803B09F486C038F4803A09F466C0883AE2
:1005500009F47FC0B4C0803C09F4A7C0883C09F40A
:10056000A4C0883B09F48AC0AAC08091090210C0C7
:1005700090912B0280912A02981770F5E0912B023E
:1005800081E08E0F80932B02F0E0E65FFD4F8081CB
:100590008093BB0085EC86C080932C028EC0E091D6
:1005A0002B0281E08E0F80932B028091BB00F0E044
:1005B000E65FFD4F808390912B0280912A026EC0EE
:1005C000E0912B0281E08E0F80932B028091BB0083
:1005D000F0E0E65FFD4F808380912D0281116DC0B8
:1005E00081E08093080284EA61C083E080932E0258
:1005F0001092CF01CFCF8091CF01803208F051C04F
:10060000E091CF0181E08E0F8093CF018091BB00FC
:10061000F0E0E155FE4F8083BDCF85EC8093BC00B8
:1006200010922E028091CF01803230F4E091CF0100
:10063000F0E0E155FE4F10826091CF0170E0E09153
:10064000AD01F091AE018FEA91E009951092CF01D2
:1006500036C084E080932E021092AC011092AB0160
:10066000E091A901F091AA0109958091AB01811156
:1006700005C081E08093AB0110928901E091AC014B
:1006800081E08E0F8093AC01F0E0E757FE4F808150
:100690008093BB009091AC018091AB01981708F456
:1006A00079CF85E88093BC000AC085EC8093BC00BC
:1006B00010922E0204C010922C020E94BF00FF91E3
:1006C000EF91BF91AF919F918F917F916F915F91CA
:1006D0004F913F912F910F900FBE0F901F90189543
:1006E0001F920F920FB60F9211242F933F934F93A7
:1006F0005F936F937F938F939F93AF93BF93EF938A
:10070000FF938091860187FF05C0109285001092AB
:1007100084001BC020918601022E000C330B8091B7
:10072000200390E02817390784F480918601082E71
:10073000000C990BFC01EE0FFF1F8E0F9F1FFC0199
:10074000E450FD4F808186FD15C0809186018F5F4A
:100750008093860120918601022E000C330B80913C
:10076000200390E028173907C4F4809186018C306B
:1007700064F113C080918601082E000C990BFC01D6
:10078000EE0FFF1F8E0F9F1FFC01E450FD4F808175
:1007900060E08F730E94A509D8CF8091840090916A
:1007A0008500049680349C4918F480E49CE905C0D7
:1007B00080918400909185000496909389008093A5
:1007C00088008FEF809386013BC020918400309198
:1007D000850080918601082E000C990BFC01EE0F1C
:1007E000FF1F8E0F9F1FFC01E450FD4F81819281FE
:1007F000820F931F909389008093880080918601D7
:10080000082E000C990BFC01EE0FFF1F8E0F9F1F8F
:10081000FC01E450FD4F808186FF12C0809186016B
:10082000082E000C990BFC01EE0FFF1F8E0F9F1F6F
:10083000FC01E450FD4F808161E08F730E94A509A7
:10084000FF91EF91BF91AF919F918F917F916F91A8
:100850005F914F913F912F910F900FBE0F901F907E
:1008600018950F931F93CF93DF938C01FC01828126
:1008700091E090932F0280935102109230021092D7
:10088000520280EF92E00E944C0180E00E947108C9
:10089000C82F882379F08AE291E00E940F096C2F1B
:1008A00070E080E090E04AE00E94210986E391E058
:1008B0000E940F0962E0F80182810E94CD08109227
:1008C00088018093870180EF92E00E940301EC0190
:1008D00080EF92E00E940301DD2796E0CC0FDD1F40
:1008E0009A95E1F78F739E01280F311DC901DF91A1
:1008F000CF911F910F9108950F931F93CF93DF9383
:10090000EC0140E066E10E94060240E067E1CE01B2
:100910000E9406026EEFCE010E9431048C01AC01F0
:1009200086E0569547958A95E1F766E1CE010E94EB
:100930000602402F4F7367E1CE01DF91CF911F91E7
:100940000F910C9406021F93CF93DF93EC0111E0FB
:10095000188319821E821F821886198666E10E94FA
:1009600031049D838C838A8110932F0280935102DE
:10097000109230021092520265E180EF92E00E94E4
:100980004C0180E00E947108182F882379F08AE2D8
:1009900091E00E940F09612F70E080E090E04AE052
:1009A0000E94210986E391E00E940F0961E08A819B
:1009B0000E94CD08109288018093870180EF92E019
:1009C0000E9403018B831A861B861C861D861B8E44
:1009D0001A8E8BEA9AEAAAEABEE38E8B9F8BA88FC7
:1009E000B98FDF91CF911F9108954F925F926F92CF
:1009F0007F928F929F92AF92BF92CF92DF92EF92AF
:100A0000FF921F93CF93DF93CDB7DEB7CB54D109BD
:100A10000FB6F894DEBF0FBECDBFE3E5F2E0A089CC
:100A2000B18982E08C93A485B5851C92A685B78593
:100A30008FEC8C93108EA489B58986E08C93A28963
:100A4000B3898C9180618C93A289B3898C918860E1
:100A50008C93A289B3898C9180688C930288F389E6
:100A6000E02D80818F7D8083109288011092870114
:100A7000109230021092520210922E0281E0809366
:100A80002D021092080261E082E10E94A50961E056
:100A900083E10E94A509E9EBF0E080818E7F8083ED
:100AA00080818D7F808388E48093B80085E4809383
:100AB000BC0081EF90E09093AA018093A90182EF9E
:100AC00090E09093AE018093AD0189E391E00E94A4
:100AD000670910E419871F8285E090E09A83898373
:100AE00084E090E09C838B8383E090E09E838D8301
:100AF00061E085E00E94F20961E08B810E94F209C9
:100B000061E08D810E94F2091F821987CE0107964C
:100B10000E94A304CE0107960E947C0480E090E02E
:100B2000A8ECB2E48FA398A7A9A7BAA78DECC82E0A
:100B30008CECD82EED2C8DE3F82ECBA6DCA6EDA602
:100B4000FEA680E090E0A8E4B2E48FA798ABA9AB42
:100B5000BAAB412C512C90E2692E91E4792E4BAA2C
:100B60005CAA6DAA7EAACFAAD8AEE9AEFAAE80E0A2
:100B700090E0A0EAB0E48BAF9CAFADAFBEAF2C96D7
:100B80001FAE2C978BE4FE013196A5E5B3E00190F2
:100B90000D928A95E1F719871F8288E090E09A8389
:100BA000898387E090E09C838B8386E090E09E833E
:100BB0008D8361E088E00E94F20961E08B810E94F0
:100BC000F20961E08D810E94F2091F8281E4898728
:100BD000CE0107960E94A304CE0107960E947C04D2
:100BE00080E090E0A0EFB2E48FA398A7A9A7BAA7EE
:100BF000CBA6DCA6EDA6FEA6812C912C20E7A22E8A
:100C000022E4B22E8FA698AAA9AABAAA8BAB9CAB53
:100C1000ADABBEABCFAAD8AEE9AEFAAE8BAE9CAE52
:100C2000ADAEBEAE2C961FAE2C978BE4FE01319676
:100C3000A0EAB3E001900D928A95E1F719871F822F
:100C40008CE090E09A8389838DE090E09C838B8395
:100C50008BE090E09E838D8361E08CE00E94F2093E
:100C600061E08B810E94F20961E08D810E94F209AE
:100C70001F8282E48987CE0107960E94A304CE01D9
:100C800007960E947C044FA258A669A67AA6CBA616
:100C9000DCA6EDA6FEA680E090E0A0EAB0E48FA777
:100CA00098ABA9ABBAAB80E090E0A8ECB2E48BAB18
:100CB0009CABADABBEABCFAAD8AEE9AEFAAE8BAEB5
:100CC0009CAEADAEBEAE2C961FAE2C978BE4FE0153
:100CD0003196ABEEB3E001900D928A95E1F7109258
:100CE0007703109278031092790310927A0310928E
:100CF0009703109298031092990310929A031092FE
:100D000093031092940310929503109296031092FD
:100D1000C2031092C3031092C4031092C503109231
:100D2000E2031092E3031092E4031092E5031092A1
:100D3000DE031092DF031092E0031092E1031092A1
:100D40000D0410920E0410920F04109210041092D1
:100D50002D0410922E0410922F0410923004109241
:100D6000290410922A0410922B0410922C0441E0C2
:100D700069E070E0CE0101960E942E0A8AE1FE0130
:100D80003196A1E2B3E001900D928A95E1F740E03F
:100D90006AE070E0CE0101960E942E0A8AE1FE010F
:100DA0003196ABE3B3E001900D928A95E1F78FE4C1
:100DB00091E00E946709C55BDF4F0FB6F894DEBF74
:100DC0000FBECDBFDF91CF911F91FF90EF90DF90CD
:100DD000CF90BF90AF909F908F907F906F905F90DB
:100DE0004F9008951F920F920FB60F9211242F93D8
:100DF0003F934F935F936F937F938F939F93AF93A3
:100E0000BF93EF93FF93E0E0F0E00995FF91EF913E
:100E1000BF91AF919F918F917F916F915F914F9112
:100E20003F912F910F900FBE0F901F901895EF924A
:100E3000FF920F931F93CF93DF93EC017B018A0105
:100E40008D89882329F00E94CF0A7C8B6B8B1D8AA9
:100E500081E0E816F104D1F082E0E816F10431F106
:100E6000EF2821F50E94CF0A2B893C89621B730B66
:100E7000601771071CF46E817F8113C060E070E021
:100E8000CE010E947F0181E08D8B16C00E94CF0AA7
:100E90002B893C89621B730B601771077CF768858F
:100EA0007985CE010E947F011E8A07C060E070E054
:100EB000CE010E947F0181E08E8B8E89DF91CF91E0
:100EC0001F910F91FF90EF900895CF92DF92EF92D4
:100ED000FF920F931F93CF93DF936C017A018B01E5
:100EE000C0E0D0E0CE15DF0581F0D8016D918D0115
:100EF000D601ED91FC910190F081E02DC60109959C
:100F0000892B11F02196EECF7E01C701DF91CF91A1
:100F10001F910F91FF90EF90DF90CF900895FC010B
:100F2000538D448D252F30E0842F90E0821B930B4E
:100F3000541710F0CF9608950197089583E592E035
:100F40000E94A90021E0892B09F420E0822F089556
:100F50000E947E12EF92FF920F931F93CF93DF9325
:100F6000EC0181E0888F9B8D8C8D981305C0E889FA
:100F7000F989808185FD26C0F62E0B8D10E00F5F6C
:100F80001F4F0F731127E02E8C8DE8120CC00FB687
:100F900007FCFACFE889F989808185FFF5CFCE017A
:100FA0000E942002F1CF8B8DFE01E80FF11DE35A64
:100FB000FF4FF0829FB7F8940B8FEA89FB898081FD
:100FC00080620AC09FB7F894EE89FF896083E88940
:100FD000F98980818370806480839FBF81E090E085
:100FE000DF91CF911F910F91FF90EF900895CF93D4
:100FF000DF93EC01888D8823C9F0EA89FB89808121
:1010000085FD05C0A889B9898C9186FD0FC00FB6F2
:1010100007FCF5CF808185FFF2CFA889B9898C9133
:1010200085FFEDCFCE010E942002E7CFDF91CF9167
:1010300008951F920F920FB60F9211242F933F9392
:101040004F935F936F937F938F939F93AF93BF93D0
:10105000EF93FF9383E592E00E942002FF91EF91CE
:10106000BF91AF919F918F917F916F915F914F91C0
:101070003F912F910F900FBE0F901F9018951F92C8
:101080000F920FB60F9211242F938F939F93EF938C
:10109000FF93E0916302F09164028081E091690224
:1010A000F0916A0282FD12C0908180916C028F5F84
:1010B0008F7320916D02821751F0E0916C02F0E085
:1010C000ED5AFD4F958F80936C0201C08081FF9196
:1010D000EF919F918F912F910F900FBE0F901F90C6
:1010E0001895282F30915202313208F04AC0809171
:1010F0002E028111FCCF9091510242E040932E02CA
:1011000020932D022FEF20932C0210922B0230936C
:101110002A02E1E3F2E0AAE0B2E020E0321721F097
:1011200041914D932F5FFACF10920902209109024D
:10113000990F922B9093090290910802913061F4DB
:1011400010920802909109029093BB009091BC000C
:1011500093FDF8CF95EC01C095EE9093BC00909173
:101160002E029230E1F390912C029F3F79F0809112
:101170002C02803241F080912C02803331F084E0E7
:1011800005C081E003C082E001C083E0109230021C
:101190001092520210922F02089590912E029111F6
:1011A000FCCF91E090932E0290932D022FEF20938D
:1011B0002C0210922B02260F20932A0290930902F0
:1011C00090910902880F892B80930902809108026F
:1011D000813061F410920802809109028093BB0073
:1011E0008091BC0083FDF8CF85EC01C085EE809333
:1011F000BC0080912E028130E1F380912B02861792
:1012000010F460912B02AAE0B2E0E8EEF1E080E099
:10121000861721F09D9191938F5FFACF08950097E3
:1012200069F0FC0101900020E9F73197AF01481BFC
:10123000590BBC0183E592E00C94650780E090E0D7
:1012400008958F929F92AF92BF920F931F93CF9367
:10125000DF93CDB7DEB7A1970FB6F894DEBF0FBE10
:10126000CDBF19A2423008F44AE08E010F5D1F4F36
:10127000842E912CA12CB12CA50194010E947E11E9
:10128000E62FB901CA0101501109EA3014F4E05DFA
:1012900001C0E95CD801EC93232B242B252B61F7AB
:1012A000C8010E940F09A1960FB6F894DEBF0FBEC9
:1012B000CDBFDF91CF911F910F91BF90AF909F90C5
:1012C0008F900895682F83E592E00C94AA07CF933E
:1012D000DF930E940F09EC0186E391E00E940F0961
:1012E0008C0F9D1FDF91CF910895CF92DF92EF92E7
:1012F000FF92CF93DF936C01990FEE08FF08F7FE82
:1013000011C08DE20E946209EC0166277727CB01AC
:101310006C197D098E099F094AE00E942109C80FB6
:10132000D91F06C04AE0C701B6010E942109EC019D
:1013300086E391E00E940F098C0F9D1FDF91CF91F2
:10134000FF90EF90DF90CF90089590E0FC01EC5576
:10135000FF4F2491FC01E057FF4F3491FC01E4580A
:10136000FF4FE491EE2309F43CC0222339F12330EE
:1013700091F038F42130A9F0223001F584B58F7D49
:1013800012C0273091F02830A1F02430B9F48091B8
:1013900080008F7D03C0809180008F7780938000D4
:1013A0000DC084B58F7784BD09C08091B0008F7760
:1013B00003C08091B0008F7D8093B000F0E0EE0F0D
:1013C000FF1FEE58FF4FA591B4919FB7F89461119C
:1013D00004C08C913095382302C0EC913E2B3C9395
:1013E0009FBF0895CF93DF9390E0FC01E057FF4F3C
:1013F0002491FC01E458FF4F8491882361F190E02F
:10140000880F991FFC01E859FF4FC591D491FC0149
:10141000EE58FF4FA591B491611109C09FB7F894A0
:101420008881209582238883EC912E230BC0623023
:1014300061F49FB7F8948881322F30958323888395
:10144000EC912E2B2C939FBF06C08FB7F894E881A8
:101450002E2B28838FBFDF91CF9108951F93CF93B9
:10146000DF93FC01128A118A148A138A81E0858B2A
:10147000209120032C30A0F4820F80932003278B2F
:1014800030E0D901AA0FBB1F2A0F3B1FD901A4507E
:10149000BD4F88EB9BE012969C938E93119702C0F0
:1014A0008FEF878B8CED95E097878687442379F0C3
:1014B00081E09FEF978386838FEF90E0918780870D
:1014C00080ED97E09387828788EE93E00EC08FEFE0
:1014D00090E09783868381E09FEF9187808788EEF5
:1014E00093E09387828780ED97E09587848787894B
:1014F0008C3008F050C0162FEF0161E0812F0E9460
:10150000F2098F89E82FF0E09F01220F331FE20FCD
:10151000F31FE450FD4F1F736081607C162B108316
:10152000188E198E6CE00E94BF119CE0899FB0015B
:10153000112440E050E09B01240F351FF901EE0F0C
:10154000FF1F2E0F3F1FF901E450FD4F908196FDC4
:1015500016C04F5F5F4F4C30510569F781110FC0C6
:101560001092800082E0809381001092850010929A
:101570008400B19A80916F00826080936F00EF8940
:10158000F0E0CF01880F991FE80FF91FE450FD4FDD
:10159000808180648083DF91CF911F9108952FB760
:1015A000F89460913B0470913C0480913D049091CB
:1015B0003E042FBF08951F920F920FB60F92112471
:1015C0002F933F938F939F93AF93BF9380913B044F
:1015D00090913C04A0913D04B0913E0430913A04B6
:1015E00023E0230F2D3720F40196A11DB11D05C066
:1015F00026E8230F0296A11DB11D20933A04809383
:101600003B0490933C04A0933D04B0933E0480912E
:10161000360490913704A0913804B09139040196B2
:10162000A11DB11D8093360490933704A093380414
:10163000B0933904BF91AF919F918F913F912F91BA
:101640000F900FBE0F901F901895789484B582600C
:1016500084BD84B5816084BD85B5826085BD85B556
:10166000816085BD80916E00816080936E001092D4
:10167000810080918100826080938100809181004F
:1016800081608093810080918000816080938000E0
:101690008091B10084608093B1008091B00081603E
:1016A0008093B00080917A00846080937A0080916A
:1016B0007A00826080937A0080917A0081608093C2
:1016C0007A0080917A00806880937A001092C1003D
:1016D0000E94F50438EE232E31E0332E83E592E0AC
:1016E0000E94A900181619068CF08091030181113F
:1016F000B9C16091D2017091D30148E052E581E215
:1017000093E00E94170780930301ACC184E591E048
:101710000E94670928EDE22E21E0F22EE7010E94E7
:10172000CF0A60935B0270935C0280935D0290939A
:101730005E0283E592E00E94870097FF9BC30E94B0
:10174000CF0A00915B0210915C0220915D02309102
:101750005E02DC01CB01801B910BA20BB30B00914D
:101760005702109158022091590230915A02801765
:101770009107A207B307E8F28091D8018D3219F0E2
:10178000803309F066C100E010E0C0E0D0E0F7016E
:1017900081917F019E012C523E4F6901F9018083A6
:1017A000CE010E947509F60180810E94620986E3DC
:1017B00091E00E940F0984ED91E00E940A100E94BE
:1017C0007509C330D10514F421963EC185E691E038
:1017D0000E940F09C8010E947509033011050CF41D
:1017E000F4C03091D601832F032E000C990BC097C3
:1017F00040910401509105018417950751F0909391
:10180000D3018093D201909305018093040110923B
:1018100003012091D701822F022E000C990BC09753
:1018200040910101509102018417950751F0909366
:10183000D1018093D0019093020180930101109215
:101840000001321709F4FEC080907B0390907C0366
:10185000A0907D03B0907E0340917F035091800360
:10186000609181037091820380918303909184033E
:10187000A0918503B0918603409087035090880320
:101880006090890370908A0340927B0350927C039E
:1018900060927D0370927E0340908B0350908C0386
:1018A00060908D0370908E0340927F03509280036E
:1018B000609281037092820340908F035090900356
:1018C000609091037090920340928303509284033E
:1018D00060928503709286038092870390928803BA
:1018E000A0928903B0928A0340938B0350938C0398
:1018F00060938D0370938E0380938F039093900376
:10190000A0939103B09392038090110490901204DD
:10191000A0901304B0901404409115045091160443
:1019200060911704709118048091190490911A0421
:10193000A0911B04B0911C0440901D0450901E0403
:1019400060901F0470902004409211045092120481
:101950006092130470921404409021045090220469
:101960006090230470902404409215045092160451
:101970006092170470921804409025045090260439
:1019800060902704709028044092190450921A0421
:1019900060921B0470921C0480921D0490921E049D
:1019A000A0921F04B092200440932104509322047B
:1019B0006093230470932404809325049093260459
:1019C000A0932704B09328043DC08091D4018D32A8
:1019D00029F40E946209CFEFDFEF02C0C1E0D0E03E
:1019E000F0E3F093D40184ED91E00E940A108C9F03
:1019F00060018D9FD00C9C9FD00C11242BE4209F64
:101A0000E001219FD00D1124CB5ADC4FB6010D2CE3
:101A1000000C880B990B0E9437106AA37BA38CA340
:101A20009DA3FE01EE5BFF4F108211821282138292
:101A3000EE96188219821A821B82C6010E947509CD
:101A40000F5F1F4FC0E0D0E02E143F0409F09FCE7F
:101A50004CCEC0E1D0E083E592E00E948700219760
:101A6000D1F743CE8091000181110CC06091D0016B
:101A70007091D10148ED59E58BE393E00E9417077F
:101A800080930001C5E5D3E003E913E0CE0106969B
:101A90002F816EEF222339F00E9431046FEF7FE334
:101AA000681B790B03C00E943104BC0180E090E008
:101AB0000E9435106C877D878E879F8720E030E0FD
:101AC00040E858E30E94961020E030E044EB53E4F5
:101AD0000E9496106B017C01F8018485882309F42B
:101AE000A2C082E791E00E940F09A7019601C701F9
:101AF000B6010E947912882319F08AE791E01AC092
:101B000046015701E894B7F82FEF3FEF4FE75FE743
:101B1000C501B4010E94791281110FC02FEF3FEF70
:101B20004FE75FE7C501B4010E94301018162CF48E
:101B30008EE791E00E940F0972C02FEF3FEF4FE751
:101B40005FE4C701B6010E94741218161CF482E803
:101B500091E0F0CF2FEF3FEF4FE75FECC701B60109
:101B60000E94301087FDF3CF20E030E0A901C701CB
:101B7000B6010E94301087FF07C08DE20E94620903
:101B8000C701B601905802C0C701B6012AE037ED7F
:101B900043EA5BE30E94D2112B013C010E944512F3
:101BA0004B015C010E9435109B01AC01C301B201E5
:101BB0000E94D1112B013C014AE0C501B4010E94F1
:101BC00021098EE20E94620920E030E040E251E407
:101BD000C301B2010E9496102B013C010E944512E4
:101BE0004B01A12CB12C4AE0C501B4010E9421098E
:101BF000C501B4010E9435109B01AC01C301B201C3
:101C00000E94D11120E030E040E251E40E949610A1
:101C10000E94451280E090E04AE00E94210986E39C
:101C200091E00E940F0920E030E0A901C701B60150
:101C30000E94741287FD14C020E030E846EB53E4A4
:101C4000C701B6010E943010181654F0F801C08682
:101C5000D186E286F3867C2D6D2D9E2D8F2D05C0BD
:101C6000F8017085618592858385272F362F492F4E
:101C7000582F6AA17BA18CA19DA10E94D1116B015B
:101C80007C010E943E129B0177FF04C0222733276C
:101C9000261B370B253B310554F020E030E044EBA8
:101CA00053E4C701B6010E94D2116B017C01F80117
:101CB0002081318142815381C701B6010E94D21136
:101CC0004B015C01F80160837183828393832EA1B1
:101CD0003FA148A559A5C701B6010E9496102B0146
:101CE0003C012AA53BA54CA55DA5C501B4010E94F8
:101CF00096109B01AC01C301B2010E94D2114B01AD
:101D00005C01F8012481358146815781C701B60104
:101D10000E94D1112EA53FA548A959A90E9496104D
:101D20009B01AC01C501B4010E94D2110E943E1278
:101D30005B01072E000C880B990B0E9437102B01BA
:101D40003C0120E030E845E653EC0E94301087FD6E
:101D50000DC020E030E845E653E4C301B2010E9423
:101D6000741218166CF0B7FE0EC004C09BE1A92EC9
:101D7000BB24BA9461E088810E94A50960E008C094
:101D800085EEA82EB12C60E088810E94A50961E053
:101D90008A810E94A509B7FE03C0B194A194B1083D
:101DA0008C809D8061E0882D0E94F209A114B1040D
:101DB00009F449C0FFEFAF16B10409F446C0F401BD
:101DC000FF27EC55FF4FE491E330F9F048F4E130A0
:101DD000B9F0E230A1F584B5806284BDA8BC39C0F9
:101DE000E730E9F0E83019F1E43049F580918000FE
:101DF000806280938000B0928B00A0928A0029C0FC
:101E000084B5806884BDA7BC24C0809180008068B0
:101E100080938000B0928900A09288001AC08091BF
:101E2000B00080688093B000A092B30012C080918F
:101E3000B00080628093B000A092B4000AC020E895
:101E4000A216B10414F460E001C061E0882D0E9484
:101E5000A509F801C482D582E682F782C55BDF4F0F
:101E6000055B1F4FF4E0C633DF0709F00FCE0E9479
:101E7000B50034CC8A30910509F47ECC89932C16B8
:101E80003D0609F04CCC78CCCF93109256021092BC
:101E9000550288EE93E0A0E0B0E080935702909363
:101EA0005802A0935902B0935A022AE031E03093CD
:101EB00054022093530225EC30E0309360022093CB
:101EC0005F0224EC30E0309362022093610220EC48
:101ED00030E0309364022093630221EC30E03093D1
:101EE00066022093650222EC30E030936802209372
:101EF000670226EC30E030936A0220936902109268
:101F00006C0210926D0210926E0210926F0210928B
:101F1000F3021092F2028093F4029093F502A093E0
:101F2000F602B093F7028CE191E09093F102809376
:101F3000F00280E480935D0310925B038093A8031A
:101F40001092A6038093F3031092F1038EE0809326
:101F50003F0460E00E94F209C1E0C093400461E0E8
:101F600080913F040E94A509109241048091400491
:101F7000811102C0C09341041092330310923203C6
:101F8000109235031092340381E0809336038091E0
:101F900020038C3020F08FEF8093380313C091E042
:101FA000980F909320038093380390E0FC01EE0F8C
:101FB000FF1F8E0F9F1FFC01E450FD4F88EB9BE03D
:101FC0009283818310924D0310924C0310924F0321
:101FD00010924E0381E080935003809120038C3057
:101FE00020F08FEF8093520313C091E0980F9093ED
:101FF00020038093520390E0FC01EE0FFF1F8E0F31
:102000009F1FFC01E450FD4F88EB9BE0928381838E
:10201000CF910895FC0188279927E89421912032D7
:10202000E9F3293010F02E30C8F32B3241F02D3275
:1020300039F4689404C00E942810820F911D2191E8
:1020400020532A30C0F31EF4909581959F4F089538
:102050007AE0979F902D879F802D910D11240895F0
:102060000E94721008F481E00895E89409C097FB7B
:102070003EF490958095709561957F4F8F4F9F4F5F
:102080009923A9F0F92F96E9BB279395F6958795A3
:1020900077956795B795F111F8CFFAF4BB0F11F466
:1020A00060FF1BC06F5F7F4F8F4F9F4F16C088230D
:1020B00011F096E911C0772321F09EE8872F762F43
:1020C00005C0662371F096E8862F70E060E02AF084
:1020D0009A95660F771F881FDAF7880F9695879570
:1020E00097F90895990F0008550FAA0BE0E8FEEF45
:1020F00016161706E807F907C0F012161306E407CC
:10210000F50798F0621B730B840B950B39F40A26C4
:1021100061F0232B242B252B21F408950A2609F4A2
:10212000A140A6958FEF811D811D08950E94A910E1
:102130000C941A110E940C1138F00E94131120F017
:10214000952311F00C9403110C94091111240C9493
:102150004E110E942B1170F3959FC1F3950F50E023
:10216000551F629FF001729FBB27F00DB11D639F49
:10217000AA27F00DB11DAA1F649F6627B00DA11DEF
:10218000661F829F2227B00DA11D621F739FB00D95
:10219000A11D621F839FA00D611D221F749F332705
:1021A000A00D611D231F849F600D211D822F762F9E
:1021B0006A2F11249F5750409AF0F1F088234AF07B
:1021C000EE0FFF1FBB1F661F771F881F91505040E7
:1021D000A9F79E3F510580F00C9403110C944E1109
:1021E0005F3FE4F3983ED4F3869577956795B7956E
:1021F000F795E7959F5FC1F7FE2B880F911D969588
:10220000879597F9089597F99F6780E870E060E0F7
:1022100008959FEF80EC089500240A94161617067F
:1022200018060906089500240A94121613061406C7
:1022300005060895092E0394000C11F4882352F02A
:10224000BB0F40F4BF2B11F460FF04C06F5F7F4FE2
:102250008F4F9F4F089557FD9058440F551F59F0C9
:102260005F3F71F04795880F97FB991F61F09F3F83
:1022700079F087950895121613061406551FF2CFAC
:102280004695F1DF08C0161617061806991FF1CFFC
:1022900086957105610508940895E894BB27662723
:1022A0007727CB0197F90895052E97FB1EF400942C
:1022B0000E946B1157FD07D00E947E1107FC03D0CE
:1022C0004EF40C946B1150954095309521953F4FED
:1022D0004F4F5F4F089590958095709561957F4F12
:1022E0008F4F9F4F08950E94A011A59F900DB49FFE
:1022F000900DA49F800D911D11240895A1E21A2E26
:10230000AA1BBB1BFD010DC0AA1FBB1FEE1FFF1F99
:10231000A217B307E407F50720F0A21BB30BE40BE9
:10232000F50B661F771F881F991F1A9469F7609530
:102330007095809590959B01AC01BD01CF010895EA
:10234000A29FB001B39FC001A39F700D811D1124F6
:10235000911DB29F700D811D1124911D0895DB0107
:102360008F939F930E947311BF91AF91A29F800D95
:10237000911DA39F900DB29F900D11240895991B5C
:1023800079E004C0991F961708F0961B881F7A956C
:10239000C9F780950895EE0FFF1F0590F491E02D89
:1023A00009945058BB27AA270E94E9110C941A11CE
:1023B0000E940C1138F00E94131120F039F49F3F55
:1023C00019F426F40C9409110EF4E095E7FB0C9433
:1023D0000311E92F0E942B1158F3BA1762077307F4
:1023E0008407950720F079F4A6F50C944D110EF4AE
:1023F000E0950B2EBA2FA02D0B01B90190010C0115
:10240000CA01A0011124FF27591B99F0593F50F42C
:10241000503E68F11A16F040A22F232F342F442784
:10242000585FF3CF469537952795A795F04053957C
:10243000C9F77EF41F16BA0B620B730B840BBAF04C
:102440009150A1F0FF0FBB1F661F771F881FC2F7B7
:102450000EC0BA0F621F731F841F48F487957795CB
:102460006795B795F7959E3F08F0B0CF9395880F85
:1024700008F09927EE0F9795879508950E944512C9
:102480006894B1110C944E1108950E94331188F094
:102490009F5798F0B92F9927B751B0F0E1F0660F28
:1024A000771F881F991F1AF0BA95C9F714C0B13069
:1024B00091F00E944D11B1E008950C944D11672FD9
:1024C000782F8827B85F39F0B93FCCF38695779598
:1024D0006795B395D9F73EF4909580957095619581
:1024E0007F4F8F4F9F4F08950E94721008F48FEF17
:1024F00008950E947210880B990B089581E090E076
:0A250000F8940C948312F894FFCFB6
:10250A0001FFFF01FFFF00000000AA0765078F0710
:10251A00F707A90087009B00000000004C011F017B
:10252A007C01F30017010301F4004932432065726C
:10253A00726F723A20000D0A00526F626F7420693E
:10254A006E7469616C697A696E672E2E2E2E00444C
:10255A006F6E65004D6573736167652072656365AB
:10256A0069766564006A6F696E74496E6465783A63
:10257A002000616E676C653A20006E616E00696EBC
:06258A0066006F7666009A
:00000001FF
