:100000000C945D000C9485000C9485000C94850084
:100010000C9485000C9485000C9485000C9485004C
:100020000C9485000C9485000C9485000C94E902D6
:100030000C9485000C946B060C9485000C94850040
:100040000C94B2090C9485000C946A070C94440734
:100050000C9485000C9485000C9485000C9485000C
:100060000C94BB010C9485000000000024002700C4
:100070002A0000000000250028002B0004040404CE
:100080000404040402020202020203030303030342
:10009000010204081020408001020408102001021F
:1000A00004081020000000080002010000030407FB
:1000B0000000000000000000DA0C11241FBECFEF8A
:1000C000D8E0DEBFCDBF11E0A0E0B1E0E8E7FFE19E
:1000D00002C005900D92A835B107D9F723E0A8E535
:1000E000B1E001C01D92AC3FB207E1F710E0CDE5F1
:1000F000D0E004C02197FE010E94020FCC35D10749
:10010000C9F70E94FC090C94BA0F0C940000FC0182
:10011000918D828D981761F0828DDF01A80FB11D3E
:100120005D968C91928D9F5F9F73928F90E0089562
:100130008FEF9FEF0895FC01918D828D981731F01C
:10014000828DE80FF11D858D90E008958FEF9FEF70
:100150000895FC01918D228D892F90E0805C9F4F46
:10016000821B91098F739927089580E090E0892B75
:1001700029F00E94C90681110C940000089585EDB4
:100180008093BC008091BC0084FDFCCF1092F801EC
:10019000089540917D01262F30E0240F311D21323A
:1001A0003105DCF42091F8012430C9F4FC0180E031
:1001B00090E0861758F430917D012191DC01A55A19
:1001C000BE4FA30FB11D2C930196F3CF80917D01FB
:1001D000680F60937D0180E0089581E0089582E0DA
:1001E0000895089508950895E0915A018091590164
:1001F000E81730F4F0E0EE54FE4F808190E008956F
:100200008FEF9FEF089590915A01809159019817AF
:1002100050F4E92FF0E0EE54FE4F208130E09F5F74
:1002200090935A0102C02FEF3FEFC90108958091CA
:10023000590190E020915A01821B91090895CF92B3
:10024000DF92EF92FF920F931F93CF93DF937C0186
:10025000CB018A012091F901222389F0EB016B0186
:10026000C40ED51ECC15DD0569F06991D701ED915D
:10027000FC910190F081E02DC7010995F3CF642F27
:100280000E94C900C801DF91CF911F910F91FF908B
:10029000EF90DF90CF900895CF93DF931F92CDB76B
:1002A000DEB769832091F9012223D1F020911C024D
:1002B000203240F021E030E0FC013383228380E0F3
:1002C00090E015C08091FA01E82FF0E0E550FE4F74
:1002D000998190838F5F8093FA0180931C0205C0FF
:1002E00061E0CE0101960E94C90081E090E00F908C
:1002F000DF91CF910895089580E090E00895CF9325
:10030000C42FFC01828191E09093F90180931B023C
:100310001092FA0110921C028AEB92E00E944C01AA
:100320006C2F8AEB92E00E944C0181E0CF910C94FB
:100330009C07FC01848DDF01A80FB11DA35ABF4F9C
:100340002C91848D90E001968F739927848FA689D4
:10035000B7892C93A089B1898C91837080648C9328
:10036000938D848D981306C00288F389E02D8081D7
:100370008F7D808308951F920F920FB60F921124E4
:100380002F933F934F935F936F937F938F939F939D
:10039000AF93BF93EF93FF938091B900887F80362E
:1003A00009F49CC068F5883209F45BC090F4803190
:1003B00009F454C038F4882309F4F6C0883009F4ED
:1003C0004DC0F6C0883109F44CC0803209F45DC0DC
:1003D000EFC0803409F468C048F4803309F455C094
:1003E000883309F0E5C08093F601D8C0803509F460
:1003F0004FC0883509F45DC0883409F0D9C0D6C033
:10040000883909F4C7C0A8F4883709F467C038F4FC
:10041000883609F463C0803709F460C0C9C08838E1
:1004200009F4B8C0803909F45FC0803809F0C0C051
:100430005BC0803B09F486C038F4803A09F466C09A
:10044000883A09F47FC0B4C0803C09F4A7C0883C56
:1004500009F4A4C0883B09F48AC0AAC08091D301E2
:1004600010C09091F5018091F401981770F5E0911A
:10047000F50181E08E0F8093F501F0E0EC52FE4F24
:1004800080818093BB0085EC86C08093F6018EC08E
:10049000E091F50181E08E0F8093F5018091BB0022
:1004A000F0E0EC52FE4F80839091F5018091F401D1
:1004B0006EC0E091F50181E08E0F8093F50180918F
:1004C000BB00F0E0EC52FE4F80838091F701811178
:1004D0006DC081E08093D20184EA61C083E08093A3
:1004E000F8011092A101CFCF8091A101803208F0D4
:1004F00051C0E091A10181E08E0F8093A101809114
:10050000BB00F0E0EF57FE4F8083BDCF85EC8093BA
:10051000BC001092F8018091A101803230F4E0918A
:10052000A101F0E0EF57FE4F10826091A10170E051
:10053000E0917F01F091800181E891E009951092AE
:10054000A10136C084E08093F80110927E011092E0
:100550007D01E0917B01F0917C01099580917D0105
:10056000811105C081E080937D0110925B01E091D3
:100570007E0181E08E0F80937E01F0E0E55AFE4F10
:1005800080818093BB0090917E0180917D019817BE
:1005900008F479CF85E88093BC000AC085EC80938D
:1005A000BC001092F80104C01092F6010E94BF0036
:1005B000FF91EF91BF91AF919F918F917F916F913B
:1005C0005F914F913F912F910F900FBE0F901F9011
:1005D00018951F920F920FB60F9211242F933F93ED
:1005E0004F935F936F937F938F939F93AF93BF933B
:1005F000EF93FF938091580187FF05C0109285000B
:10060000109284001BC020915801022E000C330B65
:100610008091EA0290E02817390784F4809158010C
:10062000082E000C990BFC01EE0FFF1F8E0F9F1F71
:10063000FC01EA53FD4F808186FD15C08091580171
:100640008F5F8093580120915801022E000C330BCC
:100650008091EA0290E028173907C4F4809158018C
:100660008C3064F113C080915801082E000C990B56
:10067000FC01EE0FFF1F8E0F9F1FFC01EA53FD4F81
:10068000808160E08F730E948D08D8CF80918400B4
:1006900090918500049680349C4918F480E49CE98C
:1006A00005C0809184009091850004969093890004
:1006B000809388008FEF809358013BC02091840085
:1006C0003091850080915801082E000C990BFC0197
:1006D000EE0FFF1F8E0F9F1FFC01EA53FD4F81811C
:1006E0009281820F931F909389008093880080915C
:1006F0005801082E000C990BFC01EE0FFF1F8E0F06
:100700009F1FFC01EA53FD4F808186FF12C080913C
:100710005801082E000C990BFC01EE0FFF1F8E0FE5
:100720009F1FFC01EA53FD4F808161E08F730E949F
:100730008D08FF91EF91BF91AF919F918F917F9124
:100740006F915F914F913F912F910F900FBE0F903E
:100750001F9018950F931F93CF93DF938C01FC018B
:10076000828191E09093F90180931B021092FA012B
:1007700010921C028AEB92E00E944C0180E00E94E1
:100780009C07C82F882379F084E291E00E943A0800
:100790006C2F70E080E090E04AE00E944C0880E31B
:1007A00091E00E943A0862E0F80182810E94F80715
:1007B00010925A01809359018AEB92E00E94030142
:1007C000EC018AEB92E00E940301DD2796E0CC0F5A
:1007D000DD1F9A95E1F78F739E01280F311DC90126
:1007E000DF91CF911F910F9108950F931F93CF9396
:1007F000DF93EC0140E066E10E947F0140E067E1A9
:10080000CE010E947F016EEFCE010E94AA038C01EF
:10081000AC0186E0569547958A95E1F766E1CE01F1
:100820000E947F01402F4F7367E1CE01DF91CF918E
:100830001F910F910C947F011F93CF93DF93EC01D5
:1008400011E0188319821E821F821886198666E1BC
:100850000E94AA039D838C838A811093F90180935F
:100860001B021092FA0110921C0265E18AEB92E0E1
:100870000E944C0180E00E949C07182F882379F089
:1008800084E291E00E943A08612F70E080E090E0FD
:100890004AE00E944C0880E391E00E943A0861E03F
:1008A0008A810E94F80710925A01809359018AEBBD
:1008B00092E00E9403018B831A861B861C861D868C
:1008C0001B8E1A8E8BEA9AEAAAEABEE38E8B9F8B66
:1008D000A88FB98FDF91CF911F9108954F925F92AA
:1008E0006F927F928F929F92AF92BF92CF92DF9240
:1008F000EF92FF921F93CF93DF93CDB7DEB7CB5428
:10090000D1090FB6F894DEBF0FBECDBFEDE1F2E026
:10091000A089B18982E08C93A485B5851C92A685B7
:10092000B7858FEC8C93108EA489B58986E08C9363
:10093000A289B3898C9180618C93A289B3898C91AF
:1009400088608C93A289B3898C9180688C9302888B
:10095000F389E02D80818F7D808310925A0110925F
:1009600059011092FA0110921C021092F80181E0D4
:100970008093F7011092D20161E082E10E948D081C
:1009800061E083E10E948D08E9EBF0E080818E7FD9
:10099000808380818D7F808388E48093B80085E4A4
:1009A0008093BC0081EF90E090937C0180937B0169
:1009B00082EF90E09093800180937F0110E419878B
:1009C0001F8285E090E09A83898384E090E09C8395
:1009D0008B8383E090E09E838D8361E085E00E94BD
:1009E000DA0861E08B810E94DA0861E08D810E9463
:1009F000DA081F821987CE0107960E941C04CE01D7
:100A000007960E94F50380E090E0AAE2B3E48FA38A
:100A100098A7A9A7BAA78DECC82E8CECD82EED2CE0
:100A20008DE3F82ECBA6DCA6EDA6FEA680E090E036
:100A3000AAEAB2E48FA798ABA9ABBAAB412C512C70
:100A400090E4692E91E4792E4BAA5CAA6DAA7EAA45
:100A5000CFAAD8AEE9AEFAAE812C912C20ECA22E12
:100A600020E4B22E8BAE9CAEADAEBEAE2C961FAEC9
:100A70002C978BE4FE013196A3E1B3E001900D9237
:100A80008A95E1F719871F8288E090E09A8389832D
:100A900087E090E09C838B8386E090E09E838D834B
:100AA00061E088E00E94DA0861E08B810E94DA0848
:100AB00061E08D810E94DA081F8281E48987CE017E
:100AC00007960E941C04CE0107960E94F50340E0A1
:100AD00050E066E173E44FA358A769A77AA7CBA6B5
:100AE000DCA6EDA6FEA680E090E0ACE8B2E48FA71D
:100AF00098ABA9ABBAAB4BAB5CAB6DAB7EABCFAA43
:100B0000D8AEE9AEFAAE8BAF9CAFADAFBEAF2C9610
:100B10001FAE2C978BE4FE013196AEE5B3E0019059
:100B20000D928A95E1F719871F828CE090E09A83F5
:100B300089838DE090E09C838B838BE090E09E83A3
:100B40008D8361E08CE00E94DA0861E08B810E9475
:100B5000DA0861E08D810E94DA081F8282E48987C9
:100B6000CE0107960E941C04CE0107960E94F50351
:100B70004FA258A669A67AA6CBA6DCA6EDA6FEA62D
:100B80008FA698AAA9AABAAA80E090E0AAE2B3E444
:100B90008BAB9CABADABBEABCFAAD8AEE9AEFAAED9
:100BA00080E090E0AAEAB2E48BAF9CAFADAFBEAFFD
:100BB0002C961FAE2C978BE4FE013196A9EAB3E088
:100BC00001900D928A95E1F780E090E0A0EAB1E40F
:100BD0008093350390933603A0933703B093380383
:100BE0001092550310925603109257031092580317
:100BF0001092510310925203109253031092540317
:100C00008093800390938103A0938203B093830326
:100C10001092A0031092A1031092A2031092A303BA
:100C200010929C0310929D0310929E0310929F03BA
:100C300080E090E0ACE5B2EC8093CB039093CC03E2
:100C4000A093CD03B093CE031092EB031092EC036C
:100C50001092ED031092EE031092E7031092E80356
:100C60001092E9031092EA0341E069E070E0CE01DE
:100C700001960E94160984E1FE013196ABEEB2E0C6
:100C800001900D928A95E1F740E06AE070E0CE01B4
:100C900001960E94160984E1FE013196AFEFB2E0A1
:100CA00001900D928A95E1F7C55BDF4F0FB6F8947E
:100CB000DEBF0FBECDBFDF91CF911F91FF90EF90B0
:100CC000DF90CF90BF90AF909F908F907F906F906C
:100CD0005F904F9008951F920F920FB60F921124BC
:100CE0002F933F934F935F936F937F938F939F9334
:100CF000AF93BF93EF93FF93E0E0F0E00995FF918E
:100D0000EF91BF91AF919F918F917F916F915F9183
:100D10004F913F912F910F900FBE0F901F901895FC
:100D2000CF92DF92EF92FF920F931F93CF93DF93B7
:100D30006C017A018B01C0E0D0E0CE15DF0581F0B7
:100D4000D8016D918D01D601ED91FC910190F0815A
:100D5000E02DC6010995892B11F02196EECF7E0179
:100D6000C701DF91CF911F910F91FF90EF90DF901E
:100D7000CF900895FC01538D448D252F30E0842FB2
:100D800090E0821B930B541710F0CF9608950197B3
:100D900008958DE192E00E94A90021E0892B09F4D9
:100DA00020E0822F08950E94B50FEF92FF920F93DB
:100DB0001F93CF93DF93EC0181E0888F9B8D8C8D07
:100DC000981305C0E889F989808185FD26C0F62E33
:100DD0000B8D10E00F5F1F4F0F731127E02E8C8DCE
:100DE000E8120CC00FB607FCFACFE889F9898081B8
:100DF00085FFF5CFCE010E949901F1CF8B8DFE01C9
:100E0000E80FF11DE35AFF4FF0829FB7F8940B8F64
:100E1000EA89FB89808180620AC09FB7F894EE89D5
:100E2000FF896083E889F989808183708064808389
:100E30009FBF81E090E0DF91CF911F910F91FF90D4
:100E4000EF900895CF93DF93EC01888D8823C9F04C
:100E5000EA89FB89808185FD05C0A889B9898C91C3
:100E600086FD0FC00FB607FCF5CF808185FFF2CF5E
:100E7000A889B9898C9185FFEDCFCE010E94990197
:100E8000E7CFDF91CF9108951F920F920FB60F9287
:100E900011242F933F934F935F936F937F938F937F
:100EA0009F93AF93BF93EF93FF938DE192E00E94E6
:100EB0009901FF91EF91BF91AF919F918F917F9198
:100EC0006F915F914F913F912F910F900FBE0F90B7
:100ED0001F9018951F920F920FB60F9211242F9307
:100EE0008F939F93EF93FF93E0912D02F0912E0249
:100EF0008081E0913302F091340282FD12C0908132
:100F0000809136028F5F8F7320913702821751F0E4
:100F1000E0913602F0E0E35EFD4F958F809336025C
:100F200001C08081FF91EF919F918F912F910F9040
:100F30000FBE0F901F901895282F30911C02313250
:100F400008F04AC08091F8018111FCCF90911B02FA
:100F500042E04093F8012093F7012FEF2093F60130
:100F60001092F5013093F401EBEFF1E0A4EDB1E064
:100F700020E0321721F041914D932F5FFACF10926C
:100F8000D3012091D301990F922B9093D30190918B
:100F9000D201913061F41092D2019091D3019093DB
:100FA000BB009091BC0093FDF8CF95EC01C095EE8D
:100FB0009093BC009091F8019230E1F39091F6018A
:100FC0009F3F79F08091F601803241F08091F601E7
:100FD000803331F084E005C081E003C082E001C0CD
:100FE00083E01092FA0110921C021092F901089508
:100FF0009091F8019111FCCF91E09093F8019093BA
:10100000F7012FEF2093F6011092F501260F2093A0
:10101000F4019093D3019091D301880F892B809391
:10102000D3018091D201813061F41092D20180917C
:10103000D3018093BB008091BC0083FDF8CF85EC89
:1010400001C085EE8093BC008091F8018130E1F30E
:101050008091F501861710F46091F501A4EDB1E0DF
:10106000E2EBF1E080E0861721F09D9191938F5F94
:10107000FACF0895009769F0FC0101900020E9F78C
:101080003197AF01481B590BBC018DE192E00C94E4
:10109000900680E090E008958F929F92AF92BF9269
:1010A0000F931F93CF93DF93CDB7DEB7A1970FB602
:1010B000F894DEBF0FBECDBF19A2423008F44AE05B
:1010C0008E010F5D1F4F842E912CA12CB12CA501F8
:1010D00094010E94D40EE62FB901CA0101501109F2
:1010E000EA3014F4E05D01C0E95CD801EC93232BF5
:1010F000242B252B61F7C8010E943A08A1960FB650
:10110000F894DEBF0FBECDBFDF91CF911F910F913D
:10111000BF90AF909F908F90089590E0FC01EC55A8
:10112000FF4F2491FC01E057FF4F3491FC01E4583C
:10113000FF4FE491EE2309F43CC0222339F1233020
:1011400091F038F42130A9F0223001F584B58F7D7B
:1011500012C0273091F02830A1F02430B9F48091EA
:1011600080008F7D03C0809180008F778093800006
:101170000DC084B58F7784BD09C08091B0008F7792
:1011800003C08091B0008F7D8093B000F0E0EE0F3F
:10119000FF1FEE58FF4FA591B4919FB7F8946111CE
:1011A00004C08C913095382302C0EC913E2B3C93C7
:1011B0009FBF0895CF93DF9390E0FC01E057FF4F6E
:1011C0002491FC01E458FF4F8491882361F190E061
:1011D000880F991FFC01E859FF4FC591D491FC017C
:1011E000EE58FF4FA591B491611109C09FB7F894D3
:1011F0008881209582238883EC912E230BC0623056
:1012000061F49FB7F8948881322F309583238883C7
:10121000EC912E2B2C939FBF06C08FB7F894E881DA
:101220002E2B28838FBFDF91CF9108951F93CF93EB
:10123000DF93FC012091EA022C30A8F481E0820FB8
:101240008093EA02218B30E0D901AA0FBB1F2A0F3D
:101250003B1FD901AA53BD4F88EB9BE012969C938C
:101260008E93119702C08FEF818B8CED95E097875D
:101270008687442379F081E09FEF978386838FEF01
:1012800090E09187808780ED97E09387828788EE52
:1012900093E00EC08FEF90E09783868381E09FEF0D
:1012A0009187808788EE93E09387828780ED97E02F
:1012B0009587848781898C3008F050C0162FEF0104
:1012C00061E0812F0E94DA088989E82FF0E09F0110
:1012D000220F331FE20FF31FEA53FD4F1F7360818C
:1012E000607C162B10831A8A1B8A6CE00E94F60E13
:1012F0009CE0899FB001112440E050E09B01240F45
:10130000351FF901EE0FFF1F2E0F3F1FF901EA53A2
:10131000FD4F908196FD16C04F5F5F4F4C305105D9
:1013200069F781110FC01092800082E080938100E4
:101330001092850010928400B19A80916F008260B3
:1013400080936F00E989F0E0CF01880F991FE80FC3
:10135000F91FEA53FD4F808180648083DF91CF9134
:101360001F9108951F920F920FB60F9211242F9381
:101370003F938F939F93AF93BF938091AE019091D2
:10138000AF01A091B001B091B1013091F80323E019
:10139000230F2D3720F40196A11DB11D05C026E8AD
:1013A000230F0296A11DB11D2093F8038093AE0177
:1013B0009093AF01A093B001B093B1018091F40379
:1013C0009091F503A091F603B091F7030196A11D4A
:1013D000B11D8093F4039093F503A093F603B093AB
:1013E000F703BF91AF919F918F913F912F910F90F4
:1013F0000FBE0F901F901895789484B5826084BDBD
:1014000084B5816084BD85B5826085BD85B5816008
:1014100085BD80916E00816080936E001092810086
:101420008091810082608093810080918100816041
:101430008093810080918000816080938000809102
:10144000B10084608093B1008091B000816080938E
:10145000B00080917A00846080937A0080917A0055
:10146000826080937A0080917A00816080937A0014
:1014700080917A00806880937A001092C1000E9467
:101480006E043EEA232E31E0332E8DE192E00E947D
:10149000A900181619060CF05CC083E391E00E94C5
:1014A0003A0880E391E00E943A0825EAE22E21E022
:1014B000F22EE7012FB7F8948091AE019091AF0121
:1014C000A091B001B091B1012FBF809325029093FC
:1014D0002602A0932702B09328028DE192E00E9499
:1014E000870097FF5DC22FB7F8948091AE0190916D
:1014F000AF01A091B001B091B1012FBF4091250281
:10150000509126026091270270912802841B950B4E
:10151000A60BB70B40912102509122026091230249
:101520007091240284179507A607B707B0F200E070
:1015300010E080E090E0F70121917F01FC01EE5581
:10154000FE4F2083823091054CF401962E143F0407
:1015500091F7C3E1D3E001E513E02AC0043011059F
:10156000ACF782EA91E00E948A0DFBE4F09FE00173
:10157000F19FD00D1124CD5EDC4FBC01990F880B7B
:10158000990B0E94B70D6AA37BA38CA39DA3FE01B8
:10159000EE5BFF4F1082118212821382EE96188248
:1015A00019821A821B820F5F1F4F80E090E0CECF1E
:1015B000CE0106962F816EEF222339F00E94AA03F6
:1015C0006FEF7FE3681B790B03C00E94AA03BC0185
:1015D00080E090E00E94B50D6C877D878E879F87A5
:1015E00020E030E040E858E30E94160E20E030E0B2
:1015F00044EB53E40E94160E6B017C01F8018485D4
:10160000882309F4A6C084E491E00E943A08A70167
:101610009601C701B6010E94B00F882319F08CE42F
:1016200091E01AC046015701E894B7F82FEF3FEF59
:101630004FE75FE7C501B4010E94B00F81110FC0F1
:101640002FEF3FEF4FE75FE7C501B4010E94B00DF8
:1016500018162CF480E591E00E943A0876C02FEF2E
:101660003FEF4FE75FE4C701B6010E94AB0F1816CA
:101670001CF484E591E0F0CF2FEF3FEF4FE75FECF4
:10168000C701B6010E94B00D87FDF3CF20E030E026
:10169000A901C701B6010E94B00D87FF09C06DE224
:1016A0008DE192E00E94D506C701B601905802C0B4
:1016B000C701B6012AE037ED43EA5BE30E94090F58
:1016C0002B013C010E947C0F4B015C010E94B50D77
:1016D0009B01AC01C301B2010E94080F2B013C0128
:1016E0004AE0C501B4010E944C086EE28DE192E02F
:1016F0000E94D50620E030E040E251E4C301B2018F
:101700000E94160E2B013C010E947C0F4B01A12C64
:10171000B12C4AE0C501B4010E944C08C501B401D6
:101720000E94B50D9B01AC01C301B2010E94080FDC
:1017300020E030E040E251E40E94160E0E947C0F4F
:1017400080E090E04AE00E944C0880E391E00E9433
:101750003A0820E030E0A901C701B6010E94AB0FB2
:1017600087FD14C020E030E846EB53E4C701B60122
:101770000E94B00D181654F0F801C086D186E2869A
:10178000F3867C2D6D2D9E2D8F2D05C0F801708563
:10179000618592858385272F362F492F582F6AA17F
:1017A0007BA18CA19DA10E94080F6B017C010E946E
:1017B000750F9B0177FF04C022273327261B370BA9
:1017C000253B310554F020E030E044EB53E4C70101
:1017D000B6010E94090F6B017C01F8012081318163
:1017E00042815381C701B6010E94090F4B015C0180
:1017F000F80160837183828393832EA13FA148A562
:1018000059A5C701B6010E94160E2B013C012AA55D
:101810003BA54CA55DA5C501B4010E94160E9B0118
:10182000AC01C301B2010E94090F4B015C01F80138
:101830002481358146815781C701B6010E94080F76
:101840002EA53FA548A959A90E94160E9B01AC01DF
:10185000C501B4010E94090F0E94750F5B01072E9C
:10186000000C880B990B0E94B70D2B013C0120E066
:1018700030E845E653EC0E94B00D87FD0DC020E036
:1018800030E845E653E4C301B2010E94AB0F1816DD
:101890006CF0B7FE0EC004C09BE1A92EBB24BA9425
:1018A00061E088810E948D0860E008C085EEA82E66
:1018B000B12C60E088810E948D0861E08A810E94DD
:1018C0008D08B7FE03C0B194A194B1088C809D80AF
:1018D00061E0882D0E94DA08A114B10409F449C01E
:1018E000FFEFAF16B10409F446C0F401FF27EC5531
:1018F000FF4FE491E330F9F048F4E130B9F0E23021
:10190000A1F584B5806284BDA8BC39C0E730E9F098
:10191000E83019F1E43049F58091800080628093CD
:101920008000B0928B00A0928A0029C084B58068A4
:1019300084BDA7BC24C08091800080688093800013
:10194000B0928900A09288001AC08091B00080688F
:101950008093B000A092B30012C08091B00080626A
:101960008093B000A092B4000AC020E8A216B1048F
:1019700014F460E001C061E0882D0E948D08F80138
:10198000C482D582E682F782C55BDF4F055B1F4FBD
:10199000F3E0C43FDF0709F00BCE0E94B50075CD20
:1019A0008A30910509F4C3CD89932C163D0609F0C0
:1019B00081CDBDCDCF931092200210921F0288EEF0
:1019C00093E0A0E0B0E08093210290932202A093E4
:1019D0002302B093240224E031E030931E022093CE
:1019E0001D0225EC30E030932A022093290224ECDA
:1019F00030E030932C0220932B0220EC30E0309327
:101A00002E0220932D0221EC30E0309330022093FF
:101A10002F0222EC30E0309332022093310226EC88
:101A200030E0309334022093330210923602109249
:101A3000370210923802109239021092BD021092B1
:101A4000BC028093BE029093BF02A093C002B093E9
:101A5000C10286E191E09093BB028093BA0280E4D8
:101A600080931B0310921903809366031092640302
:101A70008093B1031092AF038EE08093F90360E08E
:101A80000E94DA08C1E0C093FA0361E08091F90393
:101A90000E948D081092FB038091FA03811102C00D
:101AA000C093FB038091EA028C3020F08FEF80938B
:101AB000FC0213C091E0980F9093EA028093FC021D
:101AC00090E0FC01EE0FFF1F8E0F9F1FFC01EA53F9
:101AD000FD4F88EB9BE0928381838091EA028C30FA
:101AE00020F08FEF8093100313C091E0980F909334
:101AF000EA028093100390E0FC01EE0FFF1F8E0FAF
:101B00009F1FFC01EA53FD4F88EB9BE0928381838A
:101B1000CF910895FC0188279927E89421912032DC
:101B2000E9F3293010F02E30C8F32B3241F02D327A
:101B300039F4689404C00E94A80D820F911D219170
:101B400020532A30C0F31EF4909581959F4F08953D
:101B50007AE0979F902D879F802D910D11240895F5
:101B60000E94F20D08F481E00895E89409C097FB03
:101B70003EF490958095709561957F4F8F4F9F4F64
:101B80009923A9F0F92F96E9BB279395F6958795A8
:101B900077956795B795F111F8CFFAF4BB0F11F46B
:101BA00060FF1BC06F5F7F4F8F4F9F4F16C0882312
:101BB00011F096E911C0772321F09EE8872F762F48
:101BC00005C0662371F096E8862F70E060E02AF089
:101BD0009A95660F771F881FDAF7880F9695879575
:101BE00097F90895990F0008550FAA0BE0E8FEEF4A
:101BF00016161706E807F907C0F012161306E407D1
:101C0000F50798F0621B730B840B950B39F40A26C9
:101C100061F0232B242B252B21F408950A2609F4A7
:101C2000A140A6958FEF811D811D08950E94290E68
:101C30000C949A0E0E948C0E38F00E94930E20F0A5
:101C4000952311F00C94830E0C94890E11240C949E
:101C5000CE0E0E94AB0E70F3959FC1F3950F50E02E
:101C6000551F629FF001729FBB27F00DB11D639F4E
:101C7000AA27F00DB11DAA1F649F6627B00DA11DF4
:101C8000661F829F2227B00DA11D621F739FB00D9A
:101C9000A11D621F839FA00D611D221F749F33270A
:101CA000A00D611D231F849F600D211D822F762FA3
:101CB0006A2F11249F5750409AF0F1F088234AF080
:101CC000EE0FFF1FBB1F661F771F881F91505040EC
:101CD000A9F79E3F510580F00C94830E0C94CE0E14
:101CE0005F3FE4F3983ED4F3869577956795B79573
:101CF000F795E7959F5FC1F7FE2B880F911D96958D
:101D0000879597F9089597F99F6780E870E060E0FC
:101D100008959FEF80EC089500240A941616170684
:101D200018060906089500240A94121613061406CC
:101D300005060895092E0394000C11F4882352F02F
:101D4000BB0F40F4BF2B11F460FF04C06F5F7F4FE7
:101D50008F4F9F4F089557FD9058440F551F59F0CE
:101D60005F3F71F04795880F97FB991F61F09F3F88
:101D700079F087950895121613061406551FF2CFB1
:101D80004695F1DF08C0161617061806991FF1CF01
:101D900086957105610508940895E894BB27662728
:101DA0007727CB0197F90895A1E21A2EAA1BBB1B36
:101DB000FD010DC0AA1FBB1FEE1FFF1FA217B30717
:101DC000E407F50720F0A21BB30BE40BF50B661F2D
:101DD000771F881F991F1A9469F7609570958095F1
:101DE00090959B01AC01BD01CF010895991B79E04D
:101DF00004C0991F961708F0961B881F7A95C9F79B
:101E000080950895EE0FFF1F0590F491E02D099441
:101E10005058BB27AA270E94200F0C949A0E0E94AC
:101E20008C0E38F00E94930E20F039F49F3F19F485
:101E300026F40C94890E0EF4E095E7FB0C94830EC7
:101E4000E92F0E94AB0E58F3BA1762077307840795
:101E5000950720F079F4A6F50C94CD0E0EF4E095DC
:101E60000B2EBA2FA02D0B01B90190010C01CA0154
:101E7000A0011124FF27591B99F0593F50F4503EFF
:101E800068F11A16F040A22F232F342F4427585FF1
:101E9000F3CF469537952795A795F0405395C9F709
:101EA0007EF41F16BA0B620B730B840BBAF09150C1
:101EB000A1F0FF0FBB1F661F771F881FC2F70EC060
:101EC000BA0F621F731F841F48F487957795679533
:101ED000B795F7959E3F08F0B0CF9395880F08F01F
:101EE0009927EE0F9795879508950E947C0F689427
:101EF000B1110C94CE0E08950E94B30E88F09F5736
:101F000098F0B92F9927B751B0F0E1F0660F771F1D
:101F1000881F991F1AF0BA95C9F714C0B13091F013
:101F20000E94CD0EB1E008950C94CD0E672F782F4E
:101F30008827B85F39F0B93FCCF3869577956795D8
:101F4000B395D9F73EF490958095709561957F4F44
:101F50008F4F9F4F08950E94F20D08F48FEF089560
:101F60000E94F20D880B990B089581E090E0F8949F
:081F70000C94BA0FF894FFCFA6
:101F780000000000D5069006BA062207A9008700CF
:101F88009B00000000004C011F017C01F3001701B9
:101F98000301F400493243206572726F723A2000DF
:101FA8000D0A004D65737361676520726563656925
:101FB80076656400616E676C653A20006E616E003C
:081FC800696E66006F76660089
:00000001FF
