:100000000C945D000C9485000C9485000C94850084
:100010000C9485000C9485000C9485000C9485004C
:100020000C9485000C9485000C9485000C94EE03D0
:100030000C9485000C9473070C9485000C94850037
:100040000C94A90A0C9485000C9442080C941C088A
:100050000C9485000C9485000C9485000C9485000C
:100060000C94C0020C9485000000000024002700BE
:100070002A0000000000250028002B0004040404CE
:100080000404040402020202020203030303030342
:10009000010204081020408001020408102001021F
:1000A00004081020000000080002010000030407FB
:1000B00000000000000000001F0F11241FBECFEF42
:1000C000D8E0DEBFCDBF11E0A0E0B1E0E0ECF4E2AB
:1000D00002C005900D92A23AB107D9F724E0A2EA36
:1000E000B1E001C01D92AF35B207E1F710E0CDE5F8
:1000F000D0E004C02197FE010E94A611CC35D107A3
:10010000C9F70E94F30A0C945E120C940000FC01E3
:10011000538D448D252F30E0842F90E0821B930B6C
:10012000541710F0CF96089501970895FC01918D12
:10013000828D981761F0828DDF01A80FB11D5D9649
:100140008C91928D9F5F9F73928F90E008958FEFB7
:100150009FEF0895FC01918D828D981731F0828D6B
:10016000E80FF11D858D90E008958FEF9FEF0895C2
:10017000FC01918D228D892F90E0805C9F4F821B26
:1001800091098F739927089580E090E0892B29F0D9
:100190000E94100881110C940000089585ED809351
:1001A000BC008091BC0084FDFCCF10924B020895EE
:1001B0004091C701262F30E0240F311D2132310537
:1001C000DCF420914B022430C9F4FC0180E090E083
:1001D000861758F43091C7012191DC01AB55BE4F11
:1001E000A30FB11D2C930196F3CF8091C701680F27
:1001F0006093C70180E0089581E0089582E008954A
:10020000089508950895E091A4018091A301E8174D
:1002100030F4F0E0EB5FFD4F808190E008958FEFC8
:100220009FEF08959091A4018091A301981750F435
:10023000E92FF0E0EB5FFD4F208130E09F5F90936E
:10024000A40102C02FEF3FEFC90108958091A301DF
:1002500090E02091A401821B91090895CF92DF9232
:10026000EF92FF920F931F93CF93DF937C01CB010B
:100270008A0120914C02222389F0EB016B01C40E0C
:10028000D51ECC15DD0569F06991D701ED91FC9182
:100290000190F081E02DC7010995F3CF642F0E94F2
:1002A000D800C801DF91CF911F910F91FF90EF907F
:1002B000DF90CF900895CF93DF931F92CDB7DEB735
:1002C000698320914C022223D1F020916F022032C9
:1002D00040F021E030E0FC013383228380E090E0B5
:1002E00015C080914D02E82FF0E0E25BFD4F99814F
:1002F00090838F5F80934D0280936F0205C061E011
:10030000CE0101960E94D80081E090E00F90DF912D
:10031000CF910895089580E090E008957F928F92A4
:100320009F92AF92BF92CF92DF92EF92FF920F9384
:100330001F93CF93DF93EC017F888BE0871508F440
:1003400066C0CA84DB840D2C000CEE08FF088E808A
:100350009F80092C000CAA08BB082C853D85C9018B
:10036000330FAA0BBB0B9C01AD012C193D094E09A3
:100370005F09CB01770FAA0BBB0BBC01CD0168193C
:1003800079098A099B090E948A1128853985890182
:10039000330F220B330BA9019801281939094A0997
:1003A0005B090E942F11C20ED31EE41EF51E288D7C
:1003B00088E890E0821B910927FD9395880F991F8B
:1003C000880F991FC816D90684F0898D48E552E038
:1003D000481B510987FD5395440F551F440F551F66
:1003E000C6014C155D050CF4CA010297880F991FD0
:1003F0004FB7F894272D30E0F901EE0FFF1F2E0FB5
:100400003F1FF901E75EFC4F928381834FBFDF916D
:10041000CF911F910F91FF90EF90DF90CF90BF9001
:10042000AF909F908F907F900895CF93C42FFC0141
:10043000828191E090934C0280936E0210924D0263
:1004400010926F028DE093E00E945B016C2F8DE0B3
:1004500093E00E945B0181E0CF910C947408FC0151
:10046000848DDF01A80FB11DA35ABF4F2C91848D3D
:1004700090E001968F739927848FA689B7892C9372
:10048000A089B1898C91837080648C93938D848DC5
:10049000981306C00288F389E02D80818F7D8083C8
:1004A0000895EF92FF920F931F93CF93DF93EC0188
:1004B00081E0888F9B8D8C8D981305C0E889F98920
:1004C000808185FD26C0F62E0B8D10E00F5F1F4F3B
:1004D0000F731127E02E8C8DE8120CC00FB607FCAD
:1004E000FACFE889F989808185FFF5CFCE010E9496
:1004F0002F02F1CF8B8DFE01E80FF11DE35AFF4F64
:10050000F0829FB7F8940B8FEA89FB898081806223
:100510000AC09FB7F894EE89FF896083E889F9895A
:1005200080818370806480839FBF81E090E0DF9151
:10053000CF911F910F91FF90EF900895CF93DF938C
:10054000EC01888D8823C9F0EA89FB89808185FDCB
:1005500005C0A889B9898C9186FD0FC00FB607FC2C
:10056000F5CF808185FFF2CFA889B9898C9185FF6D
:10057000EDCFCE010E942F02E7CFDF91CF910895FA
:100580001F920F920FB60F9211242F933F934F9308
:100590005F936F937F938F939F93AF93BF93EF93EB
:1005A000FF938091B900887F803609F49CC068F57C
:1005B000883209F45BC090F4803109F454C038F4F7
:1005C000882309F4F6C0883009F44DC0F6C088319C
:1005D00009F44CC0803209F45DC0EFC0803409F4E6
:1005E00068C048F4803309F455C0883309F0E5C089
:1005F00080934902D8C0803509F44FC0883509F48A
:100600005DC0883409F0D9C0D6C0883909F4C7C0A4
:10061000A8F4883709F467C038F4883609F463C051
:10062000803709F460C0C9C0883809F4B8C080397F
:1006300009F45FC0803809F0C0C05BC0803B09F49A
:1006400086C038F4803A09F466C0883A09F47FC05D
:10065000B4C0803C09F4A7C0883C09F4A4C0883B1E
:1006600009F48AC0AAC08091260210C09091480265
:1006700080914702981770F5E091480281E08E0F53
:1006800080934802F0E0E95DFD4F80818093BB00DC
:1006900085EC86C0809349028EC0E091480281E0DB
:1006A0008E0F809348028091BB00F0E0E95DFD4F22
:1006B000808390914802809147026EC0E091480289
:1006C00081E08E0F809348028091BB00F0E0E95DED
:1006D000FD4F808380914A0281116DC081E080933B
:1006E000250284EA61C083E080934B021092EB0103
:1006F000CFCF8091EB01803208F051C0E091EB0147
:1007000081E08E0F8093EB018091BB00F0E0E55318
:10071000FE4F8083BDCF85EC8093BC0010924B02CE
:100720008091EB01803230F4E091EB01F0E0E55391
:10073000FE4F10826091EB0170E0E091C901F091F1
:10074000CA018BEC91E009951092EB0136C084E070
:1007500080934B021092C8011092C701E091C5012D
:10076000F091C60109958091C701811105C081E012
:100770008093C7011092A501E091C80181E08E0F1E
:100780008093C801F0E0EB55FE4F80818093BB0061
:100790009091C8018091C701981708F479CF85E836
:1007A0008093BC000AC085EC8093BC0010924B0281
:1007B00004C0109249020E94CE00FF91EF91BF91B8
:1007C000AF919F918F917F916F915F914F913F91E9
:1007D0002F910F900FBE0F901F9018951F920F92A0
:1007E0000FB60F9211242F933F934F935F936F9304
:1007F0007F938F939F93AF93BF93EF93FF938091DA
:10080000A20187FF05C010928500109284001BC0D2
:100810002091A201022E000C330B80913D0390E049
:100820002817390784F48091A201082E000C990B37
:10083000FC01EE0FFF1F8E0F9F1FFC01E75EFC4FB8
:10084000808186FD15C08091A2018F5F8093A201F7
:100850002091A201022E000C330B80913D0390E009
:1008600028173907C4F48091A2018C3064F113C0B9
:100870008091A201082E000C990BFC01EE0FFF1FC6
:100880008E0F9F1FFC01E75EFC4F808160E08F733D
:100890000E947309D8CF80918400909185000496BE
:1008A00080349C4918F480E49CE905C08091840060
:1008B00090918500049690938900809388008FEF33
:1008C0008093A2013BC020918400309185008091EB
:1008D000A201082E000C990BFC01EE0FFF1F8E0FDA
:1008E0009F1FFC01E75EFC4F81819281820F931F65
:1008F00090938900809388008091A201082E000CBB
:10090000990BFC01EE0FFF1F8E0F9F1FFC01E75E8E
:10091000FC4F808186FF12C08091A201082E000C3E
:10092000990BFC01EE0FFF1F8E0F9F1FFC01E75E6E
:10093000FC4F808161E08F730E947309FF91EF91FA
:10094000BF91AF919F918F917F916F915F914F91E7
:100950003F912F910F900FBE0F901F9018950F93FE
:100960001F93CF93DF938C01FC01828191E09093E0
:100970004C0280936E0210924D0210926F028DE035
:1009800093E00E945B0180E00E947408C82F8823D6
:1009900079F08AE291E00E9412096C2F70E080E009
:1009A00090E04AE00E94240986E391E00E94120947
:1009B00062E0F80182810E94D0081092A401809325
:1009C000A3018DE093E00E941201EC018DE093E021
:1009D0000E941201DD2796E0CC0FDD1F9A95E1F70A
:1009E0008F739E01280F311DC901DF91CF911F9197
:1009F0000F9108950F931F93CF93DF93EC0140E085
:100A000066E10E94150240E067E1CE010E941502F6
:100A10006EEFCE010E94AF048C01AC0186E05695CA
:100A200047958A95E1F766E1CE010E941502402FB5
:100A30004F7367E1CE01DF91CF911F910F910C941D
:100A400015021F93CF93DF93EC0111E018831982F5
:100A50001E821F821886198666E10E94AF049D835C
:100A60008C838A8110934C0280936E0210924D0207
:100A700010926F0265E18DE093E00E945B0180E0DF
:100A80000E947408182F882379F08AE291E00E946E
:100A90001209612F70E080E090E04AE00E94240992
:100AA00086E391E00E94120961E08A810E94D008E9
:100AB0001092A4018093A3018DE093E00E941201A3
:100AC0008B831A861B861C861D861B8E1A8E8BEACC
:100AD0009AEAAAEABEE38E8B9F8BA88FB98FDF912B
:100AE000CF911F9108954F925F926F927F928F9254
:100AF0009F92AF92BF92CF92DF92EF92FF921F939D
:100B0000CF93DF93CDB7DEB7CB54D1090FB6F894AE
:100B1000DEBF0FBECDBFE0E7F2E0A089B18982E081
:100B20008C93A485B5851C92A685B7858FEC8C9394
:100B3000108EA489B58986E08C93A289B3898C91A3
:100B400080618C93A289B3898C9188608C93A289EF
:100B5000B3898C9180688C930288F389E02D808121
:100B60008F7D80831092A4011092A30110924D02F8
:100B700010926F0210924B0281E080934A02109211
:100B8000250261E082E10E94730961E083E10E9435
:100B90007309E9EBF0E080818E7F808380818D7F17
:100BA000808388E48093B80085E48093BC0080E073
:100BB00091E09093C6018093C50181E091E090930C
:100BC000CA018093C90189E391E00E9465098AE026
:100BD0008093F00110E419871F8285E090E09A83EA
:100BE000898384E090E09C838B8383E090E09E8304
:100BF0008D8361E085E00E94C00961E08B810E94E5
:100C0000C00961E08D810E94C0091F821987CE0151
:100C100007960E942105CE0107960E94FA0480E003
:100C200090E0A8ECB2E48FA398A7A9A7BAA78DEC8F
:100C3000C82E8CECD82EED2C8DE3F82ECBA6DCA69E
:100C4000EDA6FEA680E090E0A8E4B2E48FA798AB02
:100C5000A9ABBAAB412C512C90E2692E91E4792ECC
:100C60004BAA5CAA6DAA7EAACFAAD8AEE9AEFAAE0C
:100C700080E090E0A0EAB0E48BAF9CAFADAFBEAF38
:100C80002C961FAE2C978BE4FE013196A2E7B3E0C1
:100C900001900D928A95E1F719871F8288E090E014
:100CA0009A83898387E090E09C838B8386E090E041
:100CB0009E838D8361E088E00E94C00961E08B81A2
:100CC0000E94C00961E08D810E94C0091F8281E4F9
:100CD0008987CE0107960E942105CE0107960E94C2
:100CE000FA0480E090E0A0EFB2E48FA398A7A9A750
:100CF000BAA7CBA6DCA6EDA6FEA6812C912C20E7F8
:100D0000A22E22E4B22E8FA698AAA9AABAAA8BABC9
:100D10009CABADABBEABCFAAD8AEE9AEFAAE8BAE54
:100D20009CAEADAEBEAE2C961FAE2C978BE4FE01F2
:100D30003196ADEBB3E001900D928A95E1F71987FA
:100D40001F828CE090E09A8389838DE090E09C8301
:100D50008B838BE090E09E838D8361E08CE00E942A
:100D6000C00961E08B810E94C00961E08D810E9411
:100D7000C0091F8282E48987CE0107960E9421055F
:100D8000CE0107960E94FA044FA258A669A67AA639
:100D9000CBA6DCA6EDA6FEA680E090E0A0EAB0E43B
:100DA0008FA798ABA9ABBAAB80E090E0A8ECB2E417
:100DB0008BAB9CABADABBEABCFAAD8AEE9AEFAAEB7
:100DC0008BAE9CAEADAEBEAE2C961FAE2C978BE418
:100DD000FE013196A8E0B4E001900D928A95E1F70A
:100DE0001092940310929503109296031092970319
:100DF0001092B4031092B5031092B6031092B70389
:100E00001092B0031092B1031092B2031092B30388
:100E10001092DF031092E0031092E1031092E203BC
:100E20001092FF0310920004109201041092020429
:100E30001092FB031092FC031092FD031092FE032C
:100E400010922A0410922B0410922C0410922D045C
:100E500010924A0410924B0410924C0410924D04CC
:100E600010924604109247041092480410924904CC
:100E700041E069E070E0CE0101960E94FC098AE140
:100E8000FE013196AEE3B3E001900D928A95E1F751
:100E900040E06AE070E0CE0101960E94FC098AE120
:100EA000FE013196A8E5B3E001900D928A95E1F735
:100EB0008FE491E00E946509C55BDF4F0FB6F8949F
:100EC000DEBF0FBECDBFDF91CF911F91FF90EF909E
:100ED000DF90CF90BF90AF909F908F907F906F905A
:100EE0005F904F9008951F920F920FB60F921124AA
:100EF0002F933F934F935F936F937F938F939F9322
:100F0000AF93BF93EF93FF93E0E0F0E00995FF917B
:100F1000EF91BF91AF919F918F917F916F915F9171
:100F20004F913F912F910F900FBE0F901F901895EA
:100F3000EF92FF920F931F93CF93DF93EC017B010E
:100F40008A018D89882329F00E949D0A7C8B6B8BF6
:100F50001D8A81E0E816F104D1F082E0E816F10480
:100F600031F1EF2821F50E949D0A2B893C89621BF3
:100F7000730B601771071CF46E817F8113C060E0F2
:100F800070E0CE010E948E0181E08D8B16C00E9420
:100F90009D0A2B893C89621B730B601771077CF7D4
:100FA00068857985CE010E948E011E8A07C060E0A7
:100FB00070E0CE010E948E0181E08E8B8E89DF91E0
:100FC000CF911F910F91FF90EF900895CF92DF92F4
:100FD000EF92FF920F931F93CF93DF936C017A01EF
:100FE0008B01C0E0D0E0CE15DF0581F0D8016D9116
:100FF0008D01D601ED91FC910190F081E02DC601AB
:101000000995892B11F02196EECF7E01C701DF9162
:10101000CF911F910F91FF90EF90DF90CF900895A7
:1010200080E792E00E94B80021E0892B09F420E0DB
:10103000822F08950E9459121F920F920FB60F929D
:1010400011242F933F934F935F936F937F938F93CD
:101050009F93AF93BF93EF93FF9380E792E00E943B
:101060002F02FF91EF91BF91AF919F918F917F914F
:101070006F915F914F913F912F910F900FBE0F9005
:101080001F9018951F920F920FB60F9211242F9355
:101090008F939F93EF93FF93E0918002F0918102F1
:1010A0008081E0918602F091870282FD12C09081DA
:1010B000809189028F5F8F7320918A02821751F08D
:1010C000E0918902F0E0E059FD4F958F809389020D
:1010D00001C08081FF91EF919F918F912F910F908F
:1010E0000FBE0F901F901895282F30916F0231324C
:1010F00008F04AC080914B028111FCCF90916E02A2
:1011000042E040934B0220934A022FEF2093490282
:101110001092480230934702EEE4F2E0A7E2B2E018
:1011200020E0321721F041914D932F5FFACF1092BA
:10113000260220912602990F922B909326029091DD
:101140002502913061F4109225029091260290932D
:10115000BB009091BC0093FDF8CF95EC01C095EEDB
:101160009093BC0090914B029230E1F39091490230
:101170009F3F79F080914902803241F0809149028D
:10118000803331F084E005C081E003C082E001C01B
:1011900083E010924D0210926F0210924C0208955B
:1011A00090914B029111FCCF91E090934B02909360
:1011B0004A022FEF2093490210924802260F2093F3
:1011C00047029093260290912602880F892B8093E4
:1011D000260280912502813061F4109225028091CF
:1011E00026028093BB008091BC0083FDF8CF85EC84
:1011F00001C085EE8093BC0080914B028130E1F309
:1012000080914802861710F460914802A7E2B2E08C
:10121000E5E0F2E080E0861721F09D9191938F5FE9
:10122000FACF0895009769F0FC0101900020E9F7DA
:101230003197AF01481B590BBC0180E792E00C9439
:10124000E60780E090E008958F929F92AF92BF9260
:101250000F931F93CF93DF93CDB7DEB7A1970FB650
:10126000F894DEBF0FBECDBF19A2423008F44AE0A9
:101270008E010F5D1F4F842E912CA12CB12CA50146
:1012800094010E945911E62FB901CA0101501109B8
:10129000EA3014F4E05D01C0E95CD801EC93232B43
:1012A000242B252B61F7C8010E941209A1960FB6C5
:1012B000F894DEBF0FBECDBFDF91CF911F910F918C
:1012C000BF90AF909F908F900895CF93DF930E942F
:1012D0001209EC0186E391E00E9412098C0F9D1F18
:1012E000DF91CF91089590E0FC01EC55FF4F2491E0
:1012F000FC01E057FF4F3491FC01E458FF4FE491AB
:10130000EE2309F43CC0222339F1233091F038F464
:101310002130A9F0223001F584B58F7D12C027302D
:1013200091F02830A1F02430B9F4809180008F7DB5
:1013300003C0809180008F77809380000DC084B5BA
:101340008F7784BD09C08091B0008F7703C08091F2
:10135000B0008F7D8093B000F0E0EE0FFF1FEE58DD
:10136000FF4FA591B4919FB7F894611104C08C917F
:101370003095382302C0EC913E2B3C939FBF0895DB
:10138000CF93DF9390E0FC01E057FF4F2491FC01E5
:10139000E458FF4F8491882361F190E0880F991FF2
:1013A000FC01E859FF4FC591D491FC01EE58FF4F65
:1013B000A591B491611109C09FB7F89488812095D7
:1013C00082238883EC912E230BC0623061F49FB797
:1013D000F8948881322F309583238883EC912E2BCB
:1013E0002C939FBF06C08FB7F894E8812E2B2883DB
:1013F0008FBFDF91CF9108951F93CF93DF93FC01AF
:10140000128A118A148A138A81E0858B20913D0308
:101410002C30A0F4820F80933D03278B30E0D9015C
:10142000AA0FBB1F2A0F3B1FD901A75EBC4F88EB39
:101430009BE012969C938E93119702C08FEF878B3F
:101440008CED95E097878687442379F081E09FEFC4
:10145000978386838FEF90E09187808780ED97E078
:101460009387828788EE93E00EC08FEF90E097839A
:10147000868381E09FEF9187808788EE93E0938752
:10148000828780ED97E09587848787898C3008F084
:1014900050C0162FEF0161E0812F0E94C0098F8993
:1014A000E82FF0E09F01220F331FE20FF31FE75EEA
:1014B000FC4F1F736081607C162B1083188E198E71
:1014C0006CE00E949A119CE0899FB001112440E0D9
:1014D00050E09B01240F351FF901EE0FFF1F2E0F67
:1014E0003F1FF901E75EFC4F908196FD16C04F5FEC
:1014F0005F4F4C30510569F781110FC01092800089
:1015000082E0809381001092850010928400B19A4D
:1015100080916F00826080936F00EF89F0E0CF01CF
:10152000880F991FE80FF91FE75EFC4F80818064E8
:101530008083DF91CF911F9108952FB7F894609128
:1015400058047091590480915A0490915B042FBF04
:1015500008951F920F920FB60F9211242F933F936D
:101560008F939F93AF93BF938091580490915904A8
:10157000A0915A04B0915B043091570423E0230FEB
:101580002D3720F40196A11DB11D05C026E8230FBB
:101590000296A11DB11D2093570480935804909387
:1015A0005904A0935A04B0935B0480915304909122
:1015B0005404A0915504B09156040196A11DB11D8B
:1015C0008093530490935404A0935504B09356040D
:1015D000BF91AF919F918F913F912F910F900FBE2F
:1015E0000F901F901895789484B5826084BD84B55F
:1015F000816084BD85B5826085BD85B5816085BD0E
:1016000080916E00816080936E00109281008091C5
:10161000810082608093810080918100816080934D
:101620008100809180008160809380008091B10072
:1016300084608093B1008091B00081608093B0009D
:1016400080917A00846080937A0080917A00826031
:1016500080937A0080917A00816080937A008091F3
:101660007A00806880937A001092C1000E9473050E
:1016700035E0232E32E0332E80E792E00E94B8005E
:10168000181619068CF0809103018111C2C1609176
:10169000F3017091F40148E052E58EE393E00E947B
:1016A000980780930301B5C184E591E00E94650924
:1016B00025EFE22E21E0F22EE7010E949D0A6093C1
:1016C00078027093790280937A0290937B0280E78C
:1016D00092E00E94960097FFA8C30E949D0A009185
:1016E00078021091790220917A0230917B02DC011C
:1016F000CB01801B910BA20BB30B009174021091D4
:101700007502209176023091770280179107A20727
:10171000B307E8F28091F5018D3219F0803309F0BA
:101720006BC100E010E080E090E0F70121917F01C3
:10173000FC01E451FE4F20838330910514F401969F
:1017400056C1033011050CF4F4C03091EE01832F23
:10175000032E000C990BC097409104015091050194
:101760008417950751F09093F4018093F3019093BF
:10177000050180930401109203012091EF01822F53
:10178000022E000C990BC09740910101509102016B
:101790008417950751F09093F2018093F101909393
:1017A00002018093010110920001321709F41DC15A
:1017B0008090980390909903A0909A03B0909B0317
:1017C00040919C0350919D0360919E0370919F03F3
:1017D0008091A0039091A103A091A203B091A303D3
:1017E0004090A4035090A5036090A6037090A703B7
:1017F000409298035092990360929A0370929B03CF
:101800004090A8035090A9036090AA037090AB0386
:1018100040929C0350929D0360929E0370929F039E
:101820004090AC035090AD036090AE037090AF0356
:101830004092A0035092A1036092A2037092A3036E
:101840008092A4039092A503A092A603B092A7034E
:101850004093A8035093A9036093AA037093AB032A
:101860008093AC039093AD03A093AE03B093AF030A
:1018700080902E0490902F04A0903004B0903104FA
:1018800040913204509133046091340470913504D6
:101890008091360490913704A0913804B0913904B6
:1018A00040903A0450903B0460903C0470903D049A
:1018B00040922E0450922F046092300470923104B2
:1018C00040903E0450903F0460904004709041046A
:1018D0004092320450923304609234047092350482
:1018E000409042045090430460904404709045043A
:1018F0004092360450923704609238047092390452
:1019000080923A0490923B04A0923C04B0923D0431
:1019100040933E0450933F0460934004709341040D
:101920008093420490934304A0934404B0934504ED
:101930005CC08091EC018D3241F46DE280E792E071
:101940000E945102CFEFDFEF02C0C1E0D0E0F0E330
:10195000F093EC018CEE91E00E94E50F9C012C9F2E
:10196000C0012D9F900D3C9F900D11243BE4309FB2
:10197000E001319FD00D1124CE58DC4F4C01990F5E
:10198000AA08BB08C501B4010E9412106AA37BA378
:101990008CA39DA3FE01EE5BFF4F10821182128289
:1019A0001382EE96188219821A821B8285E691E0D4
:1019B0000E941209B7FE0EC06DE280E792E00E941D
:1019C000510266277727CB01681979098A099B0993
:1019D0004AE003C04AE0C501B4010E94240986E33D
:1019E00091E00E9412090F5F1F4F80E090E02E14DB
:1019F0003F0409F09ACE47CE8EE691E00E94650939
:101A0000C0E1D0E080E792E00E9496002197D1F7F4
:101A10003ACE8091000181110CC06091F10170916A
:101A2000F20148ED59E588E593E00E94980780931C
:101A30000001C2E7D3E000EB13E0CE0106962F8150
:101A40006EEF222339F00E94AF046FEF7FE3681B33
:101A5000790B03C00E94AF04BC0180E090E00E94BB
:101A600010106C877D878E879F8720E030E040E8EC
:101A700058E30E94711020E030E044EB53E40E94F0
:101A800071106B017C01F8018485882309F4A6C0DC
:101A900086E691E00E941209A7019601C701B601EE
:101AA0000E945412882319F085E991E01AC046017A
:101AB0005701E894B7F82FEF3FEF4FE75FE7C50115
:101AC000B4010E94541281110FC02FEF3FEF4FE776
:101AD0005FE7C501B4010E940B1018162CF489E9C8
:101AE00091E00E94120976C02FEF3FEF4FE75FE4CD
:101AF000C701B6010E944F1218161CF48DE991E03F
:101B0000F0CF2FEF3FEF4FE75FECC701B6010E9428
:101B10000B1087FDF3CF20E030E0A901C701B6012B
:101B20000E940B1087FF09C06DE280E792E00E94DF
:101B30005102C701B601905802C0C701B6012AE0A0
:101B400037ED43EA5BE30E94AD112B013C010E949B
:101B500020124B015C010E9410109B01AC01C301DB
:101B6000B2010E94AC112B013C014AE0C501B40155
:101B70000E9424096EE280E792E00E94510220E078
:101B800030E040E251E4C301B2010E9471102B0128
:101B90003C010E9420124B01A12CB12C4AE0C5014E
:101BA000B4010E942409C501B4010E9410109B01D8
:101BB000AC01C301B2010E94AC1120E030E040E270
:101BC00051E40E9471100E94201280E090E04AE0EF
:101BD0000E94240986E391E00E94120920E030E08F
:101BE000A901C701B6010E944F1287FD14C020E071
:101BF00030E846EB53E4C701B6010E940B101816FB
:101C000054F0F801C086D186E286F3867C2D6D2DD6
:101C10009E2D8F2D05C0F801708561859285838585
:101C2000272F362F492F582F6AA17BA18CA19DA168
:101C30000E94AC116B017C010E9419129B0177FF7D
:101C400004C022273327261B370B253B310554F0D0
:101C500020E030E044EB53E4C701B6010E94AD112F
:101C60006B017C01F8012081318142815381C701E0
:101C7000B6010E94AD114B015C01F80160837183D4
:101C8000828393832EA13FA148A559A5C701B60120
:101C90000E9471102B013C012AA53BA54CA55DA516
:101CA000C501B4010E9471109B01AC01C301B201D6
:101CB0000E94AD114B015C01F80124813581468100
:101CC0005781C701B6010E94AC112EA53FA548A9B6
:101CD00059A90E9471109B01AC01C501B4010E9479
:101CE000AD110E9419125B01072E000C880B990B95
:101CF0000E9412102B013C0120E030E845E653EC35
:101D00000E940B1087FD0DC020E030E845E653E44B
:101D1000C301B2010E944F1218166CF0B7FE0EC03C
:101D200004C09BE1A92EBB24BA9461E088810E9483
:101D3000730960E008C085EEA82EB12C60E08881B0
:101D40000E94730961E08A810E947309B7FE03C093
:101D5000B194A194B1088C809D8061E0882D0E948F
:101D6000C009A114B10409F449C0FFEFAF16B104D2
:101D700009F446C0F401FF27EC55FF4FE491E3302E
:101D8000F9F048F4E130B9F0E230A1F584B58062B1
:101D900084BDA8BC39C0E730E9F0E83019F1E4307F
:101DA00049F580918000806280938000B0928B0022
:101DB000A0928A0029C084B5806884BDA7BC24C0D5
:101DC00080918000806880938000B0928900A0920A
:101DD00088001AC08091B00080688093B000A09203
:101DE000B30012C08091B00080628093B000A092D6
:101DF000B4000AC020E8A216B10414F460E001C0E7
:101E000061E0882D0E947309F801C482D582E682C0
:101E1000F782C55BDF4F055B1F4FF4E0C335DF077B
:101E200009F00BCE0E94C40027CC8A30910509F43A
:101E300071CC89932C163D0609F03FCC6BCCCF9327
:101E4000109273021092720288EE93E0A0E0B0E06C
:101E50008093740290937502A0937602B0937702F8
:101E60002AE031E0309371022093700225EC30E0DB
:101E700030937D0220937C0224EC30E030937F028B
:101E800020937E0220EC30E0309381022093800288
:101E900021EC30E0309383022093820222EC30E088
:101EA000309385022093840226EC30E03093870241
:101EB000209386021092890210928A0210928B025D
:101EC00010928C021092100310920F038093110352
:101ED00090931203A0931303B09314038CE191E049
:101EE00090930E0380930D0380E480937A03109205
:101EF00078038093C5031092C3038093100410925B
:101F00000E048EE080935C0460E00E94C009C1E092
:101F1000C0935D0461E080915C040E94730910929B
:101F20005E0480915D04811102C0C0935E04109232
:101F3000500310924F03109252031092510381E00C
:101F40008093530380913D038C3020F08FEF80937A
:101F5000550313C091E0980F90933D038093550370
:101F600090E0FC01EE0FFF1F8E0F9F1FFC01E75E4C
:101F7000FC4F88EB9BE09283818310926A0310925E
:101F8000690310926C0310926B0381E080936D03E0
:101F900080913D038C3020F08FEF80936F0313C04E
:101FA00091E0980F90933D0380936F0390E0FC01C4
:101FB000EE0FFF1F8E0F9F1FFC01E75EFC4F88EBAB
:101FC0009BE092838183CF910895FC018827992714
:101FD000E89421912032E9F3293010F02E30C8F333
:101FE0002B3241F02D3239F4689404C00E94031062
:101FF000820F911D219120532A30C0F31EF4909539
:1020000081959F4F08957AE0979F902D879F802D0F
:10201000910D112408950E944D1008F481E0089557
:10202000E89409C097FB3EF4909580957095619572
:102030007F4F8F4F9F4F9923A9F0F92F96E9BB2728
:102040009395F695879577956795B795F111F8CFA4
:10205000FAF4BB0F11F460FF1BC06F5F7F4F8F4F0F
:102060009F4F16C0882311F096E911C0772321F005
:102070009EE8872F762F05C0662371F096E8862F9D
:1020800070E060E02AF09A95660F771F881FDAF7F4
:10209000880F9695879597F90895990F0008550F21
:1020A000AA0BE0E8FEEF16161706E807F907C0F0DE
:1020B00012161306E407F50798F0621B730B840BE6
:1020C000950B39F40A2661F0232B242B252B21F4C0
:1020D00008950A2609F4A140A6958FEF811D811D60
:1020E00008950E9484100C94F5100E94E71038F0B7
:1020F0000E94EE1020F0952311F00C94DE100C9449
:10210000E41011240C9429110E94061170F3959F7C
:10211000C1F3950F50E0551F629FF001729FBB27DE
:10212000F00DB11D639FAA27F00DB11DAA1F649F7A
:102130006627B00DA11D661F829F2227B00DA11D2D
:10214000621F739FB00DA11D621F839FA00D611DB3
:10215000221F749F3327A00D611D231F849F600DD4
:10216000211D822F762F6A2F11249F5750409AF0FD
:10217000F1F088234AF0EE0FFF1FBB1F661F771F89
:10218000881F91505040A9F79E3F510580F00C9454
:10219000DE100C9429115F3FE4F3983ED4F386954A
:1021A00077956795B795F795E7959F5FC1F7FE2BF4
:1021B000880F911D9695879597F9089597F99F67D0
:1021C00080E870E060E008959FEF80EC08950024BF
:1021D0000A941616170618060906089500240A948C
:1021E00012161306140605060895092E0394000C12
:1021F00011F4882352F0BB0F40F4BF2B11F460FFA1
:1022000004C06F5F7F4F8F4F9F4F089557FD9058C9
:10221000440F551F59F05F3F71F04795880F97FBAA
:10222000991F61F09F3F79F0879508951216130664
:102230001406551FF2CF4695F1DF08C01616170693
:102240001806991FF1CF86957105610508940895C8
:10225000E894BB2766277727CB0197F90895052EC9
:1022600097FB1EF400940E94461157FD07D00E9470
:10227000591107FC03D04EF40C944611509540952B
:10228000309521953F4F4F4F5F4F08959095809522
:10229000709561957F4F8F4F9F4F08950E947B11DE
:1022A000A59F900DB49F900DA49F800D911D1124AA
:1022B0000895A1E21A2EAA1BBB1BFD010DC0AA1F87
:1022C000BB1FEE1FFF1FA217B307E407F50720F09F
:1022D000A21BB30BE40BF50B661F771F881F991F1A
:1022E0001A9469F760957095809590959B01AC0163
:1022F000BD01CF010895A29FB001B39FC001A39F6C
:10230000700D811D1124911DB29F700D811D11242E
:10231000911D0895DB018F939F930E944E11BF91F1
:10232000AF91A29F800D911DA39F900DB29F900D24
:1023300011240895991B79E004C0991F961708F09D
:10234000961B881F7A95C9F780950895EE0FFF1F99
:102350000590F491E02D09945058BB27AA270E94BC
:10236000C4110C94F5100E94E71038F00E94EE1092
:1023700020F039F49F3F19F426F40C94E4100EF485
:10238000E095E7FB0C94DE10E92F0E94061158F34C
:10239000BA17620773078407950720F079F4A6F54A
:1023A0000C9428110EF4E0950B2EBA2FA02D0B01E2
:1023B000B90190010C01CA01A0011124FF27591B8A
:1023C00099F0593F50F4503E68F11A16F040A22F90
:1023D000232F342F4427585FF3CF46953795279501
:1023E000A795F0405395C9F77EF41F16BA0B620B00
:1023F000730B840BBAF09150A1F0FF0FBB1F661F47
:10240000771F881FC2F70EC0BA0F621F731F841F89
:1024100048F4879577956795B795F7959E3F08F0AF
:10242000B0CF9395880F08F09927EE0F9795879571
:1024300008950E9420126894B1110C9429110895F6
:102440000E940E1188F09F5798F0B92F9927B75125
:10245000B0F0E1F0660F771F881F991F1AF0BA9548
:10246000C9F714C0B13091F00E942811B1E008956D
:102470000C942811672F782F8827B85F39F0B93F5F
:10248000CCF3869577956795B395D9F73EF49095FB
:102490008095709561957F4F8F4F9F4F08950E9453
:1024A0004D1008F48FEF08950E944D10880B990B82
:1024B000089581E090E0F8940C945E12F894FFCFB8
:1024C00001FFFF01FFFF000000005102E607870047
:1024D0009E02B8009600AA00000000005B012E01D9
:1024E0008B0102012601120103014932432065726A
:1024F000726F723A20000D0A00526F626F74206989
:102500006E7469616C697A696E672E2E2E2E004496
:102510006F6E65004D6573736167652072656365F5
:10252000697665640020616E676C653A20005F5FC4
:102530005F5F5F5F5F5F5F5F5F5F576861742061D0
:102540006D204920686561725F5F5F5F5F5F5F5FFD
:102550005F5F5F5F006E616E00696E66006F76663A
:02256000000079
:00000001FF
